{
	"ico.sol": {
		"ICO": {
			"abi": [
				{
					"inputs": [
						{
							"internalType": "address payable",
							"name": "_deposit",
							"type": "address"
						}
					],
					"stateMutability": "nonpayable",
					"type": "constructor"
				},
				{
					"anonymous": false,
					"inputs": [
						{
							"indexed": true,
							"internalType": "address",
							"name": "tokenOwner",
							"type": "address"
						},
						{
							"indexed": true,
							"internalType": "address",
							"name": "spender",
							"type": "address"
						},
						{
							"indexed": false,
							"internalType": "uint256",
							"name": "tokens",
							"type": "uint256"
						}
					],
					"name": "Approval",
					"type": "event"
				},
				{
					"anonymous": false,
					"inputs": [
						{
							"indexed": false,
							"internalType": "address",
							"name": "investor",
							"type": "address"
						},
						{
							"indexed": false,
							"internalType": "uint256",
							"name": "value",
							"type": "uint256"
						},
						{
							"indexed": false,
							"internalType": "uint256",
							"name": "tokens",
							"type": "uint256"
						}
					],
					"name": "Invest",
					"type": "event"
				},
				{
					"anonymous": false,
					"inputs": [
						{
							"indexed": true,
							"internalType": "address",
							"name": "from",
							"type": "address"
						},
						{
							"indexed": true,
							"internalType": "address",
							"name": "to",
							"type": "address"
						},
						{
							"indexed": false,
							"internalType": "uint256",
							"name": "tokens",
							"type": "uint256"
						}
					],
					"name": "Transfer",
					"type": "event"
				},
				{
					"inputs": [
						{
							"internalType": "address",
							"name": "tokenOwner",
							"type": "address"
						},
						{
							"internalType": "address",
							"name": "spender",
							"type": "address"
						}
					],
					"name": "allowance",
					"outputs": [
						{
							"internalType": "uint256",
							"name": "noOfTokens",
							"type": "uint256"
						}
					],
					"stateMutability": "view",
					"type": "function"
				},
				{
					"inputs": [
						{
							"internalType": "address",
							"name": "spender",
							"type": "address"
						},
						{
							"internalType": "uint256",
							"name": "tokens",
							"type": "uint256"
						}
					],
					"name": "approve",
					"outputs": [
						{
							"internalType": "bool",
							"name": "success",
							"type": "bool"
						}
					],
					"stateMutability": "nonpayable",
					"type": "function"
				},
				{
					"inputs": [
						{
							"internalType": "address",
							"name": "tokenOwner",
							"type": "address"
						}
					],
					"name": "balanceOf",
					"outputs": [
						{
							"internalType": "uint256",
							"name": "balance",
							"type": "uint256"
						}
					],
					"stateMutability": "view",
					"type": "function"
				},
				{
					"inputs": [
						{
							"internalType": "address",
							"name": "",
							"type": "address"
						}
					],
					"name": "balances",
					"outputs": [
						{
							"internalType": "uint256",
							"name": "",
							"type": "uint256"
						}
					],
					"stateMutability": "view",
					"type": "function"
				},
				{
					"inputs": [],
					"name": "burn",
					"outputs": [
						{
							"internalType": "bool",
							"name": "",
							"type": "bool"
						}
					],
					"stateMutability": "nonpayable",
					"type": "function"
				},
				{
					"inputs": [],
					"name": "cap",
					"outputs": [
						{
							"internalType": "uint256",
							"name": "",
							"type": "uint256"
						}
					],
					"stateMutability": "view",
					"type": "function"
				},
				{
					"inputs": [
						{
							"internalType": "address payable",
							"name": "newDeposit",
							"type": "address"
						}
					],
					"name": "changeDepositAddr",
					"outputs": [],
					"stateMutability": "nonpayable",
					"type": "function"
				},
				{
					"inputs": [],
					"name": "decimal",
					"outputs": [
						{
							"internalType": "string",
							"name": "",
							"type": "string"
						}
					],
					"stateMutability": "view",
					"type": "function"
				},
				{
					"inputs": [],
					"name": "deposit",
					"outputs": [
						{
							"internalType": "address payable",
							"name": "",
							"type": "address"
						}
					],
					"stateMutability": "view",
					"type": "function"
				},
				{
					"inputs": [],
					"name": "founder",
					"outputs": [
						{
							"internalType": "address",
							"name": "",
							"type": "address"
						}
					],
					"stateMutability": "view",
					"type": "function"
				},
				{
					"inputs": [],
					"name": "getState",
					"outputs": [
						{
							"internalType": "enum ICO.State",
							"name": "",
							"type": "uint8"
						}
					],
					"stateMutability": "view",
					"type": "function"
				},
				{
					"inputs": [],
					"name": "halt",
					"outputs": [],
					"stateMutability": "nonpayable",
					"type": "function"
				},
				{
					"inputs": [],
					"name": "icoEnd",
					"outputs": [
						{
							"internalType": "uint256",
							"name": "",
							"type": "uint256"
						}
					],
					"stateMutability": "view",
					"type": "function"
				},
				{
					"inputs": [],
					"name": "icoStart",
					"outputs": [
						{
							"internalType": "uint256",
							"name": "",
							"type": "uint256"
						}
					],
					"stateMutability": "view",
					"type": "function"
				},
				{
					"inputs": [],
					"name": "icoState",
					"outputs": [
						{
							"internalType": "enum ICO.State",
							"name": "",
							"type": "uint8"
						}
					],
					"stateMutability": "view",
					"type": "function"
				},
				{
					"inputs": [],
					"name": "invest",
					"outputs": [
						{
							"internalType": "bool",
							"name": "",
							"type": "bool"
						}
					],
					"stateMutability": "payable",
					"type": "function"
				},
				{
					"inputs": [],
					"name": "manager",
					"outputs": [
						{
							"internalType": "address",
							"name": "",
							"type": "address"
						}
					],
					"stateMutability": "view",
					"type": "function"
				},
				{
					"inputs": [],
					"name": "maxInvest",
					"outputs": [
						{
							"internalType": "uint256",
							"name": "",
							"type": "uint256"
						}
					],
					"stateMutability": "view",
					"type": "function"
				},
				{
					"inputs": [],
					"name": "minInvest",
					"outputs": [
						{
							"internalType": "uint256",
							"name": "",
							"type": "uint256"
						}
					],
					"stateMutability": "view",
					"type": "function"
				},
				{
					"inputs": [],
					"name": "name",
					"outputs": [
						{
							"internalType": "string",
							"name": "",
							"type": "string"
						}
					],
					"stateMutability": "view",
					"type": "function"
				},
				{
					"inputs": [],
					"name": "raisedAmount",
					"outputs": [
						{
							"internalType": "uint256",
							"name": "",
							"type": "uint256"
						}
					],
					"stateMutability": "view",
					"type": "function"
				},
				{
					"inputs": [],
					"name": "resume",
					"outputs": [],
					"stateMutability": "nonpayable",
					"type": "function"
				},
				{
					"inputs": [],
					"name": "tokenTradeTime",
					"outputs": [
						{
							"internalType": "uint256",
							"name": "",
							"type": "uint256"
						}
					],
					"stateMutability": "view",
					"type": "function"
				},
				{
					"inputs": [],
					"name": "totalSupply",
					"outputs": [
						{
							"internalType": "uint256",
							"name": "",
							"type": "uint256"
						}
					],
					"stateMutability": "view",
					"type": "function"
				},
				{
					"inputs": [
						{
							"internalType": "address",
							"name": "to",
							"type": "address"
						},
						{
							"internalType": "uint256",
							"name": "tokens",
							"type": "uint256"
						}
					],
					"name": "transfer",
					"outputs": [
						{
							"internalType": "bool",
							"name": "success",
							"type": "bool"
						}
					],
					"stateMutability": "nonpayable",
					"type": "function"
				},
				{
					"inputs": [
						{
							"internalType": "address",
							"name": "from",
							"type": "address"
						},
						{
							"internalType": "address",
							"name": "to",
							"type": "address"
						},
						{
							"internalType": "uint256",
							"name": "tokens",
							"type": "uint256"
						}
					],
					"name": "transferFrom",
					"outputs": [
						{
							"internalType": "bool",
							"name": "success",
							"type": "bool"
						}
					],
					"stateMutability": "nonpayable",
					"type": "function"
				},
				{
					"stateMutability": "payable",
					"type": "receive"
				}
			],
			"devdoc": {
				"kind": "dev",
				"methods": {},
				"version": 1
			},
			"evm": {
				"assembly": "    /* \"ico.sol\":2179:4560  contract ICO is Block{\r... */\n  mstore(0x40, 0x80)\n    /* \"ico.sol\":707:733  string public name=\"Block\" */\n  mload(0x40)\n  dup1\n  0x40\n  add\n  0x40\n  mstore\n  dup1\n  0x05\n  dup2\n  mstore\n  0x20\n  add\n  0x426c6f636b000000000000000000000000000000000000000000000000000000\n  dup2\n  mstore\n  pop\n  0x00\n  swap1\n  dup1\n  mload\n  swap1\n  0x20\n  add\n  swap1\n  tag_1\n  swap3\n  swap2\n  swap1\n  tag_2\n  jump\t// in\ntag_1:\n  pop\n    /* \"ico.sol\":786:811  string public decimal=\"0\" */\n  mload(0x40)\n  dup1\n  0x40\n  add\n  0x40\n  mstore\n  dup1\n  0x01\n  dup2\n  mstore\n  0x20\n  add\n  0x3000000000000000000000000000000000000000000000000000000000000000\n  dup2\n  mstore\n  pop\n  0x01\n  swap1\n  dup1\n  mload\n  swap1\n  0x20\n  add\n  swap1\n  tag_3\n  swap3\n  swap2\n  swap1\n  tag_2\n  jump\t// in\ntag_3:\n  pop\n    /* \"ico.sol\":2281:2290  0.1 ether */\n  0x016345785d8a0000\n    /* \"ico.sol\":2265:2290  uint tokenPrice=0.1 ether */\n  0x08\n  sstore\n    /* \"ico.sol\":2311:2320  300 ether */\n  0x1043561a8829300000\n    /* \"ico.sol\":2295:2320  uint public cap=300 ether */\n  0x09\n  sstore\n    /* \"ico.sol\":2375:2390  block.timestamp */\n  timestamp\n    /* \"ico.sol\":2354:2390  uint public icoStart=block.timestamp */\n  0x0b\n  sstore\n    /* \"ico.sol\":2428:2432  3600 */\n  0x0e10\n    /* \"ico.sol\":2412:2427  block.timestamp */\n  timestamp\n    /* \"ico.sol\":2412:2432  block.timestamp+3600 */\n  tag_4\n  swap2\n  swap1\n  tag_5\n  jump\t// in\ntag_4:\n    /* \"ico.sol\":2393:2432  uint public icoEnd=block.timestamp+3600 */\n  0x0c\n  sstore\n    /* \"ico.sol\":2495:2499  3600 */\n  0x0e10\n    /* \"ico.sol\":2488:2494  icoEnd */\n  sload(0x0c)\n    /* \"ico.sol\":2488:2499  icoEnd+3600 */\n  tag_6\n  swap2\n  swap1\n  tag_5\n  jump\t// in\ntag_6:\n    /* \"ico.sol\":2461:2499  uint public tokenTradeTime=icoEnd+3600 */\n  0x0d\n  sstore\n    /* \"ico.sol\":2526:2534  10 ether */\n  0x8ac7230489e80000\n    /* \"ico.sol\":2504:2534  uint public maxInvest=10 ether */\n  0x0e\n  sstore\n    /* \"ico.sol\":2559:2568  0.1 ether */\n  0x016345785d8a0000\n    /* \"ico.sol\":2537:2568  uint public minInvest=0.1 ether */\n  0x0f\n  sstore\n    /* \"ico.sol\":2709:2831  constructor(address payable _deposit){\r... */\n  callvalue\n  dup1\n  iszero\n  tag_7\n  jumpi\n  0x00\n  dup1\n  revert\ntag_7:\n  pop\n  mload(0x40)\n  sub(codesize, bytecodeSize)\n  dup1\n  bytecodeSize\n  dup4\n  codecopy\n  dup2\n  dup2\n  add\n  0x40\n  mstore\n  dup2\n  add\n  swap1\n  tag_8\n  swap2\n  swap1\n  tag_9\n  jump\t// in\ntag_8:\n    /* \"ico.sol\":1000:1006  100000 */\n  0x0186a0\n    /* \"ico.sol\":988:999  totalSupply */\n  0x02\n    /* \"ico.sol\":988:1006  totalSupply=100000 */\n  dup2\n  swap1\n  sstore\n  pop\n    /* \"ico.sol\":1021:1031  msg.sender */\n  caller\n    /* \"ico.sol\":1013:1020  founder */\n  0x03\n  0x00\n    /* \"ico.sol\":1013:1031  founder=msg.sender */\n  0x0100\n  exp\n  dup2\n  sload\n  dup2\n  0xffffffffffffffffffffffffffffffffffffffff\n  mul\n  not\n  and\n  swap1\n  dup4\n  0xffffffffffffffffffffffffffffffffffffffff\n  and\n  mul\n  or\n  swap1\n  sstore\n  pop\n    /* \"ico.sol\":1056:1067  totalSupply */\n  sload(0x02)\n    /* \"ico.sol\":1038:1046  balances */\n  0x04\n    /* \"ico.sol\":1038:1055  balances[founder] */\n  0x00\n    /* \"ico.sol\":1047:1054  founder */\n  0x03\n  0x00\n  swap1\n  sload\n  swap1\n  0x0100\n  exp\n  swap1\n  div\n  0xffffffffffffffffffffffffffffffffffffffff\n  and\n    /* \"ico.sol\":1038:1055  balances[founder] */\n  0xffffffffffffffffffffffffffffffffffffffff\n  and\n  0xffffffffffffffffffffffffffffffffffffffff\n  and\n  dup2\n  mstore\n  0x20\n  add\n  swap1\n  dup2\n  mstore\n  0x20\n  add\n  0x00\n  keccak256\n    /* \"ico.sol\":1038:1067  balances[founder]=totalSupply */\n  dup2\n  swap1\n  sstore\n  pop\n    /* \"ico.sol\":2761:2769  _deposit */\n  dup1\n    /* \"ico.sol\":2753:2760  deposit */\n  0x07\n  0x00\n    /* \"ico.sol\":2753:2769  deposit=_deposit */\n  0x0100\n  exp\n  dup2\n  sload\n  dup2\n  0xffffffffffffffffffffffffffffffffffffffff\n  mul\n  not\n  and\n  swap1\n  dup4\n  0xffffffffffffffffffffffffffffffffffffffff\n  and\n  mul\n  or\n  swap1\n  sstore\n  pop\n    /* \"ico.sol\":2784:2794  msg.sender */\n  caller\n    /* \"ico.sol\":2776:2783  manager */\n  0x06\n  0x00\n    /* \"ico.sol\":2776:2794  manager=msg.sender */\n  0x0100\n  exp\n  dup2\n  sload\n  dup2\n  0xffffffffffffffffffffffffffffffffffffffff\n  mul\n  not\n  and\n  swap1\n  dup4\n  0xffffffffffffffffffffffffffffffffffffffff\n  and\n  mul\n  or\n  swap1\n  sstore\n  pop\n    /* \"ico.sol\":2810:2827  State.beforeStart */\n  0x00\n    /* \"ico.sol\":2801:2809  icoState */\n  0x10\n  0x00\n    /* \"ico.sol\":2801:2827  icoState=State.beforeStart */\n  0x0100\n  exp\n  dup2\n  sload\n  dup2\n  0xff\n  mul\n  not\n  and\n  swap1\n  dup4\n  0x03\n  dup2\n  gt\n  iszero\n  tag_14\n  jumpi\n  tag_15\n  tag_16\n  jump\t// in\ntag_15:\ntag_14:\n  mul\n  or\n  swap1\n  sstore\n  pop\n    /* \"ico.sol\":2709:2831  constructor(address payable _deposit){\r... */\n  pop\n    /* \"ico.sol\":2179:4560  contract ICO is Block{\r... */\n  jump(tag_17)\ntag_2:\n  dup3\n  dup1\n  sload\n  tag_18\n  swap1\n  tag_19\n  jump\t// in\ntag_18:\n  swap1\n  0x00\n  mstore\n  keccak256(0x00, 0x20)\n  swap1\n  0x1f\n  add\n  0x20\n  swap1\n  div\n  dup2\n  add\n  swap3\n  dup3\n  tag_21\n  jumpi\n  0x00\n  dup6\n  sstore\n  jump(tag_20)\ntag_21:\n  dup3\n  0x1f\n  lt\n  tag_22\n  jumpi\n  dup1\n  mload\n  not(0xff)\n  and\n  dup4\n  dup1\n  add\n  or\n  dup6\n  sstore\n  jump(tag_20)\ntag_22:\n  dup3\n  dup1\n  add\n  0x01\n  add\n  dup6\n  sstore\n  dup3\n  iszero\n  tag_20\n  jumpi\n  swap2\n  dup3\n  add\ntag_23:\n  dup3\n  dup2\n  gt\n  iszero\n  tag_24\n  jumpi\n  dup3\n  mload\n  dup3\n  sstore\n  swap2\n  0x20\n  add\n  swap2\n  swap1\n  0x01\n  add\n  swap1\n  jump(tag_23)\ntag_24:\ntag_20:\n  pop\n  swap1\n  pop\n  tag_25\n  swap2\n  swap1\n  tag_26\n  jump\t// in\ntag_25:\n  pop\n  swap1\n  jump\t// out\ntag_26:\ntag_27:\n  dup1\n  dup3\n  gt\n  iszero\n  tag_28\n  jumpi\n  0x00\n  dup2\n  0x00\n  swap1\n  sstore\n  pop\n  0x01\n  add\n  jump(tag_27)\ntag_28:\n  pop\n  swap1\n  jump\t// out\n    /* \"#utility.yul\":7:166   */\ntag_30:\n    /* \"#utility.yul\":72:77   */\n  0x00\n    /* \"#utility.yul\":103:109   */\n  dup2\n    /* \"#utility.yul\":97:110   */\n  mload\n    /* \"#utility.yul\":88:110   */\n  swap1\n  pop\n    /* \"#utility.yul\":119:160   */\n  tag_32\n    /* \"#utility.yul\":154:159   */\n  dup2\n    /* \"#utility.yul\":119:160   */\n  tag_33\n  jump\t// in\ntag_32:\n    /* \"#utility.yul\":7:166   */\n  swap3\n  swap2\n  pop\n  pop\n  jump\t// out\n    /* \"#utility.yul\":172:539   */\ntag_9:\n    /* \"#utility.yul\":250:256   */\n  0x00\n    /* \"#utility.yul\":299:301   */\n  0x20\n    /* \"#utility.yul\":287:296   */\n  dup3\n    /* \"#utility.yul\":278:285   */\n  dup5\n    /* \"#utility.yul\":274:297   */\n  sub\n    /* \"#utility.yul\":270:302   */\n  slt\n    /* \"#utility.yul\":267:386   */\n  iszero\n  tag_35\n  jumpi\n    /* \"#utility.yul\":305:384   */\n  tag_36\n  tag_37\n  jump\t// in\ntag_36:\n    /* \"#utility.yul\":267:386   */\ntag_35:\n    /* \"#utility.yul\":425:426   */\n  0x00\n    /* \"#utility.yul\":450:522   */\n  tag_38\n    /* \"#utility.yul\":514:521   */\n  dup5\n    /* \"#utility.yul\":505:511   */\n  dup3\n    /* \"#utility.yul\":494:503   */\n  dup6\n    /* \"#utility.yul\":490:512   */\n  add\n    /* \"#utility.yul\":450:522   */\n  tag_30\n  jump\t// in\ntag_38:\n    /* \"#utility.yul\":440:522   */\n  swap2\n  pop\n    /* \"#utility.yul\":396:532   */\n  pop\n    /* \"#utility.yul\":172:539   */\n  swap3\n  swap2\n  pop\n  pop\n  jump\t// out\n    /* \"#utility.yul\":626:931   */\ntag_5:\n    /* \"#utility.yul\":666:669   */\n  0x00\n    /* \"#utility.yul\":685:705   */\n  tag_42\n    /* \"#utility.yul\":703:704   */\n  dup3\n    /* \"#utility.yul\":685:705   */\n  tag_43\n  jump\t// in\ntag_42:\n    /* \"#utility.yul\":680:705   */\n  swap2\n  pop\n    /* \"#utility.yul\":719:739   */\n  tag_44\n    /* \"#utility.yul\":737:738   */\n  dup4\n    /* \"#utility.yul\":719:739   */\n  tag_43\n  jump\t// in\ntag_44:\n    /* \"#utility.yul\":714:739   */\n  swap3\n  pop\n    /* \"#utility.yul\":873:874   */\n  dup3\n    /* \"#utility.yul\":805:871   */\n  0xffffffffffffffffffffffffffffffffffffffffffffffffffffffffffffffff\n    /* \"#utility.yul\":801:875   */\n  sub\n    /* \"#utility.yul\":798:799   */\n  dup3\n    /* \"#utility.yul\":795:876   */\n  gt\n    /* \"#utility.yul\":792:899   */\n  iszero\n  tag_45\n  jumpi\n    /* \"#utility.yul\":879:897   */\n  tag_46\n  tag_47\n  jump\t// in\ntag_46:\n    /* \"#utility.yul\":792:899   */\ntag_45:\n    /* \"#utility.yul\":923:924   */\n  dup3\n    /* \"#utility.yul\":920:921   */\n  dup3\n    /* \"#utility.yul\":916:925   */\n  add\n    /* \"#utility.yul\":909:925   */\n  swap1\n  pop\n    /* \"#utility.yul\":626:931   */\n  swap3\n  swap2\n  pop\n  pop\n  jump\t// out\n    /* \"#utility.yul\":937:1041   */\ntag_48:\n    /* \"#utility.yul\":982:989   */\n  0x00\n    /* \"#utility.yul\":1011:1035   */\n  tag_50\n    /* \"#utility.yul\":1029:1034   */\n  dup3\n    /* \"#utility.yul\":1011:1035   */\n  tag_51\n  jump\t// in\ntag_50:\n    /* \"#utility.yul\":1000:1035   */\n  swap1\n  pop\n    /* \"#utility.yul\":937:1041   */\n  swap2\n  swap1\n  pop\n  jump\t// out\n    /* \"#utility.yul\":1047:1173   */\ntag_51:\n    /* \"#utility.yul\":1084:1091   */\n  0x00\n    /* \"#utility.yul\":1124:1166   */\n  0xffffffffffffffffffffffffffffffffffffffff\n    /* \"#utility.yul\":1117:1122   */\n  dup3\n    /* \"#utility.yul\":1113:1167   */\n  and\n    /* \"#utility.yul\":1102:1167   */\n  swap1\n  pop\n    /* \"#utility.yul\":1047:1173   */\n  swap2\n  swap1\n  pop\n  jump\t// out\n    /* \"#utility.yul\":1179:1256   */\ntag_43:\n    /* \"#utility.yul\":1216:1223   */\n  0x00\n    /* \"#utility.yul\":1245:1250   */\n  dup2\n    /* \"#utility.yul\":1234:1250   */\n  swap1\n  pop\n    /* \"#utility.yul\":1179:1256   */\n  swap2\n  swap1\n  pop\n  jump\t// out\n    /* \"#utility.yul\":1262:1582   */\ntag_19:\n    /* \"#utility.yul\":1306:1312   */\n  0x00\n    /* \"#utility.yul\":1343:1344   */\n  0x02\n    /* \"#utility.yul\":1337:1341   */\n  dup3\n    /* \"#utility.yul\":1333:1345   */\n  div\n    /* \"#utility.yul\":1323:1345   */\n  swap1\n  pop\n    /* \"#utility.yul\":1390:1391   */\n  0x01\n    /* \"#utility.yul\":1384:1388   */\n  dup3\n    /* \"#utility.yul\":1380:1392   */\n  and\n    /* \"#utility.yul\":1411:1429   */\n  dup1\n    /* \"#utility.yul\":1401:1482   */\n  tag_55\n  jumpi\n    /* \"#utility.yul\":1467:1471   */\n  0x7f\n    /* \"#utility.yul\":1459:1465   */\n  dup3\n    /* \"#utility.yul\":1455:1472   */\n  and\n    /* \"#utility.yul\":1445:1472   */\n  swap2\n  pop\n    /* \"#utility.yul\":1401:1482   */\ntag_55:\n    /* \"#utility.yul\":1529:1531   */\n  0x20\n    /* \"#utility.yul\":1521:1527   */\n  dup3\n    /* \"#utility.yul\":1518:1532   */\n  lt\n    /* \"#utility.yul\":1498:1516   */\n  dup2\n    /* \"#utility.yul\":1495:1533   */\n  eq\n    /* \"#utility.yul\":1492:1576   */\n  iszero\n  tag_56\n  jumpi\n    /* \"#utility.yul\":1548:1566   */\n  tag_57\n  tag_58\n  jump\t// in\ntag_57:\n    /* \"#utility.yul\":1492:1576   */\ntag_56:\n    /* \"#utility.yul\":1313:1582   */\n  pop\n    /* \"#utility.yul\":1262:1582   */\n  swap2\n  swap1\n  pop\n  jump\t// out\n    /* \"#utility.yul\":1588:1768   */\ntag_47:\n    /* \"#utility.yul\":1636:1713   */\n  0x4e487b7100000000000000000000000000000000000000000000000000000000\n    /* \"#utility.yul\":1633:1634   */\n  0x00\n    /* \"#utility.yul\":1626:1714   */\n  mstore\n    /* \"#utility.yul\":1733:1737   */\n  0x11\n    /* \"#utility.yul\":1730:1731   */\n  0x04\n    /* \"#utility.yul\":1723:1738   */\n  mstore\n    /* \"#utility.yul\":1757:1761   */\n  0x24\n    /* \"#utility.yul\":1754:1755   */\n  0x00\n    /* \"#utility.yul\":1747:1762   */\n  revert\n    /* \"#utility.yul\":1774:1954   */\ntag_16:\n    /* \"#utility.yul\":1822:1899   */\n  0x4e487b7100000000000000000000000000000000000000000000000000000000\n    /* \"#utility.yul\":1819:1820   */\n  0x00\n    /* \"#utility.yul\":1812:1900   */\n  mstore\n    /* \"#utility.yul\":1919:1923   */\n  0x21\n    /* \"#utility.yul\":1916:1917   */\n  0x04\n    /* \"#utility.yul\":1909:1924   */\n  mstore\n    /* \"#utility.yul\":1943:1947   */\n  0x24\n    /* \"#utility.yul\":1940:1941   */\n  0x00\n    /* \"#utility.yul\":1933:1948   */\n  revert\n    /* \"#utility.yul\":1960:2140   */\ntag_58:\n    /* \"#utility.yul\":2008:2085   */\n  0x4e487b7100000000000000000000000000000000000000000000000000000000\n    /* \"#utility.yul\":2005:2006   */\n  0x00\n    /* \"#utility.yul\":1998:2086   */\n  mstore\n    /* \"#utility.yul\":2105:2109   */\n  0x22\n    /* \"#utility.yul\":2102:2103   */\n  0x04\n    /* \"#utility.yul\":2095:2110   */\n  mstore\n    /* \"#utility.yul\":2129:2133   */\n  0x24\n    /* \"#utility.yul\":2126:2127   */\n  0x00\n    /* \"#utility.yul\":2119:2134   */\n  revert\n    /* \"#utility.yul\":2269:2386   */\ntag_37:\n    /* \"#utility.yul\":2378:2379   */\n  0x00\n    /* \"#utility.yul\":2375:2376   */\n  dup1\n    /* \"#utility.yul\":2368:2380   */\n  revert\n    /* \"#utility.yul\":2392:2530   */\ntag_33:\n    /* \"#utility.yul\":2473:2505   */\n  tag_66\n    /* \"#utility.yul\":2499:2504   */\n  dup2\n    /* \"#utility.yul\":2473:2505   */\n  tag_48\n  jump\t// in\ntag_66:\n    /* \"#utility.yul\":2466:2471   */\n  dup2\n    /* \"#utility.yul\":2463:2506   */\n  eq\n    /* \"#utility.yul\":2453:2524   */\n  tag_67\n  jumpi\n    /* \"#utility.yul\":2520:2521   */\n  0x00\n    /* \"#utility.yul\":2517:2518   */\n  dup1\n    /* \"#utility.yul\":2510:2522   */\n  revert\n    /* \"#utility.yul\":2453:2524   */\ntag_67:\n    /* \"#utility.yul\":2392:2530   */\n  pop\n  jump\t// out\n    /* \"ico.sol\":2179:4560  contract ICO is Block{\r... */\ntag_17:\n  dataSize(sub_0)\n  dup1\n  dataOffset(sub_0)\n  0x00\n  codecopy\n  0x00\n  return\nstop\n\nsub_0: assembly {\n        /* \"ico.sol\":2179:4560  contract ICO is Block{\r... */\n      mstore(0x40, 0x80)\n      jumpi(tag_1, lt(calldatasize, 0x04))\n      shr(0xe0, calldataload(0x00))\n      dup1\n      0x4d853ee5\n      gt\n      tag_29\n      jumpi\n      dup1\n      0xa9059cbb\n      gt\n      tag_30\n      jumpi\n      dup1\n      0xd0e30db0\n      gt\n      tag_31\n      jumpi\n      dup1\n      0xd0e30db0\n      eq\n      tag_25\n      jumpi\n      dup1\n      0xdd62ed3e\n      eq\n      tag_26\n      jumpi\n      dup1\n      0xe8b5e51f\n      eq\n      tag_27\n      jumpi\n      dup1\n      0xf7ef7c6c\n      eq\n      tag_28\n      jumpi\n      jump(tag_2)\n    tag_31:\n      dup1\n      0xa9059cbb\n      eq\n      tag_22\n      jumpi\n      dup1\n      0xb8a4825f\n      eq\n      tag_23\n      jumpi\n      dup1\n      0xc59ee1dc\n      eq\n      tag_24\n      jumpi\n      jump(tag_2)\n    tag_30:\n      dup1\n      0x4d853ee5\n      eq\n      tag_16\n      jumpi\n      dup1\n      0x5ed7ca5b\n      eq\n      tag_17\n      jumpi\n      dup1\n      0x63fd9e38\n      eq\n      tag_18\n      jumpi\n      dup1\n      0x70a08231\n      eq\n      tag_19\n      jumpi\n      dup1\n      0x76809ce3\n      eq\n      tag_20\n      jumpi\n      dup1\n      0x827037db\n      eq\n      tag_21\n      jumpi\n      jump(tag_2)\n    tag_29:\n      dup1\n      0x23b872dd\n      gt\n      tag_32\n      jumpi\n      dup1\n      0x355274ea\n      gt\n      tag_33\n      jumpi\n      dup1\n      0x355274ea\n      eq\n      tag_12\n      jumpi\n      dup1\n      0x44df8e70\n      eq\n      tag_13\n      jumpi\n      dup1\n      0x44f38756\n      eq\n      tag_14\n      jumpi\n      dup1\n      0x481c6a75\n      eq\n      tag_15\n      jumpi\n      jump(tag_2)\n    tag_33:\n      dup1\n      0x23b872dd\n      eq\n      tag_9\n      jumpi\n      dup1\n      0x27e235e3\n      eq\n      tag_10\n      jumpi\n      dup1\n      0x3110235a\n      eq\n      tag_11\n      jumpi\n      jump(tag_2)\n    tag_32:\n      dup1\n      0x046f7da2\n      eq\n      tag_3\n      jumpi\n      dup1\n      0x0563451a\n      eq\n      tag_4\n      jumpi\n      dup1\n      0x06fdde03\n      eq\n      tag_5\n      jumpi\n      dup1\n      0x095ea7b3\n      eq\n      tag_6\n      jumpi\n      dup1\n      0x18160ddd\n      eq\n      tag_7\n      jumpi\n      dup1\n      0x1865c57d\n      eq\n      tag_8\n      jumpi\n      jump(tag_2)\n    tag_1:\n      jumpi(tag_2, calldatasize)\n        /* \"ico.sol\":4545:4553  invest() */\n      tag_36\n        /* \"ico.sol\":4545:4551  invest */\n      tag_37\n        /* \"ico.sol\":4545:4553  invest() */\n      jump\t// in\n    tag_36:\n      pop\n        /* \"ico.sol\":2179:4560  contract ICO is Block{\r... */\n      stop\n    tag_2:\n      0x00\n      dup1\n      revert\n        /* \"ico.sol\":2974:3042  function resume() public onlyManger{\r... */\n    tag_3:\n      callvalue\n      dup1\n      iszero\n      tag_38\n      jumpi\n      0x00\n      dup1\n      revert\n    tag_38:\n      pop\n      tag_39\n      tag_40\n      jump\t// in\n    tag_39:\n      stop\n        /* \"ico.sol\":2393:2432  uint public icoEnd=block.timestamp+3600 */\n    tag_4:\n      callvalue\n      dup1\n      iszero\n      tag_41\n      jumpi\n      0x00\n      dup1\n      revert\n    tag_41:\n      pop\n      tag_42\n      tag_43\n      jump\t// in\n    tag_42:\n      mload(0x40)\n      tag_44\n      swap2\n      swap1\n      tag_45\n      jump\t// in\n    tag_44:\n      mload(0x40)\n      dup1\n      swap2\n      sub\n      swap1\n      return\n        /* \"ico.sol\":707:733  string public name=\"Block\" */\n    tag_5:\n      callvalue\n      dup1\n      iszero\n      tag_46\n      jumpi\n      0x00\n      dup1\n      revert\n    tag_46:\n      pop\n      tag_47\n      tag_48\n      jump\t// in\n    tag_47:\n      mload(0x40)\n      tag_49\n      swap2\n      swap1\n      tag_50\n      jump\t// in\n    tag_49:\n      mload(0x40)\n      dup1\n      swap2\n      sub\n      swap1\n      return\n        /* \"ico.sol\":1495:1757  function approve(address spender,uint tokens) public override returns(bool success){\r... */\n    tag_6:\n      callvalue\n      dup1\n      iszero\n      tag_51\n      jumpi\n      0x00\n      dup1\n      revert\n    tag_51:\n      pop\n      tag_52\n      0x04\n      dup1\n      calldatasize\n      sub\n      dup2\n      add\n      swap1\n      tag_53\n      swap2\n      swap1\n      tag_54\n      jump\t// in\n    tag_53:\n      tag_55\n      jump\t// in\n    tag_52:\n      mload(0x40)\n      tag_56\n      swap2\n      swap1\n      tag_57\n      jump\t// in\n    tag_56:\n      mload(0x40)\n      dup1\n      swap2\n      sub\n      swap1\n      return\n        /* \"ico.sol\":814:846  uint public override totalSupply */\n    tag_7:\n      callvalue\n      dup1\n      iszero\n      tag_58\n      jumpi\n      0x00\n      dup1\n      revert\n    tag_58:\n      pop\n      tag_59\n      tag_60\n      jump\t// in\n    tag_59:\n      mload(0x40)\n      tag_61\n      swap2\n      swap1\n      tag_45\n      jump\t// in\n    tag_61:\n      mload(0x40)\n      dup1\n      swap2\n      sub\n      swap1\n      return\n        /* \"ico.sol\":3147:3488  function getState() public view returns(State){\r... */\n    tag_8:\n      callvalue\n      dup1\n      iszero\n      tag_62\n      jumpi\n      0x00\n      dup1\n      revert\n    tag_62:\n      pop\n      tag_63\n      tag_64\n      jump\t// in\n    tag_63:\n      mload(0x40)\n      tag_65\n      swap2\n      swap1\n      tag_66\n      jump\t// in\n    tag_65:\n      mload(0x40)\n      dup1\n      swap2\n      sub\n      swap1\n      return\n        /* \"ico.sol\":4303:4508  function transferFrom(address from,address to,uint tokens) public override returns(bool success){\r... */\n    tag_9:\n      callvalue\n      dup1\n      iszero\n      tag_67\n      jumpi\n      0x00\n      dup1\n      revert\n    tag_67:\n      pop\n      tag_68\n      0x04\n      dup1\n      calldatasize\n      sub\n      dup2\n      add\n      swap1\n      tag_69\n      swap2\n      swap1\n      tag_70\n      jump\t// in\n    tag_69:\n      tag_71\n      jump\t// in\n    tag_68:\n      mload(0x40)\n      tag_72\n      swap2\n      swap1\n      tag_57\n      jump\t// in\n    tag_72:\n      mload(0x40)\n      dup1\n      swap2\n      sub\n      swap1\n      return\n        /* \"ico.sol\":874:912  mapping(address=>uint) public balances */\n    tag_10:\n      callvalue\n      dup1\n      iszero\n      tag_73\n      jumpi\n      0x00\n      dup1\n      revert\n    tag_73:\n      pop\n      tag_74\n      0x04\n      dup1\n      calldatasize\n      sub\n      dup2\n      add\n      swap1\n      tag_75\n      swap2\n      swap1\n      tag_76\n      jump\t// in\n    tag_75:\n      tag_77\n      jump\t// in\n    tag_74:\n      mload(0x40)\n      tag_78\n      swap2\n      swap1\n      tag_45\n      jump\t// in\n    tag_78:\n      mload(0x40)\n      dup1\n      swap2\n      sub\n      swap1\n      return\n        /* \"ico.sol\":2504:2534  uint public maxInvest=10 ether */\n    tag_11:\n      callvalue\n      dup1\n      iszero\n      tag_79\n      jumpi\n      0x00\n      dup1\n      revert\n    tag_79:\n      pop\n      tag_80\n      tag_81\n      jump\t// in\n    tag_80:\n      mload(0x40)\n      tag_82\n      swap2\n      swap1\n      tag_45\n      jump\t// in\n    tag_82:\n      mload(0x40)\n      dup1\n      swap2\n      sub\n      swap1\n      return\n        /* \"ico.sol\":2295:2320  uint public cap=300 ether */\n    tag_12:\n      callvalue\n      dup1\n      iszero\n      tag_83\n      jumpi\n      0x00\n      dup1\n      revert\n    tag_83:\n      pop\n      tag_84\n      tag_85\n      jump\t// in\n    tag_84:\n      mload(0x40)\n      tag_86\n      swap2\n      swap1\n      tag_45\n      jump\t// in\n    tag_86:\n      mload(0x40)\n      dup1\n      swap2\n      sub\n      swap1\n      return\n        /* \"ico.sol\":3966:4116  function burn() public returns(bool){\r... */\n    tag_13:\n      callvalue\n      dup1\n      iszero\n      tag_87\n      jumpi\n      0x00\n      dup1\n      revert\n    tag_87:\n      pop\n      tag_88\n      tag_89\n      jump\t// in\n    tag_88:\n      mload(0x40)\n      tag_90\n      swap2\n      swap1\n      tag_57\n      jump\t// in\n    tag_90:\n      mload(0x40)\n      dup1\n      swap2\n      sub\n      swap1\n      return\n        /* \"ico.sol\":2625:2646  State public icoState */\n    tag_14:\n      callvalue\n      dup1\n      iszero\n      tag_91\n      jumpi\n      0x00\n      dup1\n      revert\n    tag_91:\n      pop\n      tag_92\n      tag_93\n      jump\t// in\n    tag_92:\n      mload(0x40)\n      tag_94\n      swap2\n      swap1\n      tag_66\n      jump\t// in\n    tag_94:\n      mload(0x40)\n      dup1\n      swap2\n      sub\n      swap1\n      return\n        /* \"ico.sol\":2205:2227  address public manager */\n    tag_15:\n      callvalue\n      dup1\n      iszero\n      tag_95\n      jumpi\n      0x00\n      dup1\n      revert\n    tag_95:\n      pop\n      tag_96\n      tag_97\n      jump\t// in\n    tag_96:\n      mload(0x40)\n      tag_98\n      swap2\n      swap1\n      tag_99\n      jump\t// in\n    tag_98:\n      mload(0x40)\n      dup1\n      swap2\n      sub\n      swap1\n      return\n        /* \"ico.sol\":849:871  address public founder */\n    tag_16:\n      callvalue\n      dup1\n      iszero\n      tag_100\n      jumpi\n      0x00\n      dup1\n      revert\n    tag_100:\n      pop\n      tag_101\n      tag_102\n      jump\t// in\n    tag_101:\n      mload(0x40)\n      tag_103\n      swap2\n      swap1\n      tag_99\n      jump\t// in\n    tag_103:\n      mload(0x40)\n      dup1\n      swap2\n      sub\n      swap1\n      return\n        /* \"ico.sol\":2907:2972  function halt() public onlyManger{\r... */\n    tag_17:\n      callvalue\n      dup1\n      iszero\n      tag_104\n      jumpi\n      0x00\n      dup1\n      revert\n    tag_104:\n      pop\n      tag_105\n      tag_106\n      jump\t// in\n    tag_105:\n      stop\n        /* \"ico.sol\":2537:2568  uint public minInvest=0.1 ether */\n    tag_18:\n      callvalue\n      dup1\n      iszero\n      tag_107\n      jumpi\n      0x00\n      dup1\n      revert\n    tag_107:\n      pop\n      tag_108\n      tag_109\n      jump\t// in\n    tag_108:\n      mload(0x40)\n      tag_110\n      swap2\n      swap1\n      tag_45\n      jump\t// in\n    tag_110:\n      mload(0x40)\n      dup1\n      swap2\n      sub\n      swap1\n      return\n        /* \"ico.sol\":1075:1194  function balanceOf(address tokenOwner) public view override returns(uint balance){\r... */\n    tag_19:\n      callvalue\n      dup1\n      iszero\n      tag_111\n      jumpi\n      0x00\n      dup1\n      revert\n    tag_111:\n      pop\n      tag_112\n      0x04\n      dup1\n      calldatasize\n      sub\n      dup2\n      add\n      swap1\n      tag_113\n      swap2\n      swap1\n      tag_76\n      jump\t// in\n    tag_113:\n      tag_114\n      jump\t// in\n    tag_112:\n      mload(0x40)\n      tag_115\n      swap2\n      swap1\n      tag_45\n      jump\t// in\n    tag_115:\n      mload(0x40)\n      dup1\n      swap2\n      sub\n      swap1\n      return\n        /* \"ico.sol\":786:811  string public decimal=\"0\" */\n    tag_20:\n      callvalue\n      dup1\n      iszero\n      tag_116\n      jumpi\n      0x00\n      dup1\n      revert\n    tag_116:\n      pop\n      tag_117\n      tag_118\n      jump\t// in\n    tag_117:\n      mload(0x40)\n      tag_119\n      swap2\n      swap1\n      tag_50\n      jump\t// in\n    tag_119:\n      mload(0x40)\n      dup1\n      swap2\n      sub\n      swap1\n      return\n        /* \"ico.sol\":2354:2390  uint public icoStart=block.timestamp */\n    tag_21:\n      callvalue\n      dup1\n      iszero\n      tag_120\n      jumpi\n      0x00\n      dup1\n      revert\n    tag_120:\n      pop\n      tag_121\n      tag_122\n      jump\t// in\n    tag_121:\n      mload(0x40)\n      tag_123\n      swap2\n      swap1\n      tag_45\n      jump\t// in\n    tag_123:\n      mload(0x40)\n      dup1\n      swap2\n      sub\n      swap1\n      return\n        /* \"ico.sol\":4120:4299  function transfer(address to,uint tokens) public override returns(bool success){\r... */\n    tag_22:\n      callvalue\n      dup1\n      iszero\n      tag_124\n      jumpi\n      0x00\n      dup1\n      revert\n    tag_124:\n      pop\n      tag_125\n      0x04\n      dup1\n      calldatasize\n      sub\n      dup2\n      add\n      swap1\n      tag_126\n      swap2\n      swap1\n      tag_54\n      jump\t// in\n    tag_126:\n      tag_127\n      jump\t// in\n    tag_125:\n      mload(0x40)\n      tag_128\n      swap2\n      swap1\n      tag_57\n      jump\t// in\n    tag_128:\n      mload(0x40)\n      dup1\n      swap2\n      sub\n      swap1\n      return\n        /* \"ico.sol\":2461:2499  uint public tokenTradeTime=icoEnd+3600 */\n    tag_23:\n      callvalue\n      dup1\n      iszero\n      tag_129\n      jumpi\n      0x00\n      dup1\n      revert\n    tag_129:\n      pop\n      tag_130\n      tag_131\n      jump\t// in\n    tag_130:\n      mload(0x40)\n      tag_132\n      swap2\n      swap1\n      tag_45\n      jump\t// in\n    tag_132:\n      mload(0x40)\n      dup1\n      swap2\n      sub\n      swap1\n      return\n        /* \"ico.sol\":2325:2349  uint public raisedAmount */\n    tag_24:\n      callvalue\n      dup1\n      iszero\n      tag_133\n      jumpi\n      0x00\n      dup1\n      revert\n    tag_133:\n      pop\n      tag_134\n      tag_135\n      jump\t// in\n    tag_134:\n      mload(0x40)\n      tag_136\n      swap2\n      swap1\n      tag_45\n      jump\t// in\n    tag_136:\n      mload(0x40)\n      dup1\n      swap2\n      sub\n      swap1\n      return\n        /* \"ico.sol\":2230:2260  address payable public deposit */\n    tag_25:\n      callvalue\n      dup1\n      iszero\n      tag_137\n      jumpi\n      0x00\n      dup1\n      revert\n    tag_137:\n      pop\n      tag_138\n      tag_139\n      jump\t// in\n    tag_138:\n      mload(0x40)\n      tag_140\n      swap2\n      swap1\n      tag_141\n      jump\t// in\n    tag_140:\n      mload(0x40)\n      dup1\n      swap2\n      sub\n      swap1\n      return\n        /* \"ico.sol\":1761:1907  function allowance(address tokenOwner,address spender) public view override returns(uint noOfTokens){\r... */\n    tag_26:\n      callvalue\n      dup1\n      iszero\n      tag_142\n      jumpi\n      0x00\n      dup1\n      revert\n    tag_142:\n      pop\n      tag_143\n      0x04\n      dup1\n      calldatasize\n      sub\n      dup2\n      add\n      swap1\n      tag_144\n      swap2\n      swap1\n      tag_145\n      jump\t// in\n    tag_144:\n      tag_146\n      jump\t// in\n    tag_143:\n      mload(0x40)\n      tag_147\n      swap2\n      swap1\n      tag_45\n      jump\t// in\n    tag_147:\n      mload(0x40)\n      dup1\n      swap2\n      sub\n      swap1\n      return\n        /* \"ico.sol\":3492:3962  function invest() payable public returns(bool){\r... */\n    tag_27:\n      tag_148\n      tag_37\n      jump\t// in\n    tag_148:\n      mload(0x40)\n      tag_149\n      swap2\n      swap1\n      tag_57\n      jump\t// in\n    tag_149:\n      mload(0x40)\n      dup1\n      swap2\n      sub\n      swap1\n      return\n        /* \"ico.sol\":3044:3145  function changeDepositAddr(address payable newDeposit) public onlyManger{\r... */\n    tag_28:\n      callvalue\n      dup1\n      iszero\n      tag_150\n      jumpi\n      0x00\n      dup1\n      revert\n    tag_150:\n      pop\n      tag_151\n      0x04\n      dup1\n      calldatasize\n      sub\n      dup2\n      add\n      swap1\n      tag_152\n      swap2\n      swap1\n      tag_153\n      jump\t// in\n    tag_152:\n      tag_154\n      jump\t// in\n    tag_151:\n      stop\n        /* \"ico.sol\":3492:3962  function invest() payable public returns(bool){\r... */\n    tag_37:\n        /* \"ico.sol\":3533:3537  bool */\n      0x00\n        /* \"ico.sol\":3554:3564  getState() */\n      tag_156\n        /* \"ico.sol\":3554:3562  getState */\n      tag_64\n        /* \"ico.sol\":3554:3564  getState() */\n      jump\t// in\n    tag_156:\n        /* \"ico.sol\":3545:3553  icoState */\n      0x10\n      0x00\n        /* \"ico.sol\":3545:3564  icoState=getState() */\n      0x0100\n      exp\n      dup2\n      sload\n      dup2\n      0xff\n      mul\n      not\n      and\n      swap1\n      dup4\n      0x03\n      dup2\n      gt\n      iszero\n      tag_157\n      jumpi\n      tag_158\n      tag_159\n      jump\t// in\n    tag_158:\n    tag_157:\n      mul\n      or\n      swap1\n      sstore\n      pop\n        /* \"ico.sol\":3589:3602  State.running */\n      0x02\n        /* \"ico.sol\":3579:3602  icoState==State.running */\n      0x03\n      dup2\n      gt\n      iszero\n      tag_160\n      jumpi\n      tag_161\n      tag_159\n      jump\t// in\n    tag_161:\n    tag_160:\n        /* \"ico.sol\":3579:3587  icoState */\n      0x10\n      0x00\n      swap1\n      sload\n      swap1\n      0x0100\n      exp\n      swap1\n      div\n      0xff\n      and\n        /* \"ico.sol\":3579:3602  icoState==State.running */\n      0x03\n      dup2\n      gt\n      iszero\n      tag_162\n      jumpi\n      tag_163\n      tag_159\n      jump\t// in\n    tag_163:\n    tag_162:\n      eq\n        /* \"ico.sol\":3571:3603  require(icoState==State.running) */\n      tag_164\n      jumpi\n      0x00\n      dup1\n      revert\n    tag_164:\n        /* \"ico.sol\":3630:3639  minInvest */\n      sload(0x0f)\n        /* \"ico.sol\":3618:3627  msg.value */\n      callvalue\n        /* \"ico.sol\":3618:3639  msg.value >=minInvest */\n      lt\n      iszero\n        /* \"ico.sol\":3618:3664  msg.value >=minInvest && msg.value <=maxInvest */\n      dup1\n      iszero\n      tag_165\n      jumpi\n      pop\n        /* \"ico.sol\":3655:3664  maxInvest */\n      sload(0x0e)\n        /* \"ico.sol\":3643:3652  msg.value */\n      callvalue\n        /* \"ico.sol\":3643:3664  msg.value <=maxInvest */\n      gt\n      iszero\n        /* \"ico.sol\":3618:3664  msg.value >=minInvest && msg.value <=maxInvest */\n    tag_165:\n        /* \"ico.sol\":3610:3665  require(msg.value >=minInvest && msg.value <=maxInvest) */\n      tag_166\n      jumpi\n      0x00\n      dup1\n      revert\n    tag_166:\n        /* \"ico.sol\":3692:3701  msg.value */\n      callvalue\n        /* \"ico.sol\":3678:3690  raisedAmount */\n      0x0a\n      0x00\n        /* \"ico.sol\":3678:3701  raisedAmount+=msg.value */\n      dup3\n      dup3\n      sload\n      tag_167\n      swap2\n      swap1\n      tag_168\n      jump\t// in\n    tag_167:\n      swap3\n      pop\n      pop\n      dup2\n      swap1\n      sstore\n      pop\n        /* \"ico.sol\":3736:3739  cap */\n      sload(0x09)\n        /* \"ico.sol\":3722:3734  raisedAmount */\n      sload(0x0a)\n        /* \"ico.sol\":3722:3739  raisedAmount<=cap */\n      gt\n      iszero\n        /* \"ico.sol\":3714:3740  require(raisedAmount<=cap) */\n      tag_169\n      jumpi\n      0x00\n      dup1\n      revert\n    tag_169:\n        /* \"ico.sol\":3753:3764  uint tokens */\n      0x00\n        /* \"ico.sol\":3775:3785  tokenPrice */\n      sload(0x08)\n        /* \"ico.sol\":3765:3774  msg.value */\n      callvalue\n        /* \"ico.sol\":3765:3785  msg.value/tokenPrice */\n      tag_170\n      swap2\n      swap1\n      tag_171\n      jump\t// in\n    tag_170:\n        /* \"ico.sol\":3753:3785  uint tokens=msg.value/tokenPrice */\n      swap1\n      pop\n        /* \"ico.sol\":3815:3821  tokens */\n      dup1\n        /* \"ico.sol\":3793:3801  balances */\n      0x04\n        /* \"ico.sol\":3793:3813  balances[msg.sender] */\n      0x00\n        /* \"ico.sol\":3802:3812  msg.sender */\n      caller\n        /* \"ico.sol\":3793:3813  balances[msg.sender] */\n      0xffffffffffffffffffffffffffffffffffffffff\n      and\n      0xffffffffffffffffffffffffffffffffffffffff\n      and\n      dup2\n      mstore\n      0x20\n      add\n      swap1\n      dup2\n      mstore\n      0x20\n      add\n      0x00\n      keccak256\n      0x00\n        /* \"ico.sol\":3793:3821  balances[msg.sender]+=tokens */\n      dup3\n      dup3\n      sload\n      tag_172\n      swap2\n      swap1\n      tag_168\n      jump\t// in\n    tag_172:\n      swap3\n      pop\n      pop\n      dup2\n      swap1\n      sstore\n      pop\n        /* \"ico.sol\":3847:3853  tokens */\n      dup1\n        /* \"ico.sol\":3828:3836  balances */\n      0x04\n        /* \"ico.sol\":3828:3845  balances[founder] */\n      0x00\n        /* \"ico.sol\":3837:3844  founder */\n      0x03\n      0x00\n      swap1\n      sload\n      swap1\n      0x0100\n      exp\n      swap1\n      div\n      0xffffffffffffffffffffffffffffffffffffffff\n      and\n        /* \"ico.sol\":3828:3845  balances[founder] */\n      0xffffffffffffffffffffffffffffffffffffffff\n      and\n      0xffffffffffffffffffffffffffffffffffffffff\n      and\n      dup2\n      mstore\n      0x20\n      add\n      swap1\n      dup2\n      mstore\n      0x20\n      add\n      0x00\n      keccak256\n      0x00\n        /* \"ico.sol\":3828:3853  balances[founder]-=tokens */\n      dup3\n      dup3\n      sload\n      tag_173\n      swap2\n      swap1\n      tag_174\n      jump\t// in\n    tag_173:\n      swap3\n      pop\n      pop\n      dup2\n      swap1\n      sstore\n      pop\n        /* \"ico.sol\":3860:3867  deposit */\n      0x07\n      0x00\n      swap1\n      sload\n      swap1\n      0x0100\n      exp\n      swap1\n      div\n      0xffffffffffffffffffffffffffffffffffffffff\n      and\n        /* \"ico.sol\":3860:3876  deposit.transfer */\n      0xffffffffffffffffffffffffffffffffffffffff\n      and\n        /* \"ico.sol\":3860:3887  deposit.transfer(msg.value) */\n      0x08fc\n        /* \"ico.sol\":3877:3886  msg.value */\n      callvalue\n        /* \"ico.sol\":3860:3887  deposit.transfer(msg.value) */\n      swap1\n      dup2\n      iszero\n      mul\n      swap1\n      mload(0x40)\n      0x00\n      mload(0x40)\n      dup1\n      dup4\n      sub\n      dup2\n      dup6\n      dup9\n      dup9\n      call\n      swap4\n      pop\n      pop\n      pop\n      pop\n      iszero\n      dup1\n      iszero\n      tag_176\n      jumpi\n      returndatasize\n      0x00\n      dup1\n      returndatacopy\n      revert(0x00, returndatasize)\n    tag_176:\n      pop\n        /* \"ico.sol\":3905:3940  Invest(msg.sender,msg.value,tokens) */\n      0x4ae4bd7655e0d350876a23cd90c4227b13db560e34435c6a488150a9c844bf5f\n        /* \"ico.sol\":3912:3922  msg.sender */\n      caller\n        /* \"ico.sol\":3923:3932  msg.value */\n      callvalue\n        /* \"ico.sol\":3933:3939  tokens */\n      dup4\n        /* \"ico.sol\":3905:3940  Invest(msg.sender,msg.value,tokens) */\n      mload(0x40)\n      tag_177\n      swap4\n      swap3\n      swap2\n      swap1\n      tag_178\n      jump\t// in\n    tag_177:\n      mload(0x40)\n      dup1\n      swap2\n      sub\n      swap1\n      log1\n        /* \"ico.sol\":3954:3958  true */\n      0x01\n        /* \"ico.sol\":3947:3958  return true */\n      swap2\n      pop\n      pop\n        /* \"ico.sol\":3492:3962  function invest() payable public returns(bool){\r... */\n      swap1\n      jump\t// out\n        /* \"ico.sol\":2974:3042  function resume() public onlyManger{\r... */\n    tag_40:\n        /* \"ico.sol\":2883:2890  manager */\n      0x06\n      0x00\n      swap1\n      sload\n      swap1\n      0x0100\n      exp\n      swap1\n      div\n      0xffffffffffffffffffffffffffffffffffffffff\n      and\n        /* \"ico.sol\":2871:2890  msg.sender==manager */\n      0xffffffffffffffffffffffffffffffffffffffff\n      and\n        /* \"ico.sol\":2871:2881  msg.sender */\n      caller\n        /* \"ico.sol\":2871:2890  msg.sender==manager */\n      0xffffffffffffffffffffffffffffffffffffffff\n      and\n      eq\n        /* \"ico.sol\":2863:2891  require(msg.sender==manager) */\n      tag_180\n      jumpi\n      0x00\n      dup1\n      revert\n    tag_180:\n        /* \"ico.sol\":3025:3038  State.running */\n      0x02\n        /* \"ico.sol\":3016:3024  icoState */\n      0x10\n      0x00\n        /* \"ico.sol\":3016:3038  icoState=State.running */\n      0x0100\n      exp\n      dup2\n      sload\n      dup2\n      0xff\n      mul\n      not\n      and\n      swap1\n      dup4\n      0x03\n      dup2\n      gt\n      iszero\n      tag_182\n      jumpi\n      tag_183\n      tag_159\n      jump\t// in\n    tag_183:\n    tag_182:\n      mul\n      or\n      swap1\n      sstore\n      pop\n        /* \"ico.sol\":2974:3042  function resume() public onlyManger{\r... */\n      jump\t// out\n        /* \"ico.sol\":2393:2432  uint public icoEnd=block.timestamp+3600 */\n    tag_43:\n      sload(0x0c)\n      dup2\n      jump\t// out\n        /* \"ico.sol\":707:733  string public name=\"Block\" */\n    tag_48:\n      0x00\n      dup1\n      sload\n      tag_184\n      swap1\n      tag_185\n      jump\t// in\n    tag_184:\n      dup1\n      0x1f\n      add\n      0x20\n      dup1\n      swap2\n      div\n      mul\n      0x20\n      add\n      mload(0x40)\n      swap1\n      dup2\n      add\n      0x40\n      mstore\n      dup1\n      swap3\n      swap2\n      swap1\n      dup2\n      dup2\n      mstore\n      0x20\n      add\n      dup3\n      dup1\n      sload\n      tag_186\n      swap1\n      tag_185\n      jump\t// in\n    tag_186:\n      dup1\n      iszero\n      tag_187\n      jumpi\n      dup1\n      0x1f\n      lt\n      tag_188\n      jumpi\n      0x0100\n      dup1\n      dup4\n      sload\n      div\n      mul\n      dup4\n      mstore\n      swap2\n      0x20\n      add\n      swap2\n      jump(tag_187)\n    tag_188:\n      dup3\n      add\n      swap2\n      swap1\n      0x00\n      mstore\n      keccak256(0x00, 0x20)\n      swap1\n    tag_189:\n      dup2\n      sload\n      dup2\n      mstore\n      swap1\n      0x01\n      add\n      swap1\n      0x20\n      add\n      dup1\n      dup4\n      gt\n      tag_189\n      jumpi\n      dup3\n      swap1\n      sub\n      0x1f\n      and\n      dup3\n      add\n      swap2\n    tag_187:\n      pop\n      pop\n      pop\n      pop\n      pop\n      dup2\n      jump\t// out\n        /* \"ico.sol\":1495:1757  function approve(address spender,uint tokens) public override returns(bool success){\r... */\n    tag_55:\n        /* \"ico.sol\":1565:1577  bool success */\n      0x00\n        /* \"ico.sol\":1615:1621  tokens */\n      dup2\n        /* \"ico.sol\":1593:1601  balances */\n      0x04\n        /* \"ico.sol\":1593:1613  balances[msg.sender] */\n      0x00\n        /* \"ico.sol\":1602:1612  msg.sender */\n      caller\n        /* \"ico.sol\":1593:1613  balances[msg.sender] */\n      0xffffffffffffffffffffffffffffffffffffffff\n      and\n      0xffffffffffffffffffffffffffffffffffffffff\n      and\n      dup2\n      mstore\n      0x20\n      add\n      swap1\n      dup2\n      mstore\n      0x20\n      add\n      0x00\n      keccak256\n      sload\n        /* \"ico.sol\":1593:1621  balances[msg.sender]>=tokens */\n      lt\n      iszero\n        /* \"ico.sol\":1585:1622  require(balances[msg.sender]>=tokens) */\n      tag_191\n      jumpi\n      0x00\n      dup1\n      revert\n    tag_191:\n        /* \"ico.sol\":1644:1645  0 */\n      0x00\n        /* \"ico.sol\":1637:1643  tokens */\n      dup3\n        /* \"ico.sol\":1637:1645  tokens>0 */\n      gt\n        /* \"ico.sol\":1629:1646  require(tokens>0) */\n      tag_192\n      jumpi\n      0x00\n      dup1\n      revert\n    tag_192:\n        /* \"ico.sol\":1682:1688  tokens */\n      dup2\n        /* \"ico.sol\":1653:1660  allowed */\n      0x05\n        /* \"ico.sol\":1653:1672  allowed[msg.sender] */\n      0x00\n        /* \"ico.sol\":1661:1671  msg.sender */\n      caller\n        /* \"ico.sol\":1653:1672  allowed[msg.sender] */\n      0xffffffffffffffffffffffffffffffffffffffff\n      and\n      0xffffffffffffffffffffffffffffffffffffffff\n      and\n      dup2\n      mstore\n      0x20\n      add\n      swap1\n      dup2\n      mstore\n      0x20\n      add\n      0x00\n      keccak256\n        /* \"ico.sol\":1653:1681  allowed[msg.sender][spender] */\n      0x00\n        /* \"ico.sol\":1673:1680  spender */\n      dup6\n        /* \"ico.sol\":1653:1681  allowed[msg.sender][spender] */\n      0xffffffffffffffffffffffffffffffffffffffff\n      and\n      0xffffffffffffffffffffffffffffffffffffffff\n      and\n      dup2\n      mstore\n      0x20\n      add\n      swap1\n      dup2\n      mstore\n      0x20\n      add\n      0x00\n      keccak256\n        /* \"ico.sol\":1653:1688  allowed[msg.sender][spender]=tokens */\n      dup2\n      swap1\n      sstore\n      pop\n        /* \"ico.sol\":1720:1727  spender */\n      dup3\n        /* \"ico.sol\":1700:1735  Approval(msg.sender,spender,tokens) */\n      0xffffffffffffffffffffffffffffffffffffffff\n      and\n        /* \"ico.sol\":1709:1719  msg.sender */\n      caller\n        /* \"ico.sol\":1700:1735  Approval(msg.sender,spender,tokens) */\n      0xffffffffffffffffffffffffffffffffffffffff\n      and\n      0x8c5be1e5ebec7d5bd14f71427d1e84f3dd0314c0f7b2291e5b200ac8c7c3b925\n        /* \"ico.sol\":1728:1734  tokens */\n      dup5\n        /* \"ico.sol\":1700:1735  Approval(msg.sender,spender,tokens) */\n      mload(0x40)\n      tag_193\n      swap2\n      swap1\n      tag_45\n      jump\t// in\n    tag_193:\n      mload(0x40)\n      dup1\n      swap2\n      sub\n      swap1\n      log3\n        /* \"ico.sol\":1749:1753  true */\n      0x01\n        /* \"ico.sol\":1742:1753  return true */\n      swap1\n      pop\n        /* \"ico.sol\":1495:1757  function approve(address spender,uint tokens) public override returns(bool success){\r... */\n      swap3\n      swap2\n      pop\n      pop\n      jump\t// out\n        /* \"ico.sol\":814:846  uint public override totalSupply */\n    tag_60:\n      sload(0x02)\n      dup2\n      jump\t// out\n        /* \"ico.sol\":3147:3488  function getState() public view returns(State){\r... */\n    tag_64:\n        /* \"ico.sol\":3187:3192  State */\n      0x00\n        /* \"ico.sol\":3213:3225  State.halted */\n      0x03\n        /* \"ico.sol\":3203:3225  icoState==State.halted */\n      dup1\n      dup2\n      gt\n      iszero\n      tag_195\n      jumpi\n      tag_196\n      tag_159\n      jump\t// in\n    tag_196:\n    tag_195:\n        /* \"ico.sol\":3203:3211  icoState */\n      0x10\n      0x00\n      swap1\n      sload\n      swap1\n      0x0100\n      exp\n      swap1\n      div\n      0xff\n      and\n        /* \"ico.sol\":3203:3225  icoState==State.halted */\n      0x03\n      dup2\n      gt\n      iszero\n      tag_197\n      jumpi\n      tag_198\n      tag_159\n      jump\t// in\n    tag_198:\n    tag_197:\n      eq\n        /* \"ico.sol\":3200:3485  if(icoState==State.halted){\r... */\n      iszero\n      tag_199\n      jumpi\n        /* \"ico.sol\":3244:3256  State.halted */\n      0x03\n        /* \"ico.sol\":3237:3256  return State.halted */\n      swap1\n      pop\n      jump(tag_194)\n        /* \"ico.sol\":3200:3485  if(icoState==State.halted){\r... */\n    tag_199:\n        /* \"ico.sol\":3288:3296  icoStart */\n      sload(0x0b)\n        /* \"ico.sol\":3272:3287  block.timestamp */\n      timestamp\n        /* \"ico.sol\":3272:3296  block.timestamp<icoStart */\n      lt\n        /* \"ico.sol\":3269:3485  if(block.timestamp<icoStart){\r... */\n      iszero\n      tag_201\n      jumpi\n        /* \"ico.sol\":3315:3332  State.beforeStart */\n      0x00\n        /* \"ico.sol\":3308:3332  return State.beforeStart */\n      swap1\n      pop\n      jump(tag_194)\n        /* \"ico.sol\":3269:3485  if(block.timestamp<icoStart){\r... */\n    tag_201:\n        /* \"ico.sol\":3365:3373  icoStart */\n      sload(0x0b)\n        /* \"ico.sol\":3348:3363  block.timestamp */\n      timestamp\n        /* \"ico.sol\":3348:3373  block.timestamp>=icoStart */\n      lt\n      iszero\n        /* \"ico.sol\":3348:3400  block.timestamp>=icoStart && block.timestamp<=icoEnd */\n      dup1\n      iszero\n      tag_203\n      jumpi\n      pop\n        /* \"ico.sol\":3394:3400  icoEnd */\n      sload(0x0c)\n        /* \"ico.sol\":3377:3392  block.timestamp */\n      timestamp\n        /* \"ico.sol\":3377:3400  block.timestamp<=icoEnd */\n      gt\n      iszero\n        /* \"ico.sol\":3348:3400  block.timestamp>=icoStart && block.timestamp<=icoEnd */\n    tag_203:\n        /* \"ico.sol\":3345:3485  if(block.timestamp>=icoStart && block.timestamp<=icoEnd){\r... */\n      iszero\n      tag_204\n      jumpi\n        /* \"ico.sol\":3420:3433  State.running */\n      0x02\n        /* \"ico.sol\":3412:3433  return  State.running */\n      swap1\n      pop\n      jump(tag_194)\n        /* \"ico.sol\":3345:3485  if(block.timestamp>=icoStart && block.timestamp<=icoEnd){\r... */\n    tag_204:\n        /* \"ico.sol\":3463:3477  State.afterEnd */\n      0x01\n        /* \"ico.sol\":3456:3477  return State.afterEnd */\n      swap1\n      pop\n        /* \"ico.sol\":3147:3488  function getState() public view returns(State){\r... */\n    tag_194:\n      swap1\n      jump\t// out\n        /* \"ico.sol\":4303:4508  function transferFrom(address from,address to,uint tokens) public override returns(bool success){\r... */\n    tag_71:\n        /* \"ico.sol\":4386:4398  bool success */\n      0x00\n        /* \"ico.sol\":4430:4444  tokenTradeTime */\n      sload(0x0d)\n        /* \"ico.sol\":4414:4429  block.timestamp */\n      timestamp\n        /* \"ico.sol\":4414:4444  block.timestamp>tokenTradeTime */\n      gt\n        /* \"ico.sol\":4406:4445  require(block.timestamp>tokenTradeTime) */\n      tag_207\n      jumpi\n      0x00\n      dup1\n      revert\n    tag_207:\n        /* \"ico.sol\":4452:4486  Block.transferFrom(from,to,tokens) */\n      tag_208\n        /* \"ico.sol\":4471:4475  from */\n      dup5\n        /* \"ico.sol\":4476:4478  to */\n      dup5\n        /* \"ico.sol\":4479:4485  tokens */\n      dup5\n        /* \"ico.sol\":4452:4470  Block.transferFrom */\n      tag_209\n        /* \"ico.sol\":4452:4486  Block.transferFrom(from,to,tokens) */\n      jump\t// in\n    tag_208:\n      pop\n        /* \"ico.sol\":4500:4504  true */\n      0x01\n        /* \"ico.sol\":4493:4504  return true */\n      swap1\n      pop\n        /* \"ico.sol\":4303:4508  function transferFrom(address from,address to,uint tokens) public override returns(bool success){\r... */\n      swap4\n      swap3\n      pop\n      pop\n      pop\n      jump\t// out\n        /* \"ico.sol\":874:912  mapping(address=>uint) public balances */\n    tag_77:\n      mstore(0x20, 0x04)\n      dup1\n      0x00\n      mstore\n      keccak256(0x00, 0x40)\n      0x00\n      swap2\n      pop\n      swap1\n      pop\n      sload\n      dup2\n      jump\t// out\n        /* \"ico.sol\":2504:2534  uint public maxInvest=10 ether */\n    tag_81:\n      sload(0x0e)\n      dup2\n      jump\t// out\n        /* \"ico.sol\":2295:2320  uint public cap=300 ether */\n    tag_85:\n      sload(0x09)\n      dup2\n      jump\t// out\n        /* \"ico.sol\":3966:4116  function burn() public returns(bool){\r... */\n    tag_89:\n        /* \"ico.sol\":3997:4001  bool */\n      0x00\n        /* \"ico.sol\":4018:4028  getState() */\n      tag_211\n        /* \"ico.sol\":4018:4026  getState */\n      tag_64\n        /* \"ico.sol\":4018:4028  getState() */\n      jump\t// in\n    tag_211:\n        /* \"ico.sol\":4009:4017  icoState */\n      0x10\n      0x00\n        /* \"ico.sol\":4009:4028  icoState=getState() */\n      0x0100\n      exp\n      dup2\n      sload\n      dup2\n      0xff\n      mul\n      not\n      and\n      swap1\n      dup4\n      0x03\n      dup2\n      gt\n      iszero\n      tag_212\n      jumpi\n      tag_213\n      tag_159\n      jump\t// in\n    tag_213:\n    tag_212:\n      mul\n      or\n      swap1\n      sstore\n      pop\n        /* \"ico.sol\":4053:4067  State.afterEnd */\n      0x01\n        /* \"ico.sol\":4043:4067  icoState==State.afterEnd */\n      0x03\n      dup2\n      gt\n      iszero\n      tag_214\n      jumpi\n      tag_215\n      tag_159\n      jump\t// in\n    tag_215:\n    tag_214:\n        /* \"ico.sol\":4043:4051  icoState */\n      0x10\n      0x00\n      swap1\n      sload\n      swap1\n      0x0100\n      exp\n      swap1\n      div\n      0xff\n      and\n        /* \"ico.sol\":4043:4067  icoState==State.afterEnd */\n      0x03\n      dup2\n      gt\n      iszero\n      tag_216\n      jumpi\n      tag_217\n      tag_159\n      jump\t// in\n    tag_217:\n    tag_216:\n      eq\n        /* \"ico.sol\":4035:4068  require(icoState==State.afterEnd) */\n      tag_218\n      jumpi\n      0x00\n      dup1\n      revert\n    tag_218:\n        /* \"ico.sol\":4093:4094  0 */\n      0x00\n        /* \"ico.sol\":4075:4083  balances */\n      0x04\n        /* \"ico.sol\":4075:4092  balances[founder] */\n      0x00\n        /* \"ico.sol\":4084:4091  founder */\n      0x03\n      0x00\n      swap1\n      sload\n      swap1\n      0x0100\n      exp\n      swap1\n      div\n      0xffffffffffffffffffffffffffffffffffffffff\n      and\n        /* \"ico.sol\":4075:4092  balances[founder] */\n      0xffffffffffffffffffffffffffffffffffffffff\n      and\n      0xffffffffffffffffffffffffffffffffffffffff\n      and\n      dup2\n      mstore\n      0x20\n      add\n      swap1\n      dup2\n      mstore\n      0x20\n      add\n      0x00\n      keccak256\n        /* \"ico.sol\":4075:4094  balances[founder]=0 */\n      dup2\n      swap1\n      sstore\n      pop\n        /* \"ico.sol\":4108:4112  true */\n      0x01\n        /* \"ico.sol\":4101:4112  return true */\n      swap1\n      pop\n        /* \"ico.sol\":3966:4116  function burn() public returns(bool){\r... */\n      swap1\n      jump\t// out\n        /* \"ico.sol\":2625:2646  State public icoState */\n    tag_93:\n      0x10\n      0x00\n      swap1\n      sload\n      swap1\n      0x0100\n      exp\n      swap1\n      div\n      0xff\n      and\n      dup2\n      jump\t// out\n        /* \"ico.sol\":2205:2227  address public manager */\n    tag_97:\n      0x06\n      0x00\n      swap1\n      sload\n      swap1\n      0x0100\n      exp\n      swap1\n      div\n      0xffffffffffffffffffffffffffffffffffffffff\n      and\n      dup2\n      jump\t// out\n        /* \"ico.sol\":849:871  address public founder */\n    tag_102:\n      0x03\n      0x00\n      swap1\n      sload\n      swap1\n      0x0100\n      exp\n      swap1\n      div\n      0xffffffffffffffffffffffffffffffffffffffff\n      and\n      dup2\n      jump\t// out\n        /* \"ico.sol\":2907:2972  function halt() public onlyManger{\r... */\n    tag_106:\n        /* \"ico.sol\":2883:2890  manager */\n      0x06\n      0x00\n      swap1\n      sload\n      swap1\n      0x0100\n      exp\n      swap1\n      div\n      0xffffffffffffffffffffffffffffffffffffffff\n      and\n        /* \"ico.sol\":2871:2890  msg.sender==manager */\n      0xffffffffffffffffffffffffffffffffffffffff\n      and\n        /* \"ico.sol\":2871:2881  msg.sender */\n      caller\n        /* \"ico.sol\":2871:2890  msg.sender==manager */\n      0xffffffffffffffffffffffffffffffffffffffff\n      and\n      eq\n        /* \"ico.sol\":2863:2891  require(msg.sender==manager) */\n      tag_220\n      jumpi\n      0x00\n      dup1\n      revert\n    tag_220:\n        /* \"ico.sol\":2956:2968  State.halted */\n      0x03\n        /* \"ico.sol\":2947:2955  icoState */\n      0x10\n      0x00\n        /* \"ico.sol\":2947:2968  icoState=State.halted */\n      0x0100\n      exp\n      dup2\n      sload\n      dup2\n      0xff\n      mul\n      not\n      and\n      swap1\n      dup4\n      0x03\n      dup2\n      gt\n      iszero\n      tag_222\n      jumpi\n      tag_223\n      tag_159\n      jump\t// in\n    tag_223:\n    tag_222:\n      mul\n      or\n      swap1\n      sstore\n      pop\n        /* \"ico.sol\":2907:2972  function halt() public onlyManger{\r... */\n      jump\t// out\n        /* \"ico.sol\":2537:2568  uint public minInvest=0.1 ether */\n    tag_109:\n      sload(0x0f)\n      dup2\n      jump\t// out\n        /* \"ico.sol\":1075:1194  function balanceOf(address tokenOwner) public view override returns(uint balance){\r... */\n    tag_114:\n        /* \"ico.sol\":1143:1155  uint balance */\n      0x00\n        /* \"ico.sol\":1170:1178  balances */\n      0x04\n        /* \"ico.sol\":1170:1190  balances[tokenOwner] */\n      0x00\n        /* \"ico.sol\":1179:1189  tokenOwner */\n      dup4\n        /* \"ico.sol\":1170:1190  balances[tokenOwner] */\n      0xffffffffffffffffffffffffffffffffffffffff\n      and\n      0xffffffffffffffffffffffffffffffffffffffff\n      and\n      dup2\n      mstore\n      0x20\n      add\n      swap1\n      dup2\n      mstore\n      0x20\n      add\n      0x00\n      keccak256\n      sload\n        /* \"ico.sol\":1163:1190  return balances[tokenOwner] */\n      swap1\n      pop\n        /* \"ico.sol\":1075:1194  function balanceOf(address tokenOwner) public view override returns(uint balance){\r... */\n      swap2\n      swap1\n      pop\n      jump\t// out\n        /* \"ico.sol\":786:811  string public decimal=\"0\" */\n    tag_118:\n      0x01\n      dup1\n      sload\n      tag_225\n      swap1\n      tag_185\n      jump\t// in\n    tag_225:\n      dup1\n      0x1f\n      add\n      0x20\n      dup1\n      swap2\n      div\n      mul\n      0x20\n      add\n      mload(0x40)\n      swap1\n      dup2\n      add\n      0x40\n      mstore\n      dup1\n      swap3\n      swap2\n      swap1\n      dup2\n      dup2\n      mstore\n      0x20\n      add\n      dup3\n      dup1\n      sload\n      tag_226\n      swap1\n      tag_185\n      jump\t// in\n    tag_226:\n      dup1\n      iszero\n      tag_227\n      jumpi\n      dup1\n      0x1f\n      lt\n      tag_228\n      jumpi\n      0x0100\n      dup1\n      dup4\n      sload\n      div\n      mul\n      dup4\n      mstore\n      swap2\n      0x20\n      add\n      swap2\n      jump(tag_227)\n    tag_228:\n      dup3\n      add\n      swap2\n      swap1\n      0x00\n      mstore\n      keccak256(0x00, 0x20)\n      swap1\n    tag_229:\n      dup2\n      sload\n      dup2\n      mstore\n      swap1\n      0x01\n      add\n      swap1\n      0x20\n      add\n      dup1\n      dup4\n      gt\n      tag_229\n      jumpi\n      dup3\n      swap1\n      sub\n      0x1f\n      and\n      dup3\n      add\n      swap2\n    tag_227:\n      pop\n      pop\n      pop\n      pop\n      pop\n      dup2\n      jump\t// out\n        /* \"ico.sol\":2354:2390  uint public icoStart=block.timestamp */\n    tag_122:\n      sload(0x0b)\n      dup2\n      jump\t// out\n        /* \"ico.sol\":4120:4299  function transfer(address to,uint tokens) public override returns(bool success){\r... */\n    tag_127:\n        /* \"ico.sol\":4186:4198  bool success */\n      0x00\n        /* \"ico.sol\":4230:4244  tokenTradeTime */\n      sload(0x0d)\n        /* \"ico.sol\":4214:4229  block.timestamp */\n      timestamp\n        /* \"ico.sol\":4214:4244  block.timestamp>tokenTradeTime */\n      gt\n        /* \"ico.sol\":4206:4245  require(block.timestamp>tokenTradeTime) */\n      tag_231\n      jumpi\n      0x00\n      dup1\n      revert\n    tag_231:\n        /* \"ico.sol\":4252:4277  super.transfer(to,tokens) */\n      tag_232\n        /* \"ico.sol\":4267:4269  to */\n      dup4\n        /* \"ico.sol\":4270:4276  tokens */\n      dup4\n        /* \"ico.sol\":4252:4266  super.transfer */\n      tag_233\n        /* \"ico.sol\":4252:4277  super.transfer(to,tokens) */\n      jump\t// in\n    tag_232:\n      pop\n        /* \"ico.sol\":4291:4295  true */\n      0x01\n        /* \"ico.sol\":4284:4295  return true */\n      swap1\n      pop\n        /* \"ico.sol\":4120:4299  function transfer(address to,uint tokens) public override returns(bool success){\r... */\n      swap3\n      swap2\n      pop\n      pop\n      jump\t// out\n        /* \"ico.sol\":2461:2499  uint public tokenTradeTime=icoEnd+3600 */\n    tag_131:\n      sload(0x0d)\n      dup2\n      jump\t// out\n        /* \"ico.sol\":2325:2349  uint public raisedAmount */\n    tag_135:\n      sload(0x0a)\n      dup2\n      jump\t// out\n        /* \"ico.sol\":2230:2260  address payable public deposit */\n    tag_139:\n      0x07\n      0x00\n      swap1\n      sload\n      swap1\n      0x0100\n      exp\n      swap1\n      div\n      0xffffffffffffffffffffffffffffffffffffffff\n      and\n      dup2\n      jump\t// out\n        /* \"ico.sol\":1761:1907  function allowance(address tokenOwner,address spender) public view override returns(uint noOfTokens){\r... */\n    tag_146:\n        /* \"ico.sol\":1845:1860  uint noOfTokens */\n      0x00\n        /* \"ico.sol\":1875:1882  allowed */\n      0x05\n        /* \"ico.sol\":1875:1894  allowed[tokenOwner] */\n      0x00\n        /* \"ico.sol\":1883:1893  tokenOwner */\n      dup5\n        /* \"ico.sol\":1875:1894  allowed[tokenOwner] */\n      0xffffffffffffffffffffffffffffffffffffffff\n      and\n      0xffffffffffffffffffffffffffffffffffffffff\n      and\n      dup2\n      mstore\n      0x20\n      add\n      swap1\n      dup2\n      mstore\n      0x20\n      add\n      0x00\n      keccak256\n        /* \"ico.sol\":1875:1903  allowed[tokenOwner][spender] */\n      0x00\n        /* \"ico.sol\":1895:1902  spender */\n      dup4\n        /* \"ico.sol\":1875:1903  allowed[tokenOwner][spender] */\n      0xffffffffffffffffffffffffffffffffffffffff\n      and\n      0xffffffffffffffffffffffffffffffffffffffff\n      and\n      dup2\n      mstore\n      0x20\n      add\n      swap1\n      dup2\n      mstore\n      0x20\n      add\n      0x00\n      keccak256\n      sload\n        /* \"ico.sol\":1868:1903  return allowed[tokenOwner][spender] */\n      swap1\n      pop\n        /* \"ico.sol\":1761:1907  function allowance(address tokenOwner,address spender) public view override returns(uint noOfTokens){\r... */\n      swap3\n      swap2\n      pop\n      pop\n      jump\t// out\n        /* \"ico.sol\":3044:3145  function changeDepositAddr(address payable newDeposit) public onlyManger{\r... */\n    tag_154:\n        /* \"ico.sol\":2883:2890  manager */\n      0x06\n      0x00\n      swap1\n      sload\n      swap1\n      0x0100\n      exp\n      swap1\n      div\n      0xffffffffffffffffffffffffffffffffffffffff\n      and\n        /* \"ico.sol\":2871:2890  msg.sender==manager */\n      0xffffffffffffffffffffffffffffffffffffffff\n      and\n        /* \"ico.sol\":2871:2881  msg.sender */\n      caller\n        /* \"ico.sol\":2871:2890  msg.sender==manager */\n      0xffffffffffffffffffffffffffffffffffffffff\n      and\n      eq\n        /* \"ico.sol\":2863:2891  require(msg.sender==manager) */\n      tag_236\n      jumpi\n      0x00\n      dup1\n      revert\n    tag_236:\n        /* \"ico.sol\":3131:3141  newDeposit */\n      dup1\n        /* \"ico.sol\":3123:3130  deposit */\n      0x07\n      0x00\n        /* \"ico.sol\":3123:3141  deposit=newDeposit */\n      0x0100\n      exp\n      dup2\n      sload\n      dup2\n      0xffffffffffffffffffffffffffffffffffffffff\n      mul\n      not\n      and\n      swap1\n      dup4\n      0xffffffffffffffffffffffffffffffffffffffff\n      and\n      mul\n      or\n      swap1\n      sstore\n      pop\n        /* \"ico.sol\":3044:3145  function changeDepositAddr(address payable newDeposit) public onlyManger{\r... */\n      pop\n      jump\t// out\n        /* \"ico.sol\":1911:2172  function transferFrom(address from,address to,uint tokens) public override virtual returns(bool success){\r... */\n    tag_209:\n        /* \"ico.sol\":2002:2014  bool success */\n      0x00\n        /* \"ico.sol\":2049:2055  tokens */\n      dup2\n        /* \"ico.sol\":2030:2037  allowed */\n      0x05\n        /* \"ico.sol\":2030:2043  allowed[from] */\n      0x00\n        /* \"ico.sol\":2038:2042  from */\n      dup7\n        /* \"ico.sol\":2030:2043  allowed[from] */\n      0xffffffffffffffffffffffffffffffffffffffff\n      and\n      0xffffffffffffffffffffffffffffffffffffffff\n      and\n      dup2\n      mstore\n      0x20\n      add\n      swap1\n      dup2\n      mstore\n      0x20\n      add\n      0x00\n      keccak256\n        /* \"ico.sol\":2030:2047  allowed[from][to] */\n      0x00\n        /* \"ico.sol\":2044:2046  to */\n      dup6\n        /* \"ico.sol\":2030:2047  allowed[from][to] */\n      0xffffffffffffffffffffffffffffffffffffffff\n      and\n      0xffffffffffffffffffffffffffffffffffffffff\n      and\n      dup2\n      mstore\n      0x20\n      add\n      swap1\n      dup2\n      mstore\n      0x20\n      add\n      0x00\n      keccak256\n      sload\n        /* \"ico.sol\":2030:2055  allowed[from][to]>=tokens */\n      lt\n      iszero\n        /* \"ico.sol\":2022:2056  require(allowed[from][to]>=tokens) */\n      tag_239\n      jumpi\n      0x00\n      dup1\n      revert\n    tag_239:\n        /* \"ico.sol\":2087:2093  tokens */\n      dup2\n        /* \"ico.sol\":2071:2079  balances */\n      0x04\n        /* \"ico.sol\":2071:2085  balances[from] */\n      0x00\n        /* \"ico.sol\":2080:2084  from */\n      dup7\n        /* \"ico.sol\":2071:2085  balances[from] */\n      0xffffffffffffffffffffffffffffffffffffffff\n      and\n      0xffffffffffffffffffffffffffffffffffffffff\n      and\n      dup2\n      mstore\n      0x20\n      add\n      swap1\n      dup2\n      mstore\n      0x20\n      add\n      0x00\n      keccak256\n      sload\n        /* \"ico.sol\":2071:2093  balances[from]>=tokens */\n      lt\n      iszero\n        /* \"ico.sol\":2063:2094  require(balances[from]>=tokens) */\n      tag_240\n      jumpi\n      0x00\n      dup1\n      revert\n    tag_240:\n        /* \"ico.sol\":2117:2123  tokens */\n      dup2\n        /* \"ico.sol\":2101:2109  balances */\n      0x04\n        /* \"ico.sol\":2101:2115  balances[from] */\n      0x00\n        /* \"ico.sol\":2110:2114  from */\n      dup7\n        /* \"ico.sol\":2101:2115  balances[from] */\n      0xffffffffffffffffffffffffffffffffffffffff\n      and\n      0xffffffffffffffffffffffffffffffffffffffff\n      and\n      dup2\n      mstore\n      0x20\n      add\n      swap1\n      dup2\n      mstore\n      0x20\n      add\n      0x00\n      keccak256\n      0x00\n        /* \"ico.sol\":2101:2123  balances[from]-=tokens */\n      dup3\n      dup3\n      sload\n      tag_241\n      swap2\n      swap1\n      tag_174\n      jump\t// in\n    tag_241:\n      swap3\n      pop\n      pop\n      dup2\n      swap1\n      sstore\n      pop\n        /* \"ico.sol\":2144:2150  tokens */\n      dup2\n        /* \"ico.sol\":2130:2138  balances */\n      0x04\n        /* \"ico.sol\":2130:2142  balances[to] */\n      0x00\n        /* \"ico.sol\":2139:2141  to */\n      dup6\n        /* \"ico.sol\":2130:2142  balances[to] */\n      0xffffffffffffffffffffffffffffffffffffffff\n      and\n      0xffffffffffffffffffffffffffffffffffffffff\n      and\n      dup2\n      mstore\n      0x20\n      add\n      swap1\n      dup2\n      mstore\n      0x20\n      add\n      0x00\n      keccak256\n      0x00\n        /* \"ico.sol\":2130:2150  balances[to]+=tokens */\n      dup3\n      dup3\n      sload\n      tag_242\n      swap2\n      swap1\n      tag_168\n      jump\t// in\n    tag_242:\n      swap3\n      pop\n      pop\n      dup2\n      swap1\n      sstore\n      pop\n        /* \"ico.sol\":2164:2168  true */\n      0x01\n        /* \"ico.sol\":2157:2168  return true */\n      swap1\n      pop\n        /* \"ico.sol\":1911:2172  function transferFrom(address from,address to,uint tokens) public override virtual returns(bool success){\r... */\n      swap4\n      swap3\n      pop\n      pop\n      pop\n      jump\t// out\n        /* \"ico.sol\":1198:1491  function transfer(address to,uint tokens) public override virtual returns(bool success){\r... */\n    tag_233:\n        /* \"ico.sol\":1272:1284  bool success */\n      0x00\n        /* \"ico.sol\":1322:1328  tokens */\n      dup2\n        /* \"ico.sol\":1300:1308  balances */\n      0x04\n        /* \"ico.sol\":1300:1320  balances[msg.sender] */\n      0x00\n        /* \"ico.sol\":1309:1319  msg.sender */\n      caller\n        /* \"ico.sol\":1300:1320  balances[msg.sender] */\n      0xffffffffffffffffffffffffffffffffffffffff\n      and\n      0xffffffffffffffffffffffffffffffffffffffff\n      and\n      dup2\n      mstore\n      0x20\n      add\n      swap1\n      dup2\n      mstore\n      0x20\n      add\n      0x00\n      keccak256\n      sload\n        /* \"ico.sol\":1300:1328  balances[msg.sender]>=tokens */\n      lt\n      iszero\n        /* \"ico.sol\":1292:1329  require(balances[msg.sender]>=tokens) */\n      tag_244\n      jumpi\n      0x00\n      dup1\n      revert\n    tag_244:\n        /* \"ico.sol\":1350:1356  tokens */\n      dup2\n        /* \"ico.sol\":1336:1344  balances */\n      0x04\n        /* \"ico.sol\":1336:1348  balances[to] */\n      0x00\n        /* \"ico.sol\":1345:1347  to */\n      dup6\n        /* \"ico.sol\":1336:1348  balances[to] */\n      0xffffffffffffffffffffffffffffffffffffffff\n      and\n      0xffffffffffffffffffffffffffffffffffffffff\n      and\n      dup2\n      mstore\n      0x20\n      add\n      swap1\n      dup2\n      mstore\n      0x20\n      add\n      0x00\n      keccak256\n      0x00\n        /* \"ico.sol\":1336:1356  balances[to]+=tokens */\n      dup3\n      dup3\n      sload\n      tag_245\n      swap2\n      swap1\n      tag_168\n      jump\t// in\n    tag_245:\n      swap3\n      pop\n      pop\n      dup2\n      swap1\n      sstore\n      pop\n        /* \"ico.sol\":1421:1427  tokens */\n      dup2\n        /* \"ico.sol\":1399:1407  balances */\n      0x04\n        /* \"ico.sol\":1399:1419  balances[msg.sender] */\n      0x00\n        /* \"ico.sol\":1408:1418  msg.sender */\n      caller\n        /* \"ico.sol\":1399:1419  balances[msg.sender] */\n      0xffffffffffffffffffffffffffffffffffffffff\n      and\n      0xffffffffffffffffffffffffffffffffffffffff\n      and\n      dup2\n      mstore\n      0x20\n      add\n      swap1\n      dup2\n      mstore\n      0x20\n      add\n      0x00\n      keccak256\n      0x00\n        /* \"ico.sol\":1399:1427  balances[msg.sender]-=tokens */\n      dup3\n      dup3\n      sload\n      tag_246\n      swap2\n      swap1\n      tag_174\n      jump\t// in\n    tag_246:\n      swap3\n      pop\n      pop\n      dup2\n      swap1\n      sstore\n      pop\n        /* \"ico.sol\":1459:1461  to */\n      dup3\n        /* \"ico.sol\":1439:1469  Transfer(msg.sender,to,tokens) */\n      0xffffffffffffffffffffffffffffffffffffffff\n      and\n        /* \"ico.sol\":1448:1458  msg.sender */\n      caller\n        /* \"ico.sol\":1439:1469  Transfer(msg.sender,to,tokens) */\n      0xffffffffffffffffffffffffffffffffffffffff\n      and\n      0xddf252ad1be2c89b69c2b068fc378daa952ba7f163c4a11628f55a4df523b3ef\n        /* \"ico.sol\":1462:1468  tokens */\n      dup5\n        /* \"ico.sol\":1439:1469  Transfer(msg.sender,to,tokens) */\n      mload(0x40)\n      tag_247\n      swap2\n      swap1\n      tag_45\n      jump\t// in\n    tag_247:\n      mload(0x40)\n      dup1\n      swap2\n      sub\n      swap1\n      log3\n        /* \"ico.sol\":1483:1487  true */\n      0x01\n        /* \"ico.sol\":1476:1487  return true */\n      swap1\n      pop\n        /* \"ico.sol\":1198:1491  function transfer(address to,uint tokens) public override virtual returns(bool success){\r... */\n      swap3\n      swap2\n      pop\n      pop\n      jump\t// out\n        /* \"#utility.yul\":7:146   */\n    tag_249:\n        /* \"#utility.yul\":53:58   */\n      0x00\n        /* \"#utility.yul\":91:97   */\n      dup2\n        /* \"#utility.yul\":78:98   */\n      calldataload\n        /* \"#utility.yul\":69:98   */\n      swap1\n      pop\n        /* \"#utility.yul\":107:140   */\n      tag_251\n        /* \"#utility.yul\":134:139   */\n      dup2\n        /* \"#utility.yul\":107:140   */\n      tag_252\n      jump\t// in\n    tag_251:\n        /* \"#utility.yul\":7:146   */\n      swap3\n      swap2\n      pop\n      pop\n      jump\t// out\n        /* \"#utility.yul\":152:307   */\n    tag_253:\n        /* \"#utility.yul\":206:211   */\n      0x00\n        /* \"#utility.yul\":244:250   */\n      dup2\n        /* \"#utility.yul\":231:251   */\n      calldataload\n        /* \"#utility.yul\":222:251   */\n      swap1\n      pop\n        /* \"#utility.yul\":260:301   */\n      tag_255\n        /* \"#utility.yul\":295:300   */\n      dup2\n        /* \"#utility.yul\":260:301   */\n      tag_256\n      jump\t// in\n    tag_255:\n        /* \"#utility.yul\":152:307   */\n      swap3\n      swap2\n      pop\n      pop\n      jump\t// out\n        /* \"#utility.yul\":313:452   */\n    tag_257:\n        /* \"#utility.yul\":359:364   */\n      0x00\n        /* \"#utility.yul\":397:403   */\n      dup2\n        /* \"#utility.yul\":384:404   */\n      calldataload\n        /* \"#utility.yul\":375:404   */\n      swap1\n      pop\n        /* \"#utility.yul\":413:446   */\n      tag_259\n        /* \"#utility.yul\":440:445   */\n      dup2\n        /* \"#utility.yul\":413:446   */\n      tag_260\n      jump\t// in\n    tag_259:\n        /* \"#utility.yul\":313:452   */\n      swap3\n      swap2\n      pop\n      pop\n      jump\t// out\n        /* \"#utility.yul\":458:787   */\n    tag_76:\n        /* \"#utility.yul\":517:523   */\n      0x00\n        /* \"#utility.yul\":566:568   */\n      0x20\n        /* \"#utility.yul\":554:563   */\n      dup3\n        /* \"#utility.yul\":545:552   */\n      dup5\n        /* \"#utility.yul\":541:564   */\n      sub\n        /* \"#utility.yul\":537:569   */\n      slt\n        /* \"#utility.yul\":534:653   */\n      iszero\n      tag_262\n      jumpi\n        /* \"#utility.yul\":572:651   */\n      tag_263\n      tag_264\n      jump\t// in\n    tag_263:\n        /* \"#utility.yul\":534:653   */\n    tag_262:\n        /* \"#utility.yul\":692:693   */\n      0x00\n        /* \"#utility.yul\":717:770   */\n      tag_265\n        /* \"#utility.yul\":762:769   */\n      dup5\n        /* \"#utility.yul\":753:759   */\n      dup3\n        /* \"#utility.yul\":742:751   */\n      dup6\n        /* \"#utility.yul\":738:760   */\n      add\n        /* \"#utility.yul\":717:770   */\n      tag_249\n      jump\t// in\n    tag_265:\n        /* \"#utility.yul\":707:770   */\n      swap2\n      pop\n        /* \"#utility.yul\":663:780   */\n      pop\n        /* \"#utility.yul\":458:787   */\n      swap3\n      swap2\n      pop\n      pop\n      jump\t// out\n        /* \"#utility.yul\":793:1138   */\n    tag_153:\n        /* \"#utility.yul\":860:866   */\n      0x00\n        /* \"#utility.yul\":909:911   */\n      0x20\n        /* \"#utility.yul\":897:906   */\n      dup3\n        /* \"#utility.yul\":888:895   */\n      dup5\n        /* \"#utility.yul\":884:907   */\n      sub\n        /* \"#utility.yul\":880:912   */\n      slt\n        /* \"#utility.yul\":877:996   */\n      iszero\n      tag_267\n      jumpi\n        /* \"#utility.yul\":915:994   */\n      tag_268\n      tag_264\n      jump\t// in\n    tag_268:\n        /* \"#utility.yul\":877:996   */\n    tag_267:\n        /* \"#utility.yul\":1035:1036   */\n      0x00\n        /* \"#utility.yul\":1060:1121   */\n      tag_269\n        /* \"#utility.yul\":1113:1120   */\n      dup5\n        /* \"#utility.yul\":1104:1110   */\n      dup3\n        /* \"#utility.yul\":1093:1102   */\n      dup6\n        /* \"#utility.yul\":1089:1111   */\n      add\n        /* \"#utility.yul\":1060:1121   */\n      tag_253\n      jump\t// in\n    tag_269:\n        /* \"#utility.yul\":1050:1121   */\n      swap2\n      pop\n        /* \"#utility.yul\":1006:1131   */\n      pop\n        /* \"#utility.yul\":793:1138   */\n      swap3\n      swap2\n      pop\n      pop\n      jump\t// out\n        /* \"#utility.yul\":1144:1618   */\n    tag_145:\n        /* \"#utility.yul\":1212:1218   */\n      0x00\n        /* \"#utility.yul\":1220:1226   */\n      dup1\n        /* \"#utility.yul\":1269:1271   */\n      0x40\n        /* \"#utility.yul\":1257:1266   */\n      dup4\n        /* \"#utility.yul\":1248:1255   */\n      dup6\n        /* \"#utility.yul\":1244:1267   */\n      sub\n        /* \"#utility.yul\":1240:1272   */\n      slt\n        /* \"#utility.yul\":1237:1356   */\n      iszero\n      tag_271\n      jumpi\n        /* \"#utility.yul\":1275:1354   */\n      tag_272\n      tag_264\n      jump\t// in\n    tag_272:\n        /* \"#utility.yul\":1237:1356   */\n    tag_271:\n        /* \"#utility.yul\":1395:1396   */\n      0x00\n        /* \"#utility.yul\":1420:1473   */\n      tag_273\n        /* \"#utility.yul\":1465:1472   */\n      dup6\n        /* \"#utility.yul\":1456:1462   */\n      dup3\n        /* \"#utility.yul\":1445:1454   */\n      dup7\n        /* \"#utility.yul\":1441:1463   */\n      add\n        /* \"#utility.yul\":1420:1473   */\n      tag_249\n      jump\t// in\n    tag_273:\n        /* \"#utility.yul\":1410:1473   */\n      swap3\n      pop\n        /* \"#utility.yul\":1366:1483   */\n      pop\n        /* \"#utility.yul\":1522:1524   */\n      0x20\n        /* \"#utility.yul\":1548:1601   */\n      tag_274\n        /* \"#utility.yul\":1593:1600   */\n      dup6\n        /* \"#utility.yul\":1584:1590   */\n      dup3\n        /* \"#utility.yul\":1573:1582   */\n      dup7\n        /* \"#utility.yul\":1569:1591   */\n      add\n        /* \"#utility.yul\":1548:1601   */\n      tag_249\n      jump\t// in\n    tag_274:\n        /* \"#utility.yul\":1538:1601   */\n      swap2\n      pop\n        /* \"#utility.yul\":1493:1611   */\n      pop\n        /* \"#utility.yul\":1144:1618   */\n      swap3\n      pop\n      swap3\n      swap1\n      pop\n      jump\t// out\n        /* \"#utility.yul\":1624:2243   */\n    tag_70:\n        /* \"#utility.yul\":1701:1707   */\n      0x00\n        /* \"#utility.yul\":1709:1715   */\n      dup1\n        /* \"#utility.yul\":1717:1723   */\n      0x00\n        /* \"#utility.yul\":1766:1768   */\n      0x60\n        /* \"#utility.yul\":1754:1763   */\n      dup5\n        /* \"#utility.yul\":1745:1752   */\n      dup7\n        /* \"#utility.yul\":1741:1764   */\n      sub\n        /* \"#utility.yul\":1737:1769   */\n      slt\n        /* \"#utility.yul\":1734:1853   */\n      iszero\n      tag_276\n      jumpi\n        /* \"#utility.yul\":1772:1851   */\n      tag_277\n      tag_264\n      jump\t// in\n    tag_277:\n        /* \"#utility.yul\":1734:1853   */\n    tag_276:\n        /* \"#utility.yul\":1892:1893   */\n      0x00\n        /* \"#utility.yul\":1917:1970   */\n      tag_278\n        /* \"#utility.yul\":1962:1969   */\n      dup7\n        /* \"#utility.yul\":1953:1959   */\n      dup3\n        /* \"#utility.yul\":1942:1951   */\n      dup8\n        /* \"#utility.yul\":1938:1960   */\n      add\n        /* \"#utility.yul\":1917:1970   */\n      tag_249\n      jump\t// in\n    tag_278:\n        /* \"#utility.yul\":1907:1970   */\n      swap4\n      pop\n        /* \"#utility.yul\":1863:1980   */\n      pop\n        /* \"#utility.yul\":2019:2021   */\n      0x20\n        /* \"#utility.yul\":2045:2098   */\n      tag_279\n        /* \"#utility.yul\":2090:2097   */\n      dup7\n        /* \"#utility.yul\":2081:2087   */\n      dup3\n        /* \"#utility.yul\":2070:2079   */\n      dup8\n        /* \"#utility.yul\":2066:2088   */\n      add\n        /* \"#utility.yul\":2045:2098   */\n      tag_249\n      jump\t// in\n    tag_279:\n        /* \"#utility.yul\":2035:2098   */\n      swap3\n      pop\n        /* \"#utility.yul\":1990:2108   */\n      pop\n        /* \"#utility.yul\":2147:2149   */\n      0x40\n        /* \"#utility.yul\":2173:2226   */\n      tag_280\n        /* \"#utility.yul\":2218:2225   */\n      dup7\n        /* \"#utility.yul\":2209:2215   */\n      dup3\n        /* \"#utility.yul\":2198:2207   */\n      dup8\n        /* \"#utility.yul\":2194:2216   */\n      add\n        /* \"#utility.yul\":2173:2226   */\n      tag_257\n      jump\t// in\n    tag_280:\n        /* \"#utility.yul\":2163:2226   */\n      swap2\n      pop\n        /* \"#utility.yul\":2118:2236   */\n      pop\n        /* \"#utility.yul\":1624:2243   */\n      swap3\n      pop\n      swap3\n      pop\n      swap3\n      jump\t// out\n        /* \"#utility.yul\":2249:2723   */\n    tag_54:\n        /* \"#utility.yul\":2317:2323   */\n      0x00\n        /* \"#utility.yul\":2325:2331   */\n      dup1\n        /* \"#utility.yul\":2374:2376   */\n      0x40\n        /* \"#utility.yul\":2362:2371   */\n      dup4\n        /* \"#utility.yul\":2353:2360   */\n      dup6\n        /* \"#utility.yul\":2349:2372   */\n      sub\n        /* \"#utility.yul\":2345:2377   */\n      slt\n        /* \"#utility.yul\":2342:2461   */\n      iszero\n      tag_282\n      jumpi\n        /* \"#utility.yul\":2380:2459   */\n      tag_283\n      tag_264\n      jump\t// in\n    tag_283:\n        /* \"#utility.yul\":2342:2461   */\n    tag_282:\n        /* \"#utility.yul\":2500:2501   */\n      0x00\n        /* \"#utility.yul\":2525:2578   */\n      tag_284\n        /* \"#utility.yul\":2570:2577   */\n      dup6\n        /* \"#utility.yul\":2561:2567   */\n      dup3\n        /* \"#utility.yul\":2550:2559   */\n      dup7\n        /* \"#utility.yul\":2546:2568   */\n      add\n        /* \"#utility.yul\":2525:2578   */\n      tag_249\n      jump\t// in\n    tag_284:\n        /* \"#utility.yul\":2515:2578   */\n      swap3\n      pop\n        /* \"#utility.yul\":2471:2588   */\n      pop\n        /* \"#utility.yul\":2627:2629   */\n      0x20\n        /* \"#utility.yul\":2653:2706   */\n      tag_285\n        /* \"#utility.yul\":2698:2705   */\n      dup6\n        /* \"#utility.yul\":2689:2695   */\n      dup3\n        /* \"#utility.yul\":2678:2687   */\n      dup7\n        /* \"#utility.yul\":2674:2696   */\n      add\n        /* \"#utility.yul\":2653:2706   */\n      tag_257\n      jump\t// in\n    tag_285:\n        /* \"#utility.yul\":2643:2706   */\n      swap2\n      pop\n        /* \"#utility.yul\":2598:2716   */\n      pop\n        /* \"#utility.yul\":2249:2723   */\n      swap3\n      pop\n      swap3\n      swap1\n      pop\n      jump\t// out\n        /* \"#utility.yul\":2729:2871   */\n    tag_286:\n        /* \"#utility.yul\":2832:2864   */\n      tag_288\n        /* \"#utility.yul\":2858:2863   */\n      dup2\n        /* \"#utility.yul\":2832:2864   */\n      tag_289\n      jump\t// in\n    tag_288:\n        /* \"#utility.yul\":2827:2830   */\n      dup3\n        /* \"#utility.yul\":2820:2865   */\n      mstore\n        /* \"#utility.yul\":2729:2871   */\n      pop\n      pop\n      jump\t// out\n        /* \"#utility.yul\":2877:2995   */\n    tag_290:\n        /* \"#utility.yul\":2964:2988   */\n      tag_292\n        /* \"#utility.yul\":2982:2987   */\n      dup2\n        /* \"#utility.yul\":2964:2988   */\n      tag_293\n      jump\t// in\n    tag_292:\n        /* \"#utility.yul\":2959:2962   */\n      dup3\n        /* \"#utility.yul\":2952:2989   */\n      mstore\n        /* \"#utility.yul\":2877:2995   */\n      pop\n      pop\n      jump\t// out\n        /* \"#utility.yul\":3001:3110   */\n    tag_294:\n        /* \"#utility.yul\":3082:3103   */\n      tag_296\n        /* \"#utility.yul\":3097:3102   */\n      dup2\n        /* \"#utility.yul\":3082:3103   */\n      tag_297\n      jump\t// in\n    tag_296:\n        /* \"#utility.yul\":3077:3080   */\n      dup3\n        /* \"#utility.yul\":3070:3104   */\n      mstore\n        /* \"#utility.yul\":3001:3110   */\n      pop\n      pop\n      jump\t// out\n        /* \"#utility.yul\":3116:3261   */\n    tag_298:\n        /* \"#utility.yul\":3210:3254   */\n      tag_300\n        /* \"#utility.yul\":3248:3253   */\n      dup2\n        /* \"#utility.yul\":3210:3254   */\n      tag_301\n      jump\t// in\n    tag_300:\n        /* \"#utility.yul\":3205:3208   */\n      dup3\n        /* \"#utility.yul\":3198:3255   */\n      mstore\n        /* \"#utility.yul\":3116:3261   */\n      pop\n      pop\n      jump\t// out\n        /* \"#utility.yul\":3267:3631   */\n    tag_302:\n        /* \"#utility.yul\":3355:3358   */\n      0x00\n        /* \"#utility.yul\":3383:3422   */\n      tag_304\n        /* \"#utility.yul\":3416:3421   */\n      dup3\n        /* \"#utility.yul\":3383:3422   */\n      tag_305\n      jump\t// in\n    tag_304:\n        /* \"#utility.yul\":3438:3509   */\n      tag_306\n        /* \"#utility.yul\":3502:3508   */\n      dup2\n        /* \"#utility.yul\":3497:3500   */\n      dup6\n        /* \"#utility.yul\":3438:3509   */\n      tag_307\n      jump\t// in\n    tag_306:\n        /* \"#utility.yul\":3431:3509   */\n      swap4\n      pop\n        /* \"#utility.yul\":3518:3570   */\n      tag_308\n        /* \"#utility.yul\":3563:3569   */\n      dup2\n        /* \"#utility.yul\":3558:3561   */\n      dup6\n        /* \"#utility.yul\":3551:3555   */\n      0x20\n        /* \"#utility.yul\":3544:3549   */\n      dup7\n        /* \"#utility.yul\":3540:3556   */\n      add\n        /* \"#utility.yul\":3518:3570   */\n      tag_309\n      jump\t// in\n    tag_308:\n        /* \"#utility.yul\":3595:3624   */\n      tag_310\n        /* \"#utility.yul\":3617:3623   */\n      dup2\n        /* \"#utility.yul\":3595:3624   */\n      tag_311\n      jump\t// in\n    tag_310:\n        /* \"#utility.yul\":3590:3593   */\n      dup5\n        /* \"#utility.yul\":3586:3625   */\n      add\n        /* \"#utility.yul\":3579:3625   */\n      swap2\n      pop\n        /* \"#utility.yul\":3359:3631   */\n      pop\n        /* \"#utility.yul\":3267:3631   */\n      swap3\n      swap2\n      pop\n      pop\n      jump\t// out\n        /* \"#utility.yul\":3637:3755   */\n    tag_312:\n        /* \"#utility.yul\":3724:3748   */\n      tag_314\n        /* \"#utility.yul\":3742:3747   */\n      dup2\n        /* \"#utility.yul\":3724:3748   */\n      tag_315\n      jump\t// in\n    tag_314:\n        /* \"#utility.yul\":3719:3722   */\n      dup3\n        /* \"#utility.yul\":3712:3749   */\n      mstore\n        /* \"#utility.yul\":3637:3755   */\n      pop\n      pop\n      jump\t// out\n        /* \"#utility.yul\":3761:3983   */\n    tag_99:\n        /* \"#utility.yul\":3854:3858   */\n      0x00\n        /* \"#utility.yul\":3892:3894   */\n      0x20\n        /* \"#utility.yul\":3881:3890   */\n      dup3\n        /* \"#utility.yul\":3877:3895   */\n      add\n        /* \"#utility.yul\":3869:3895   */\n      swap1\n      pop\n        /* \"#utility.yul\":3905:3976   */\n      tag_317\n        /* \"#utility.yul\":3973:3974   */\n      0x00\n        /* \"#utility.yul\":3962:3971   */\n      dup4\n        /* \"#utility.yul\":3958:3975   */\n      add\n        /* \"#utility.yul\":3949:3955   */\n      dup5\n        /* \"#utility.yul\":3905:3976   */\n      tag_290\n      jump\t// in\n    tag_317:\n        /* \"#utility.yul\":3761:3983   */\n      swap3\n      swap2\n      pop\n      pop\n      jump\t// out\n        /* \"#utility.yul\":3989:4243   */\n    tag_141:\n        /* \"#utility.yul\":4098:4102   */\n      0x00\n        /* \"#utility.yul\":4136:4138   */\n      0x20\n        /* \"#utility.yul\":4125:4134   */\n      dup3\n        /* \"#utility.yul\":4121:4139   */\n      add\n        /* \"#utility.yul\":4113:4139   */\n      swap1\n      pop\n        /* \"#utility.yul\":4149:4236   */\n      tag_319\n        /* \"#utility.yul\":4233:4234   */\n      0x00\n        /* \"#utility.yul\":4222:4231   */\n      dup4\n        /* \"#utility.yul\":4218:4235   */\n      add\n        /* \"#utility.yul\":4209:4215   */\n      dup5\n        /* \"#utility.yul\":4149:4236   */\n      tag_286\n      jump\t// in\n    tag_319:\n        /* \"#utility.yul\":3989:4243   */\n      swap3\n      swap2\n      pop\n      pop\n      jump\t// out\n        /* \"#utility.yul\":4249:4691   */\n    tag_178:\n        /* \"#utility.yul\":4398:4402   */\n      0x00\n        /* \"#utility.yul\":4436:4438   */\n      0x60\n        /* \"#utility.yul\":4425:4434   */\n      dup3\n        /* \"#utility.yul\":4421:4439   */\n      add\n        /* \"#utility.yul\":4413:4439   */\n      swap1\n      pop\n        /* \"#utility.yul\":4449:4520   */\n      tag_321\n        /* \"#utility.yul\":4517:4518   */\n      0x00\n        /* \"#utility.yul\":4506:4515   */\n      dup4\n        /* \"#utility.yul\":4502:4519   */\n      add\n        /* \"#utility.yul\":4493:4499   */\n      dup7\n        /* \"#utility.yul\":4449:4520   */\n      tag_290\n      jump\t// in\n    tag_321:\n        /* \"#utility.yul\":4530:4602   */\n      tag_322\n        /* \"#utility.yul\":4598:4600   */\n      0x20\n        /* \"#utility.yul\":4587:4596   */\n      dup4\n        /* \"#utility.yul\":4583:4601   */\n      add\n        /* \"#utility.yul\":4574:4580   */\n      dup6\n        /* \"#utility.yul\":4530:4602   */\n      tag_312\n      jump\t// in\n    tag_322:\n        /* \"#utility.yul\":4612:4684   */\n      tag_323\n        /* \"#utility.yul\":4680:4682   */\n      0x40\n        /* \"#utility.yul\":4669:4678   */\n      dup4\n        /* \"#utility.yul\":4665:4683   */\n      add\n        /* \"#utility.yul\":4656:4662   */\n      dup5\n        /* \"#utility.yul\":4612:4684   */\n      tag_312\n      jump\t// in\n    tag_323:\n        /* \"#utility.yul\":4249:4691   */\n      swap5\n      swap4\n      pop\n      pop\n      pop\n      pop\n      jump\t// out\n        /* \"#utility.yul\":4697:4907   */\n    tag_57:\n        /* \"#utility.yul\":4784:4788   */\n      0x00\n        /* \"#utility.yul\":4822:4824   */\n      0x20\n        /* \"#utility.yul\":4811:4820   */\n      dup3\n        /* \"#utility.yul\":4807:4825   */\n      add\n        /* \"#utility.yul\":4799:4825   */\n      swap1\n      pop\n        /* \"#utility.yul\":4835:4900   */\n      tag_325\n        /* \"#utility.yul\":4897:4898   */\n      0x00\n        /* \"#utility.yul\":4886:4895   */\n      dup4\n        /* \"#utility.yul\":4882:4899   */\n      add\n        /* \"#utility.yul\":4873:4879   */\n      dup5\n        /* \"#utility.yul\":4835:4900   */\n      tag_294\n      jump\t// in\n    tag_325:\n        /* \"#utility.yul\":4697:4907   */\n      swap3\n      swap2\n      pop\n      pop\n      jump\t// out\n        /* \"#utility.yul\":4913:5149   */\n    tag_66:\n        /* \"#utility.yul\":5013:5017   */\n      0x00\n        /* \"#utility.yul\":5051:5053   */\n      0x20\n        /* \"#utility.yul\":5040:5049   */\n      dup3\n        /* \"#utility.yul\":5036:5054   */\n      add\n        /* \"#utility.yul\":5028:5054   */\n      swap1\n      pop\n        /* \"#utility.yul\":5064:5142   */\n      tag_327\n        /* \"#utility.yul\":5139:5140   */\n      0x00\n        /* \"#utility.yul\":5128:5137   */\n      dup4\n        /* \"#utility.yul\":5124:5141   */\n      add\n        /* \"#utility.yul\":5115:5121   */\n      dup5\n        /* \"#utility.yul\":5064:5142   */\n      tag_298\n      jump\t// in\n    tag_327:\n        /* \"#utility.yul\":4913:5149   */\n      swap3\n      swap2\n      pop\n      pop\n      jump\t// out\n        /* \"#utility.yul\":5155:5468   */\n    tag_50:\n        /* \"#utility.yul\":5268:5272   */\n      0x00\n        /* \"#utility.yul\":5306:5308   */\n      0x20\n        /* \"#utility.yul\":5295:5304   */\n      dup3\n        /* \"#utility.yul\":5291:5309   */\n      add\n        /* \"#utility.yul\":5283:5309   */\n      swap1\n      pop\n        /* \"#utility.yul\":5355:5364   */\n      dup2\n        /* \"#utility.yul\":5349:5353   */\n      dup2\n        /* \"#utility.yul\":5345:5365   */\n      sub\n        /* \"#utility.yul\":5341:5342   */\n      0x00\n        /* \"#utility.yul\":5330:5339   */\n      dup4\n        /* \"#utility.yul\":5326:5343   */\n      add\n        /* \"#utility.yul\":5319:5366   */\n      mstore\n        /* \"#utility.yul\":5383:5461   */\n      tag_329\n        /* \"#utility.yul\":5456:5460   */\n      dup2\n        /* \"#utility.yul\":5447:5453   */\n      dup5\n        /* \"#utility.yul\":5383:5461   */\n      tag_302\n      jump\t// in\n    tag_329:\n        /* \"#utility.yul\":5375:5461   */\n      swap1\n      pop\n        /* \"#utility.yul\":5155:5468   */\n      swap3\n      swap2\n      pop\n      pop\n      jump\t// out\n        /* \"#utility.yul\":5474:5696   */\n    tag_45:\n        /* \"#utility.yul\":5567:5571   */\n      0x00\n        /* \"#utility.yul\":5605:5607   */\n      0x20\n        /* \"#utility.yul\":5594:5603   */\n      dup3\n        /* \"#utility.yul\":5590:5608   */\n      add\n        /* \"#utility.yul\":5582:5608   */\n      swap1\n      pop\n        /* \"#utility.yul\":5618:5689   */\n      tag_331\n        /* \"#utility.yul\":5686:5687   */\n      0x00\n        /* \"#utility.yul\":5675:5684   */\n      dup4\n        /* \"#utility.yul\":5671:5688   */\n      add\n        /* \"#utility.yul\":5662:5668   */\n      dup5\n        /* \"#utility.yul\":5618:5689   */\n      tag_312\n      jump\t// in\n    tag_331:\n        /* \"#utility.yul\":5474:5696   */\n      swap3\n      swap2\n      pop\n      pop\n      jump\t// out\n        /* \"#utility.yul\":5783:5882   */\n    tag_305:\n        /* \"#utility.yul\":5835:5841   */\n      0x00\n        /* \"#utility.yul\":5869:5874   */\n      dup2\n        /* \"#utility.yul\":5863:5875   */\n      mload\n        /* \"#utility.yul\":5853:5875   */\n      swap1\n      pop\n        /* \"#utility.yul\":5783:5882   */\n      swap2\n      swap1\n      pop\n      jump\t// out\n        /* \"#utility.yul\":5888:6057   */\n    tag_307:\n        /* \"#utility.yul\":5972:5983   */\n      0x00\n        /* \"#utility.yul\":6006:6012   */\n      dup3\n        /* \"#utility.yul\":6001:6004   */\n      dup3\n        /* \"#utility.yul\":5994:6013   */\n      mstore\n        /* \"#utility.yul\":6046:6050   */\n      0x20\n        /* \"#utility.yul\":6041:6044   */\n      dup3\n        /* \"#utility.yul\":6037:6051   */\n      add\n        /* \"#utility.yul\":6022:6051   */\n      swap1\n      pop\n        /* \"#utility.yul\":5888:6057   */\n      swap3\n      swap2\n      pop\n      pop\n      jump\t// out\n        /* \"#utility.yul\":6063:6368   */\n    tag_168:\n        /* \"#utility.yul\":6103:6106   */\n      0x00\n        /* \"#utility.yul\":6122:6142   */\n      tag_337\n        /* \"#utility.yul\":6140:6141   */\n      dup3\n        /* \"#utility.yul\":6122:6142   */\n      tag_315\n      jump\t// in\n    tag_337:\n        /* \"#utility.yul\":6117:6142   */\n      swap2\n      pop\n        /* \"#utility.yul\":6156:6176   */\n      tag_338\n        /* \"#utility.yul\":6174:6175   */\n      dup4\n        /* \"#utility.yul\":6156:6176   */\n      tag_315\n      jump\t// in\n    tag_338:\n        /* \"#utility.yul\":6151:6176   */\n      swap3\n      pop\n        /* \"#utility.yul\":6310:6311   */\n      dup3\n        /* \"#utility.yul\":6242:6308   */\n      0xffffffffffffffffffffffffffffffffffffffffffffffffffffffffffffffff\n        /* \"#utility.yul\":6238:6312   */\n      sub\n        /* \"#utility.yul\":6235:6236   */\n      dup3\n        /* \"#utility.yul\":6232:6313   */\n      gt\n        /* \"#utility.yul\":6229:6336   */\n      iszero\n      tag_339\n      jumpi\n        /* \"#utility.yul\":6316:6334   */\n      tag_340\n      tag_341\n      jump\t// in\n    tag_340:\n        /* \"#utility.yul\":6229:6336   */\n    tag_339:\n        /* \"#utility.yul\":6360:6361   */\n      dup3\n        /* \"#utility.yul\":6357:6358   */\n      dup3\n        /* \"#utility.yul\":6353:6362   */\n      add\n        /* \"#utility.yul\":6346:6362   */\n      swap1\n      pop\n        /* \"#utility.yul\":6063:6368   */\n      swap3\n      swap2\n      pop\n      pop\n      jump\t// out\n        /* \"#utility.yul\":6374:6559   */\n    tag_171:\n        /* \"#utility.yul\":6414:6415   */\n      0x00\n        /* \"#utility.yul\":6431:6451   */\n      tag_343\n        /* \"#utility.yul\":6449:6450   */\n      dup3\n        /* \"#utility.yul\":6431:6451   */\n      tag_315\n      jump\t// in\n    tag_343:\n        /* \"#utility.yul\":6426:6451   */\n      swap2\n      pop\n        /* \"#utility.yul\":6465:6485   */\n      tag_344\n        /* \"#utility.yul\":6483:6484   */\n      dup4\n        /* \"#utility.yul\":6465:6485   */\n      tag_315\n      jump\t// in\n    tag_344:\n        /* \"#utility.yul\":6460:6485   */\n      swap3\n      pop\n        /* \"#utility.yul\":6504:6505   */\n      dup3\n        /* \"#utility.yul\":6494:6529   */\n      tag_345\n      jumpi\n        /* \"#utility.yul\":6509:6527   */\n      tag_346\n      tag_347\n      jump\t// in\n    tag_346:\n        /* \"#utility.yul\":6494:6529   */\n    tag_345:\n        /* \"#utility.yul\":6551:6552   */\n      dup3\n        /* \"#utility.yul\":6548:6549   */\n      dup3\n        /* \"#utility.yul\":6544:6553   */\n      div\n        /* \"#utility.yul\":6539:6553   */\n      swap1\n      pop\n        /* \"#utility.yul\":6374:6559   */\n      swap3\n      swap2\n      pop\n      pop\n      jump\t// out\n        /* \"#utility.yul\":6565:6756   */\n    tag_174:\n        /* \"#utility.yul\":6605:6609   */\n      0x00\n        /* \"#utility.yul\":6625:6645   */\n      tag_349\n        /* \"#utility.yul\":6643:6644   */\n      dup3\n        /* \"#utility.yul\":6625:6645   */\n      tag_315\n      jump\t// in\n    tag_349:\n        /* \"#utility.yul\":6620:6645   */\n      swap2\n      pop\n        /* \"#utility.yul\":6659:6679   */\n      tag_350\n        /* \"#utility.yul\":6677:6678   */\n      dup4\n        /* \"#utility.yul\":6659:6679   */\n      tag_315\n      jump\t// in\n    tag_350:\n        /* \"#utility.yul\":6654:6679   */\n      swap3\n      pop\n        /* \"#utility.yul\":6698:6699   */\n      dup3\n        /* \"#utility.yul\":6695:6696   */\n      dup3\n        /* \"#utility.yul\":6692:6700   */\n      lt\n        /* \"#utility.yul\":6689:6723   */\n      iszero\n      tag_351\n      jumpi\n        /* \"#utility.yul\":6703:6721   */\n      tag_352\n      tag_341\n      jump\t// in\n    tag_352:\n        /* \"#utility.yul\":6689:6723   */\n    tag_351:\n        /* \"#utility.yul\":6748:6749   */\n      dup3\n        /* \"#utility.yul\":6745:6746   */\n      dup3\n        /* \"#utility.yul\":6741:6750   */\n      sub\n        /* \"#utility.yul\":6733:6750   */\n      swap1\n      pop\n        /* \"#utility.yul\":6565:6756   */\n      swap3\n      swap2\n      pop\n      pop\n      jump\t// out\n        /* \"#utility.yul\":6762:6858   */\n    tag_293:\n        /* \"#utility.yul\":6799:6806   */\n      0x00\n        /* \"#utility.yul\":6828:6852   */\n      tag_354\n        /* \"#utility.yul\":6846:6851   */\n      dup3\n        /* \"#utility.yul\":6828:6852   */\n      tag_355\n      jump\t// in\n    tag_354:\n        /* \"#utility.yul\":6817:6852   */\n      swap1\n      pop\n        /* \"#utility.yul\":6762:6858   */\n      swap2\n      swap1\n      pop\n      jump\t// out\n        /* \"#utility.yul\":6864:6968   */\n    tag_289:\n        /* \"#utility.yul\":6909:6916   */\n      0x00\n        /* \"#utility.yul\":6938:6962   */\n      tag_357\n        /* \"#utility.yul\":6956:6961   */\n      dup3\n        /* \"#utility.yul\":6938:6962   */\n      tag_355\n      jump\t// in\n    tag_357:\n        /* \"#utility.yul\":6927:6962   */\n      swap1\n      pop\n        /* \"#utility.yul\":6864:6968   */\n      swap2\n      swap1\n      pop\n      jump\t// out\n        /* \"#utility.yul\":6974:7064   */\n    tag_297:\n        /* \"#utility.yul\":7008:7015   */\n      0x00\n        /* \"#utility.yul\":7051:7056   */\n      dup2\n        /* \"#utility.yul\":7044:7057   */\n      iszero\n        /* \"#utility.yul\":7037:7058   */\n      iszero\n        /* \"#utility.yul\":7026:7058   */\n      swap1\n      pop\n        /* \"#utility.yul\":6974:7064   */\n      swap2\n      swap1\n      pop\n      jump\t// out\n        /* \"#utility.yul\":7070:7199   */\n    tag_359:\n        /* \"#utility.yul\":7116:7123   */\n      0x00\n        /* \"#utility.yul\":7145:7150   */\n      dup2\n        /* \"#utility.yul\":7134:7150   */\n      swap1\n      pop\n        /* \"#utility.yul\":7151:7193   */\n      tag_361\n        /* \"#utility.yul\":7187:7192   */\n      dup3\n        /* \"#utility.yul\":7151:7193   */\n      tag_362\n      jump\t// in\n    tag_361:\n        /* \"#utility.yul\":7070:7199   */\n      swap2\n      swap1\n      pop\n      jump\t// out\n        /* \"#utility.yul\":7205:7331   */\n    tag_355:\n        /* \"#utility.yul\":7242:7249   */\n      0x00\n        /* \"#utility.yul\":7282:7324   */\n      0xffffffffffffffffffffffffffffffffffffffff\n        /* \"#utility.yul\":7275:7280   */\n      dup3\n        /* \"#utility.yul\":7271:7325   */\n      and\n        /* \"#utility.yul\":7260:7325   */\n      swap1\n      pop\n        /* \"#utility.yul\":7205:7331   */\n      swap2\n      swap1\n      pop\n      jump\t// out\n        /* \"#utility.yul\":7337:7414   */\n    tag_315:\n        /* \"#utility.yul\":7374:7381   */\n      0x00\n        /* \"#utility.yul\":7403:7408   */\n      dup2\n        /* \"#utility.yul\":7392:7408   */\n      swap1\n      pop\n        /* \"#utility.yul\":7337:7414   */\n      swap2\n      swap1\n      pop\n      jump\t// out\n        /* \"#utility.yul\":7420:7549   */\n    tag_301:\n        /* \"#utility.yul\":7477:7486   */\n      0x00\n        /* \"#utility.yul\":7510:7543   */\n      tag_366\n        /* \"#utility.yul\":7537:7542   */\n      dup3\n        /* \"#utility.yul\":7510:7543   */\n      tag_359\n      jump\t// in\n    tag_366:\n        /* \"#utility.yul\":7497:7543   */\n      swap1\n      pop\n        /* \"#utility.yul\":7420:7549   */\n      swap2\n      swap1\n      pop\n      jump\t// out\n        /* \"#utility.yul\":7555:7862   */\n    tag_309:\n        /* \"#utility.yul\":7623:7624   */\n      0x00\n        /* \"#utility.yul\":7633:7746   */\n    tag_368:\n        /* \"#utility.yul\":7647:7653   */\n      dup4\n        /* \"#utility.yul\":7644:7645   */\n      dup2\n        /* \"#utility.yul\":7641:7654   */\n      lt\n        /* \"#utility.yul\":7633:7746   */\n      iszero\n      tag_370\n      jumpi\n        /* \"#utility.yul\":7732:7733   */\n      dup1\n        /* \"#utility.yul\":7727:7730   */\n      dup3\n        /* \"#utility.yul\":7723:7734   */\n      add\n        /* \"#utility.yul\":7717:7735   */\n      mload\n        /* \"#utility.yul\":7713:7714   */\n      dup2\n        /* \"#utility.yul\":7708:7711   */\n      dup5\n        /* \"#utility.yul\":7704:7715   */\n      add\n        /* \"#utility.yul\":7697:7736   */\n      mstore\n        /* \"#utility.yul\":7669:7671   */\n      0x20\n        /* \"#utility.yul\":7666:7667   */\n      dup2\n        /* \"#utility.yul\":7662:7672   */\n      add\n        /* \"#utility.yul\":7657:7672   */\n      swap1\n      pop\n        /* \"#utility.yul\":7633:7746   */\n      jump(tag_368)\n    tag_370:\n        /* \"#utility.yul\":7764:7770   */\n      dup4\n        /* \"#utility.yul\":7761:7762   */\n      dup2\n        /* \"#utility.yul\":7758:7771   */\n      gt\n        /* \"#utility.yul\":7755:7856   */\n      iszero\n      tag_371\n      jumpi\n        /* \"#utility.yul\":7844:7845   */\n      0x00\n        /* \"#utility.yul\":7835:7841   */\n      dup5\n        /* \"#utility.yul\":7830:7833   */\n      dup5\n        /* \"#utility.yul\":7826:7842   */\n      add\n        /* \"#utility.yul\":7819:7846   */\n      mstore\n        /* \"#utility.yul\":7755:7856   */\n    tag_371:\n        /* \"#utility.yul\":7604:7862   */\n      pop\n        /* \"#utility.yul\":7555:7862   */\n      pop\n      pop\n      pop\n      jump\t// out\n        /* \"#utility.yul\":7868:8188   */\n    tag_185:\n        /* \"#utility.yul\":7912:7918   */\n      0x00\n        /* \"#utility.yul\":7949:7950   */\n      0x02\n        /* \"#utility.yul\":7943:7947   */\n      dup3\n        /* \"#utility.yul\":7939:7951   */\n      div\n        /* \"#utility.yul\":7929:7951   */\n      swap1\n      pop\n        /* \"#utility.yul\":7996:7997   */\n      0x01\n        /* \"#utility.yul\":7990:7994   */\n      dup3\n        /* \"#utility.yul\":7986:7998   */\n      and\n        /* \"#utility.yul\":8017:8035   */\n      dup1\n        /* \"#utility.yul\":8007:8088   */\n      tag_373\n      jumpi\n        /* \"#utility.yul\":8073:8077   */\n      0x7f\n        /* \"#utility.yul\":8065:8071   */\n      dup3\n        /* \"#utility.yul\":8061:8078   */\n      and\n        /* \"#utility.yul\":8051:8078   */\n      swap2\n      pop\n        /* \"#utility.yul\":8007:8088   */\n    tag_373:\n        /* \"#utility.yul\":8135:8137   */\n      0x20\n        /* \"#utility.yul\":8127:8133   */\n      dup3\n        /* \"#utility.yul\":8124:8138   */\n      lt\n        /* \"#utility.yul\":8104:8122   */\n      dup2\n        /* \"#utility.yul\":8101:8139   */\n      eq\n        /* \"#utility.yul\":8098:8182   */\n      iszero\n      tag_374\n      jumpi\n        /* \"#utility.yul\":8154:8172   */\n      tag_375\n      tag_376\n      jump\t// in\n    tag_375:\n        /* \"#utility.yul\":8098:8182   */\n    tag_374:\n        /* \"#utility.yul\":7919:8188   */\n      pop\n        /* \"#utility.yul\":7868:8188   */\n      swap2\n      swap1\n      pop\n      jump\t// out\n        /* \"#utility.yul\":8194:8374   */\n    tag_341:\n        /* \"#utility.yul\":8242:8319   */\n      0x4e487b7100000000000000000000000000000000000000000000000000000000\n        /* \"#utility.yul\":8239:8240   */\n      0x00\n        /* \"#utility.yul\":8232:8320   */\n      mstore\n        /* \"#utility.yul\":8339:8343   */\n      0x11\n        /* \"#utility.yul\":8336:8337   */\n      0x04\n        /* \"#utility.yul\":8329:8344   */\n      mstore\n        /* \"#utility.yul\":8363:8367   */\n      0x24\n        /* \"#utility.yul\":8360:8361   */\n      0x00\n        /* \"#utility.yul\":8353:8368   */\n      revert\n        /* \"#utility.yul\":8380:8560   */\n    tag_347:\n        /* \"#utility.yul\":8428:8505   */\n      0x4e487b7100000000000000000000000000000000000000000000000000000000\n        /* \"#utility.yul\":8425:8426   */\n      0x00\n        /* \"#utility.yul\":8418:8506   */\n      mstore\n        /* \"#utility.yul\":8525:8529   */\n      0x12\n        /* \"#utility.yul\":8522:8523   */\n      0x04\n        /* \"#utility.yul\":8515:8530   */\n      mstore\n        /* \"#utility.yul\":8549:8553   */\n      0x24\n        /* \"#utility.yul\":8546:8547   */\n      0x00\n        /* \"#utility.yul\":8539:8554   */\n      revert\n        /* \"#utility.yul\":8566:8746   */\n    tag_159:\n        /* \"#utility.yul\":8614:8691   */\n      0x4e487b7100000000000000000000000000000000000000000000000000000000\n        /* \"#utility.yul\":8611:8612   */\n      0x00\n        /* \"#utility.yul\":8604:8692   */\n      mstore\n        /* \"#utility.yul\":8711:8715   */\n      0x21\n        /* \"#utility.yul\":8708:8709   */\n      0x04\n        /* \"#utility.yul\":8701:8716   */\n      mstore\n        /* \"#utility.yul\":8735:8739   */\n      0x24\n        /* \"#utility.yul\":8732:8733   */\n      0x00\n        /* \"#utility.yul\":8725:8740   */\n      revert\n        /* \"#utility.yul\":8752:8932   */\n    tag_376:\n        /* \"#utility.yul\":8800:8877   */\n      0x4e487b7100000000000000000000000000000000000000000000000000000000\n        /* \"#utility.yul\":8797:8798   */\n      0x00\n        /* \"#utility.yul\":8790:8878   */\n      mstore\n        /* \"#utility.yul\":8897:8901   */\n      0x22\n        /* \"#utility.yul\":8894:8895   */\n      0x04\n        /* \"#utility.yul\":8887:8902   */\n      mstore\n        /* \"#utility.yul\":8921:8925   */\n      0x24\n        /* \"#utility.yul\":8918:8919   */\n      0x00\n        /* \"#utility.yul\":8911:8926   */\n      revert\n        /* \"#utility.yul\":9061:9178   */\n    tag_264:\n        /* \"#utility.yul\":9170:9171   */\n      0x00\n        /* \"#utility.yul\":9167:9168   */\n      dup1\n        /* \"#utility.yul\":9160:9172   */\n      revert\n        /* \"#utility.yul\":9184:9286   */\n    tag_311:\n        /* \"#utility.yul\":9225:9231   */\n      0x00\n        /* \"#utility.yul\":9276:9278   */\n      0x1f\n        /* \"#utility.yul\":9272:9279   */\n      not\n        /* \"#utility.yul\":9267:9269   */\n      0x1f\n        /* \"#utility.yul\":9260:9265   */\n      dup4\n        /* \"#utility.yul\":9256:9270   */\n      add\n        /* \"#utility.yul\":9252:9280   */\n      and\n        /* \"#utility.yul\":9242:9280   */\n      swap1\n      pop\n        /* \"#utility.yul\":9184:9286   */\n      swap2\n      swap1\n      pop\n      jump\t// out\n        /* \"#utility.yul\":9292:9406   */\n    tag_362:\n        /* \"#utility.yul\":9374:9375   */\n      0x04\n        /* \"#utility.yul\":9367:9372   */\n      dup2\n        /* \"#utility.yul\":9364:9376   */\n      lt\n        /* \"#utility.yul\":9354:9400   */\n      tag_386\n      jumpi\n        /* \"#utility.yul\":9380:9398   */\n      tag_387\n      tag_159\n      jump\t// in\n    tag_387:\n        /* \"#utility.yul\":9354:9400   */\n    tag_386:\n        /* \"#utility.yul\":9292:9406   */\n      pop\n      jump\t// out\n        /* \"#utility.yul\":9412:9534   */\n    tag_252:\n        /* \"#utility.yul\":9485:9509   */\n      tag_389\n        /* \"#utility.yul\":9503:9508   */\n      dup2\n        /* \"#utility.yul\":9485:9509   */\n      tag_293\n      jump\t// in\n    tag_389:\n        /* \"#utility.yul\":9478:9483   */\n      dup2\n        /* \"#utility.yul\":9475:9510   */\n      eq\n        /* \"#utility.yul\":9465:9528   */\n      tag_390\n      jumpi\n        /* \"#utility.yul\":9524:9525   */\n      0x00\n        /* \"#utility.yul\":9521:9522   */\n      dup1\n        /* \"#utility.yul\":9514:9526   */\n      revert\n        /* \"#utility.yul\":9465:9528   */\n    tag_390:\n        /* \"#utility.yul\":9412:9534   */\n      pop\n      jump\t// out\n        /* \"#utility.yul\":9540:9678   */\n    tag_256:\n        /* \"#utility.yul\":9621:9653   */\n      tag_392\n        /* \"#utility.yul\":9647:9652   */\n      dup2\n        /* \"#utility.yul\":9621:9653   */\n      tag_289\n      jump\t// in\n    tag_392:\n        /* \"#utility.yul\":9614:9619   */\n      dup2\n        /* \"#utility.yul\":9611:9654   */\n      eq\n        /* \"#utility.yul\":9601:9672   */\n      tag_393\n      jumpi\n        /* \"#utility.yul\":9668:9669   */\n      0x00\n        /* \"#utility.yul\":9665:9666   */\n      dup1\n        /* \"#utility.yul\":9658:9670   */\n      revert\n        /* \"#utility.yul\":9601:9672   */\n    tag_393:\n        /* \"#utility.yul\":9540:9678   */\n      pop\n      jump\t// out\n        /* \"#utility.yul\":9684:9806   */\n    tag_260:\n        /* \"#utility.yul\":9757:9781   */\n      tag_395\n        /* \"#utility.yul\":9775:9780   */\n      dup2\n        /* \"#utility.yul\":9757:9781   */\n      tag_315\n      jump\t// in\n    tag_395:\n        /* \"#utility.yul\":9750:9755   */\n      dup2\n        /* \"#utility.yul\":9747:9782   */\n      eq\n        /* \"#utility.yul\":9737:9800   */\n      tag_396\n      jumpi\n        /* \"#utility.yul\":9796:9797   */\n      0x00\n        /* \"#utility.yul\":9793:9794   */\n      dup1\n        /* \"#utility.yul\":9786:9798   */\n      revert\n        /* \"#utility.yul\":9737:9800   */\n    tag_396:\n        /* \"#utility.yul\":9684:9806   */\n      pop\n      jump\t// out\n\n    auxdata: 0xa264697066735822122023bc5e92fc7e5901635181dedda316234c91466aac9bc0e6222128a0a99c11a964736f6c63430008070033\n}\n",
				"bytecode": {
					"linkReferences": {},
					"object": "60806040526040518060400160405280600581526020017f426c6f636b00000000000000000000000000000000000000000000000000000081525060009080519060200190620000519291906200029a565b506040518060400160405280600181526020017f3000000000000000000000000000000000000000000000000000000000000000815250600190805190602001906200009f9291906200029a565b5067016345785d8a0000600855681043561a882930000060095542600b55610e1042620000cd919062000393565b600c55610e10600c54620000e2919062000393565b600d55678ac7230489e80000600e5567016345785d8a0000600f553480156200010a57600080fd5b5060405162001dd638038062001dd6833981810160405281019062000130919062000361565b620186a060028190555033600360006101000a81548173ffffffffffffffffffffffffffffffffffffffff021916908373ffffffffffffffffffffffffffffffffffffffff16021790555060025460046000600360009054906101000a900473ffffffffffffffffffffffffffffffffffffffff1673ffffffffffffffffffffffffffffffffffffffff1673ffffffffffffffffffffffffffffffffffffffff1681526020019081526020016000208190555080600760006101000a81548173ffffffffffffffffffffffffffffffffffffffff021916908373ffffffffffffffffffffffffffffffffffffffff16021790555033600660006101000a81548173ffffffffffffffffffffffffffffffffffffffff021916908373ffffffffffffffffffffffffffffffffffffffff1602179055506000601060006101000a81548160ff021916908360038111156200028e576200028d62000493565b5b02179055505062000510565b828054620002a8906200042e565b90600052602060002090601f016020900481019282620002cc576000855562000318565b82601f10620002e757805160ff191683800117855562000318565b8280016001018555821562000318579182015b8281111562000317578251825591602001919060010190620002fa565b5b5090506200032791906200032b565b5090565b5b80821115620003465760008160009055506001016200032c565b5090565b6000815190506200035b81620004f6565b92915050565b6000602082840312156200037a5762000379620004f1565b5b60006200038a848285016200034a565b91505092915050565b6000620003a08262000424565b9150620003ad8362000424565b9250827fffffffffffffffffffffffffffffffffffffffffffffffffffffffffffffffff03821115620003e557620003e462000464565b5b828201905092915050565b6000620003fd8262000404565b9050919050565b600073ffffffffffffffffffffffffffffffffffffffff82169050919050565b6000819050919050565b600060028204905060018216806200044757607f821691505b602082108114156200045e576200045d620004c2565b5b50919050565b7f4e487b7100000000000000000000000000000000000000000000000000000000600052601160045260246000fd5b7f4e487b7100000000000000000000000000000000000000000000000000000000600052602160045260246000fd5b7f4e487b7100000000000000000000000000000000000000000000000000000000600052602260045260246000fd5b600080fd5b6200050181620003f0565b81146200050d57600080fd5b50565b6118b680620005206000396000f3fe6080604052600436106101855760003560e01c80634d853ee5116100d1578063a9059cbb1161008a578063d0e30db011610064578063d0e30db01461057e578063dd62ed3e146105a9578063e8b5e51f146105e6578063f7ef7c6c1461060457610195565b8063a9059cbb146104eb578063b8a4825f14610528578063c59ee1dc1461055357610195565b80634d853ee5146103eb5780635ed7ca5b1461041657806363fd9e381461042d57806370a082311461045857806376809ce314610495578063827037db146104c057610195565b806323b872dd1161013e578063355274ea11610118578063355274ea1461033f57806344df8e701461036a57806344f3875614610395578063481c6a75146103c057610195565b806323b872dd1461029a57806327e235e3146102d75780633110235a1461031457610195565b8063046f7da21461019a5780630563451a146101b157806306fdde03146101dc578063095ea7b31461020757806318160ddd146102445780631865c57d1461026f57610195565b366101955761019261062d565b50005b600080fd5b3480156101a657600080fd5b506101af610873565b005b3480156101bd57600080fd5b506101c66108fa565b6040516101d3919061157f565b60405180910390f35b3480156101e857600080fd5b506101f1610900565b6040516101fe919061155d565b60405180910390f35b34801561021357600080fd5b5061022e600480360381019061022991906113f6565b61098e565b60405161023b9190611527565b60405180910390f35b34801561025057600080fd5b50610259610ad9565b604051610266919061157f565b60405180910390f35b34801561027b57600080fd5b50610284610adf565b6040516102919190611542565b60405180910390f35b3480156102a657600080fd5b506102c160048036038101906102bc91906113a3565b610b62565b6040516102ce9190611527565b60405180910390f35b3480156102e357600080fd5b506102fe60048036038101906102f99190611309565b610b89565b60405161030b919061157f565b60405180910390f35b34801561032057600080fd5b50610329610ba1565b604051610336919061157f565b60405180910390f35b34801561034b57600080fd5b50610354610ba7565b604051610361919061157f565b60405180910390f35b34801561037657600080fd5b5061037f610bad565b60405161038c9190611527565b60405180910390f35b3480156103a157600080fd5b506103aa610c8e565b6040516103b79190611542565b60405180910390f35b3480156103cc57600080fd5b506103d5610ca1565b6040516103e291906114ba565b60405180910390f35b3480156103f757600080fd5b50610400610cc7565b60405161040d91906114ba565b60405180910390f35b34801561042257600080fd5b5061042b610ced565b005b34801561043957600080fd5b50610442610d74565b60405161044f919061157f565b60405180910390f35b34801561046457600080fd5b5061047f600480360381019061047a9190611309565b610d7a565b60405161048c919061157f565b60405180910390f35b3480156104a157600080fd5b506104aa610dc3565b6040516104b7919061155d565b60405180910390f35b3480156104cc57600080fd5b506104d5610e51565b6040516104e2919061157f565b60405180910390f35b3480156104f757600080fd5b50610512600480360381019061050d91906113f6565b610e57565b60405161051f9190611527565b60405180910390f35b34801561053457600080fd5b5061053d610e7c565b60405161054a919061157f565b60405180910390f35b34801561055f57600080fd5b50610568610e82565b604051610575919061157f565b60405180910390f35b34801561058a57600080fd5b50610593610e88565b6040516105a091906114d5565b60405180910390f35b3480156105b557600080fd5b506105d060048036038101906105cb9190611363565b610eae565b6040516105dd919061157f565b60405180910390f35b6105ee61062d565b6040516105fb9190611527565b60405180910390f35b34801561061057600080fd5b5061062b60048036038101906106269190611336565b610f35565b005b6000610637610adf565b601060006101000a81548160ff0219169083600381111561065b5761065a6117b3565b5b021790555060026003811115610674576106736117b3565b5b601060009054906101000a900460ff166003811115610696576106956117b3565b5b146106a057600080fd5b600f5434101580156106b45750600e543411155b6106bd57600080fd5b34600a60008282546106cf91906115b6565b92505081905550600954600a5411156106e757600080fd5b6000600854346106f7919061160c565b905080600460003373ffffffffffffffffffffffffffffffffffffffff1673ffffffffffffffffffffffffffffffffffffffff168152602001908152602001600020600082825461074891906115b6565b925050819055508060046000600360009054906101000a900473ffffffffffffffffffffffffffffffffffffffff1673ffffffffffffffffffffffffffffffffffffffff1673ffffffffffffffffffffffffffffffffffffffff16815260200190815260200160002060008282546107c0919061163d565b92505081905550600760009054906101000a900473ffffffffffffffffffffffffffffffffffffffff1673ffffffffffffffffffffffffffffffffffffffff166108fc349081150290604051600060405180830381858888f1935050505015801561082f573d6000803e3d6000fd5b507f4ae4bd7655e0d350876a23cd90c4227b13db560e34435c6a488150a9c844bf5f333483604051610863939291906114f0565b60405180910390a1600191505090565b600660009054906101000a900473ffffffffffffffffffffffffffffffffffffffff1673ffffffffffffffffffffffffffffffffffffffff163373ffffffffffffffffffffffffffffffffffffffff16146108cd57600080fd5b6002601060006101000a81548160ff021916908360038111156108f3576108f26117b3565b5b0217905550565b600c5481565b6000805461090d90611723565b80601f016020809104026020016040519081016040528092919081815260200182805461093990611723565b80156109865780601f1061095b57610100808354040283529160200191610986565b820191906000526020600020905b81548152906001019060200180831161096957829003601f168201915b505050505081565b600081600460003373ffffffffffffffffffffffffffffffffffffffff1673ffffffffffffffffffffffffffffffffffffffff1681526020019081526020016000205410156109dc57600080fd5b600082116109e957600080fd5b81600560003373ffffffffffffffffffffffffffffffffffffffff1673ffffffffffffffffffffffffffffffffffffffff16815260200190815260200160002060008573ffffffffffffffffffffffffffffffffffffffff1673ffffffffffffffffffffffffffffffffffffffff168152602001908152602001600020819055508273ffffffffffffffffffffffffffffffffffffffff163373ffffffffffffffffffffffffffffffffffffffff167f8c5be1e5ebec7d5bd14f71427d1e84f3dd0314c0f7b2291e5b200ac8c7c3b92584604051610ac7919061157f565b60405180910390a36001905092915050565b60025481565b6000600380811115610af457610af36117b3565b5b601060009054906101000a900460ff166003811115610b1657610b156117b3565b5b1415610b255760039050610b5f565b600b54421015610b385760009050610b5f565b600b544210158015610b4c5750600c544211155b15610b5a5760029050610b5f565b600190505b90565b6000600d544211610b7257600080fd5b610b7d848484610fd3565b50600190509392505050565b60046020528060005260406000206000915090505481565b600e5481565b60095481565b6000610bb7610adf565b601060006101000a81548160ff02191690836003811115610bdb57610bda6117b3565b5b021790555060016003811115610bf457610bf36117b3565b5b601060009054906101000a900460ff166003811115610c1657610c156117b3565b5b14610c2057600080fd5b600060046000600360009054906101000a900473ffffffffffffffffffffffffffffffffffffffff1673ffffffffffffffffffffffffffffffffffffffff1673ffffffffffffffffffffffffffffffffffffffff168152602001908152602001600020819055506001905090565b601060009054906101000a900460ff1681565b600660009054906101000a900473ffffffffffffffffffffffffffffffffffffffff1681565b600360009054906101000a900473ffffffffffffffffffffffffffffffffffffffff1681565b600660009054906101000a900473ffffffffffffffffffffffffffffffffffffffff1673ffffffffffffffffffffffffffffffffffffffff163373ffffffffffffffffffffffffffffffffffffffff1614610d4757600080fd5b6003601060006101000a81548160ff02191690836003811115610d6d57610d6c6117b3565b5b0217905550565b600f5481565b6000600460008373ffffffffffffffffffffffffffffffffffffffff1673ffffffffffffffffffffffffffffffffffffffff168152602001908152602001600020549050919050565b60018054610dd090611723565b80601f0160208091040260200160405190810160405280929190818152602001828054610dfc90611723565b8015610e495780601f10610e1e57610100808354040283529160200191610e49565b820191906000526020600020905b815481529060010190602001808311610e2c57829003601f168201915b505050505081565b600b5481565b6000600d544211610e6757600080fd5b610e718383611161565b506001905092915050565b600d5481565b600a5481565b600760009054906101000a900473ffffffffffffffffffffffffffffffffffffffff1681565b6000600560008473ffffffffffffffffffffffffffffffffffffffff1673ffffffffffffffffffffffffffffffffffffffff16815260200190815260200160002060008373ffffffffffffffffffffffffffffffffffffffff1673ffffffffffffffffffffffffffffffffffffffff16815260200190815260200160002054905092915050565b600660009054906101000a900473ffffffffffffffffffffffffffffffffffffffff1673ffffffffffffffffffffffffffffffffffffffff163373ffffffffffffffffffffffffffffffffffffffff1614610f8f57600080fd5b80600760006101000a81548173ffffffffffffffffffffffffffffffffffffffff021916908373ffffffffffffffffffffffffffffffffffffffff16021790555050565b600081600560008673ffffffffffffffffffffffffffffffffffffffff1673ffffffffffffffffffffffffffffffffffffffff16815260200190815260200160002060008573ffffffffffffffffffffffffffffffffffffffff1673ffffffffffffffffffffffffffffffffffffffff16815260200190815260200160002054101561105e57600080fd5b81600460008673ffffffffffffffffffffffffffffffffffffffff1673ffffffffffffffffffffffffffffffffffffffff1681526020019081526020016000205410156110aa57600080fd5b81600460008673ffffffffffffffffffffffffffffffffffffffff1673ffffffffffffffffffffffffffffffffffffffff16815260200190815260200160002060008282546110f9919061163d565b9250508190555081600460008573ffffffffffffffffffffffffffffffffffffffff1673ffffffffffffffffffffffffffffffffffffffff168152602001908152602001600020600082825461114f91906115b6565b92505081905550600190509392505050565b600081600460003373ffffffffffffffffffffffffffffffffffffffff1673ffffffffffffffffffffffffffffffffffffffff1681526020019081526020016000205410156111af57600080fd5b81600460008573ffffffffffffffffffffffffffffffffffffffff1673ffffffffffffffffffffffffffffffffffffffff16815260200190815260200160002060008282546111fe91906115b6565b9250508190555081600460003373ffffffffffffffffffffffffffffffffffffffff1673ffffffffffffffffffffffffffffffffffffffff1681526020019081526020016000206000828254611254919061163d565b925050819055508273ffffffffffffffffffffffffffffffffffffffff163373ffffffffffffffffffffffffffffffffffffffff167fddf252ad1be2c89b69c2b068fc378daa952ba7f163c4a11628f55a4df523b3ef846040516112b8919061157f565b60405180910390a36001905092915050565b6000813590506112d98161183b565b92915050565b6000813590506112ee81611852565b92915050565b60008135905061130381611869565b92915050565b60006020828403121561131f5761131e611811565b5b600061132d848285016112ca565b91505092915050565b60006020828403121561134c5761134b611811565b5b600061135a848285016112df565b91505092915050565b6000806040838503121561137a57611379611811565b5b6000611388858286016112ca565b9250506020611399858286016112ca565b9150509250929050565b6000806000606084860312156113bc576113bb611811565b5b60006113ca868287016112ca565b93505060206113db868287016112ca565b92505060406113ec868287016112f4565b9150509250925092565b6000806040838503121561140d5761140c611811565b5b600061141b858286016112ca565b925050602061142c858286016112f4565b9150509250929050565b61143f81611683565b82525050565b61144e81611671565b82525050565b61145d81611695565b82525050565b61146c816116de565b82525050565b600061147d8261159a565b61148781856115a5565b93506114978185602086016116f0565b6114a081611816565b840191505092915050565b6114b4816116d4565b82525050565b60006020820190506114cf6000830184611445565b92915050565b60006020820190506114ea6000830184611436565b92915050565b60006060820190506115056000830186611445565b61151260208301856114ab565b61151f60408301846114ab565b949350505050565b600060208201905061153c6000830184611454565b92915050565b60006020820190506115576000830184611463565b92915050565b600060208201905081810360008301526115778184611472565b905092915050565b600060208201905061159460008301846114ab565b92915050565b600081519050919050565b600082825260208201905092915050565b60006115c1826116d4565b91506115cc836116d4565b9250827fffffffffffffffffffffffffffffffffffffffffffffffffffffffffffffffff0382111561160157611600611755565b5b828201905092915050565b6000611617826116d4565b9150611622836116d4565b92508261163257611631611784565b5b828204905092915050565b6000611648826116d4565b9150611653836116d4565b92508282101561166657611665611755565b5b828203905092915050565b600061167c826116b4565b9050919050565b600061168e826116b4565b9050919050565b60008115159050919050565b60008190506116af82611827565b919050565b600073ffffffffffffffffffffffffffffffffffffffff82169050919050565b6000819050919050565b60006116e9826116a1565b9050919050565b60005b8381101561170e5780820151818401526020810190506116f3565b8381111561171d576000848401525b50505050565b6000600282049050600182168061173b57607f821691505b6020821081141561174f5761174e6117e2565b5b50919050565b7f4e487b7100000000000000000000000000000000000000000000000000000000600052601160045260246000fd5b7f4e487b7100000000000000000000000000000000000000000000000000000000600052601260045260246000fd5b7f4e487b7100000000000000000000000000000000000000000000000000000000600052602160045260246000fd5b7f4e487b7100000000000000000000000000000000000000000000000000000000600052602260045260246000fd5b600080fd5b6000601f19601f8301169050919050565b60048110611838576118376117b3565b5b50565b61184481611671565b811461184f57600080fd5b50565b61185b81611683565b811461186657600080fd5b50565b611872816116d4565b811461187d57600080fd5b5056fea264697066735822122023bc5e92fc7e5901635181dedda316234c91466aac9bc0e6222128a0a99c11a964736f6c63430008070033",
					"opcodes": "PUSH1 0x80 PUSH1 0x40 MSTORE PUSH1 0x40 MLOAD DUP1 PUSH1 0x40 ADD PUSH1 0x40 MSTORE DUP1 PUSH1 0x5 DUP2 MSTORE PUSH1 0x20 ADD PUSH32 0x426C6F636B000000000000000000000000000000000000000000000000000000 DUP2 MSTORE POP PUSH1 0x0 SWAP1 DUP1 MLOAD SWAP1 PUSH1 0x20 ADD SWAP1 PUSH3 0x51 SWAP3 SWAP2 SWAP1 PUSH3 0x29A JUMP JUMPDEST POP PUSH1 0x40 MLOAD DUP1 PUSH1 0x40 ADD PUSH1 0x40 MSTORE DUP1 PUSH1 0x1 DUP2 MSTORE PUSH1 0x20 ADD PUSH32 0x3000000000000000000000000000000000000000000000000000000000000000 DUP2 MSTORE POP PUSH1 0x1 SWAP1 DUP1 MLOAD SWAP1 PUSH1 0x20 ADD SWAP1 PUSH3 0x9F SWAP3 SWAP2 SWAP1 PUSH3 0x29A JUMP JUMPDEST POP PUSH8 0x16345785D8A0000 PUSH1 0x8 SSTORE PUSH9 0x1043561A8829300000 PUSH1 0x9 SSTORE TIMESTAMP PUSH1 0xB SSTORE PUSH2 0xE10 TIMESTAMP PUSH3 0xCD SWAP2 SWAP1 PUSH3 0x393 JUMP JUMPDEST PUSH1 0xC SSTORE PUSH2 0xE10 PUSH1 0xC SLOAD PUSH3 0xE2 SWAP2 SWAP1 PUSH3 0x393 JUMP JUMPDEST PUSH1 0xD SSTORE PUSH8 0x8AC7230489E80000 PUSH1 0xE SSTORE PUSH8 0x16345785D8A0000 PUSH1 0xF SSTORE CALLVALUE DUP1 ISZERO PUSH3 0x10A JUMPI PUSH1 0x0 DUP1 REVERT JUMPDEST POP PUSH1 0x40 MLOAD PUSH3 0x1DD6 CODESIZE SUB DUP1 PUSH3 0x1DD6 DUP4 CODECOPY DUP2 DUP2 ADD PUSH1 0x40 MSTORE DUP2 ADD SWAP1 PUSH3 0x130 SWAP2 SWAP1 PUSH3 0x361 JUMP JUMPDEST PUSH3 0x186A0 PUSH1 0x2 DUP2 SWAP1 SSTORE POP CALLER PUSH1 0x3 PUSH1 0x0 PUSH2 0x100 EXP DUP2 SLOAD DUP2 PUSH20 0xFFFFFFFFFFFFFFFFFFFFFFFFFFFFFFFFFFFFFFFF MUL NOT AND SWAP1 DUP4 PUSH20 0xFFFFFFFFFFFFFFFFFFFFFFFFFFFFFFFFFFFFFFFF AND MUL OR SWAP1 SSTORE POP PUSH1 0x2 SLOAD PUSH1 0x4 PUSH1 0x0 PUSH1 0x3 PUSH1 0x0 SWAP1 SLOAD SWAP1 PUSH2 0x100 EXP SWAP1 DIV PUSH20 0xFFFFFFFFFFFFFFFFFFFFFFFFFFFFFFFFFFFFFFFF AND PUSH20 0xFFFFFFFFFFFFFFFFFFFFFFFFFFFFFFFFFFFFFFFF AND PUSH20 0xFFFFFFFFFFFFFFFFFFFFFFFFFFFFFFFFFFFFFFFF AND DUP2 MSTORE PUSH1 0x20 ADD SWAP1 DUP2 MSTORE PUSH1 0x20 ADD PUSH1 0x0 KECCAK256 DUP2 SWAP1 SSTORE POP DUP1 PUSH1 0x7 PUSH1 0x0 PUSH2 0x100 EXP DUP2 SLOAD DUP2 PUSH20 0xFFFFFFFFFFFFFFFFFFFFFFFFFFFFFFFFFFFFFFFF MUL NOT AND SWAP1 DUP4 PUSH20 0xFFFFFFFFFFFFFFFFFFFFFFFFFFFFFFFFFFFFFFFF AND MUL OR SWAP1 SSTORE POP CALLER PUSH1 0x6 PUSH1 0x0 PUSH2 0x100 EXP DUP2 SLOAD DUP2 PUSH20 0xFFFFFFFFFFFFFFFFFFFFFFFFFFFFFFFFFFFFFFFF MUL NOT AND SWAP1 DUP4 PUSH20 0xFFFFFFFFFFFFFFFFFFFFFFFFFFFFFFFFFFFFFFFF AND MUL OR SWAP1 SSTORE POP PUSH1 0x0 PUSH1 0x10 PUSH1 0x0 PUSH2 0x100 EXP DUP2 SLOAD DUP2 PUSH1 0xFF MUL NOT AND SWAP1 DUP4 PUSH1 0x3 DUP2 GT ISZERO PUSH3 0x28E JUMPI PUSH3 0x28D PUSH3 0x493 JUMP JUMPDEST JUMPDEST MUL OR SWAP1 SSTORE POP POP PUSH3 0x510 JUMP JUMPDEST DUP3 DUP1 SLOAD PUSH3 0x2A8 SWAP1 PUSH3 0x42E JUMP JUMPDEST SWAP1 PUSH1 0x0 MSTORE PUSH1 0x20 PUSH1 0x0 KECCAK256 SWAP1 PUSH1 0x1F ADD PUSH1 0x20 SWAP1 DIV DUP2 ADD SWAP3 DUP3 PUSH3 0x2CC JUMPI PUSH1 0x0 DUP6 SSTORE PUSH3 0x318 JUMP JUMPDEST DUP3 PUSH1 0x1F LT PUSH3 0x2E7 JUMPI DUP1 MLOAD PUSH1 0xFF NOT AND DUP4 DUP1 ADD OR DUP6 SSTORE PUSH3 0x318 JUMP JUMPDEST DUP3 DUP1 ADD PUSH1 0x1 ADD DUP6 SSTORE DUP3 ISZERO PUSH3 0x318 JUMPI SWAP2 DUP3 ADD JUMPDEST DUP3 DUP2 GT ISZERO PUSH3 0x317 JUMPI DUP3 MLOAD DUP3 SSTORE SWAP2 PUSH1 0x20 ADD SWAP2 SWAP1 PUSH1 0x1 ADD SWAP1 PUSH3 0x2FA JUMP JUMPDEST JUMPDEST POP SWAP1 POP PUSH3 0x327 SWAP2 SWAP1 PUSH3 0x32B JUMP JUMPDEST POP SWAP1 JUMP JUMPDEST JUMPDEST DUP1 DUP3 GT ISZERO PUSH3 0x346 JUMPI PUSH1 0x0 DUP2 PUSH1 0x0 SWAP1 SSTORE POP PUSH1 0x1 ADD PUSH3 0x32C JUMP JUMPDEST POP SWAP1 JUMP JUMPDEST PUSH1 0x0 DUP2 MLOAD SWAP1 POP PUSH3 0x35B DUP2 PUSH3 0x4F6 JUMP JUMPDEST SWAP3 SWAP2 POP POP JUMP JUMPDEST PUSH1 0x0 PUSH1 0x20 DUP3 DUP5 SUB SLT ISZERO PUSH3 0x37A JUMPI PUSH3 0x379 PUSH3 0x4F1 JUMP JUMPDEST JUMPDEST PUSH1 0x0 PUSH3 0x38A DUP5 DUP3 DUP6 ADD PUSH3 0x34A JUMP JUMPDEST SWAP2 POP POP SWAP3 SWAP2 POP POP JUMP JUMPDEST PUSH1 0x0 PUSH3 0x3A0 DUP3 PUSH3 0x424 JUMP JUMPDEST SWAP2 POP PUSH3 0x3AD DUP4 PUSH3 0x424 JUMP JUMPDEST SWAP3 POP DUP3 PUSH32 0xFFFFFFFFFFFFFFFFFFFFFFFFFFFFFFFFFFFFFFFFFFFFFFFFFFFFFFFFFFFFFFFF SUB DUP3 GT ISZERO PUSH3 0x3E5 JUMPI PUSH3 0x3E4 PUSH3 0x464 JUMP JUMPDEST JUMPDEST DUP3 DUP3 ADD SWAP1 POP SWAP3 SWAP2 POP POP JUMP JUMPDEST PUSH1 0x0 PUSH3 0x3FD DUP3 PUSH3 0x404 JUMP JUMPDEST SWAP1 POP SWAP2 SWAP1 POP JUMP JUMPDEST PUSH1 0x0 PUSH20 0xFFFFFFFFFFFFFFFFFFFFFFFFFFFFFFFFFFFFFFFF DUP3 AND SWAP1 POP SWAP2 SWAP1 POP JUMP JUMPDEST PUSH1 0x0 DUP2 SWAP1 POP SWAP2 SWAP1 POP JUMP JUMPDEST PUSH1 0x0 PUSH1 0x2 DUP3 DIV SWAP1 POP PUSH1 0x1 DUP3 AND DUP1 PUSH3 0x447 JUMPI PUSH1 0x7F DUP3 AND SWAP2 POP JUMPDEST PUSH1 0x20 DUP3 LT DUP2 EQ ISZERO PUSH3 0x45E JUMPI PUSH3 0x45D PUSH3 0x4C2 JUMP JUMPDEST JUMPDEST POP SWAP2 SWAP1 POP JUMP JUMPDEST PUSH32 0x4E487B7100000000000000000000000000000000000000000000000000000000 PUSH1 0x0 MSTORE PUSH1 0x11 PUSH1 0x4 MSTORE PUSH1 0x24 PUSH1 0x0 REVERT JUMPDEST PUSH32 0x4E487B7100000000000000000000000000000000000000000000000000000000 PUSH1 0x0 MSTORE PUSH1 0x21 PUSH1 0x4 MSTORE PUSH1 0x24 PUSH1 0x0 REVERT JUMPDEST PUSH32 0x4E487B7100000000000000000000000000000000000000000000000000000000 PUSH1 0x0 MSTORE PUSH1 0x22 PUSH1 0x4 MSTORE PUSH1 0x24 PUSH1 0x0 REVERT JUMPDEST PUSH1 0x0 DUP1 REVERT JUMPDEST PUSH3 0x501 DUP2 PUSH3 0x3F0 JUMP JUMPDEST DUP2 EQ PUSH3 0x50D JUMPI PUSH1 0x0 DUP1 REVERT JUMPDEST POP JUMP JUMPDEST PUSH2 0x18B6 DUP1 PUSH3 0x520 PUSH1 0x0 CODECOPY PUSH1 0x0 RETURN INVALID PUSH1 0x80 PUSH1 0x40 MSTORE PUSH1 0x4 CALLDATASIZE LT PUSH2 0x185 JUMPI PUSH1 0x0 CALLDATALOAD PUSH1 0xE0 SHR DUP1 PUSH4 0x4D853EE5 GT PUSH2 0xD1 JUMPI DUP1 PUSH4 0xA9059CBB GT PUSH2 0x8A JUMPI DUP1 PUSH4 0xD0E30DB0 GT PUSH2 0x64 JUMPI DUP1 PUSH4 0xD0E30DB0 EQ PUSH2 0x57E JUMPI DUP1 PUSH4 0xDD62ED3E EQ PUSH2 0x5A9 JUMPI DUP1 PUSH4 0xE8B5E51F EQ PUSH2 0x5E6 JUMPI DUP1 PUSH4 0xF7EF7C6C EQ PUSH2 0x604 JUMPI PUSH2 0x195 JUMP JUMPDEST DUP1 PUSH4 0xA9059CBB EQ PUSH2 0x4EB JUMPI DUP1 PUSH4 0xB8A4825F EQ PUSH2 0x528 JUMPI DUP1 PUSH4 0xC59EE1DC EQ PUSH2 0x553 JUMPI PUSH2 0x195 JUMP JUMPDEST DUP1 PUSH4 0x4D853EE5 EQ PUSH2 0x3EB JUMPI DUP1 PUSH4 0x5ED7CA5B EQ PUSH2 0x416 JUMPI DUP1 PUSH4 0x63FD9E38 EQ PUSH2 0x42D JUMPI DUP1 PUSH4 0x70A08231 EQ PUSH2 0x458 JUMPI DUP1 PUSH4 0x76809CE3 EQ PUSH2 0x495 JUMPI DUP1 PUSH4 0x827037DB EQ PUSH2 0x4C0 JUMPI PUSH2 0x195 JUMP JUMPDEST DUP1 PUSH4 0x23B872DD GT PUSH2 0x13E JUMPI DUP1 PUSH4 0x355274EA GT PUSH2 0x118 JUMPI DUP1 PUSH4 0x355274EA EQ PUSH2 0x33F JUMPI DUP1 PUSH4 0x44DF8E70 EQ PUSH2 0x36A JUMPI DUP1 PUSH4 0x44F38756 EQ PUSH2 0x395 JUMPI DUP1 PUSH4 0x481C6A75 EQ PUSH2 0x3C0 JUMPI PUSH2 0x195 JUMP JUMPDEST DUP1 PUSH4 0x23B872DD EQ PUSH2 0x29A JUMPI DUP1 PUSH4 0x27E235E3 EQ PUSH2 0x2D7 JUMPI DUP1 PUSH4 0x3110235A EQ PUSH2 0x314 JUMPI PUSH2 0x195 JUMP JUMPDEST DUP1 PUSH4 0x46F7DA2 EQ PUSH2 0x19A JUMPI DUP1 PUSH4 0x563451A EQ PUSH2 0x1B1 JUMPI DUP1 PUSH4 0x6FDDE03 EQ PUSH2 0x1DC JUMPI DUP1 PUSH4 0x95EA7B3 EQ PUSH2 0x207 JUMPI DUP1 PUSH4 0x18160DDD EQ PUSH2 0x244 JUMPI DUP1 PUSH4 0x1865C57D EQ PUSH2 0x26F JUMPI PUSH2 0x195 JUMP JUMPDEST CALLDATASIZE PUSH2 0x195 JUMPI PUSH2 0x192 PUSH2 0x62D JUMP JUMPDEST POP STOP JUMPDEST PUSH1 0x0 DUP1 REVERT JUMPDEST CALLVALUE DUP1 ISZERO PUSH2 0x1A6 JUMPI PUSH1 0x0 DUP1 REVERT JUMPDEST POP PUSH2 0x1AF PUSH2 0x873 JUMP JUMPDEST STOP JUMPDEST CALLVALUE DUP1 ISZERO PUSH2 0x1BD JUMPI PUSH1 0x0 DUP1 REVERT JUMPDEST POP PUSH2 0x1C6 PUSH2 0x8FA JUMP JUMPDEST PUSH1 0x40 MLOAD PUSH2 0x1D3 SWAP2 SWAP1 PUSH2 0x157F JUMP JUMPDEST PUSH1 0x40 MLOAD DUP1 SWAP2 SUB SWAP1 RETURN JUMPDEST CALLVALUE DUP1 ISZERO PUSH2 0x1E8 JUMPI PUSH1 0x0 DUP1 REVERT JUMPDEST POP PUSH2 0x1F1 PUSH2 0x900 JUMP JUMPDEST PUSH1 0x40 MLOAD PUSH2 0x1FE SWAP2 SWAP1 PUSH2 0x155D JUMP JUMPDEST PUSH1 0x40 MLOAD DUP1 SWAP2 SUB SWAP1 RETURN JUMPDEST CALLVALUE DUP1 ISZERO PUSH2 0x213 JUMPI PUSH1 0x0 DUP1 REVERT JUMPDEST POP PUSH2 0x22E PUSH1 0x4 DUP1 CALLDATASIZE SUB DUP2 ADD SWAP1 PUSH2 0x229 SWAP2 SWAP1 PUSH2 0x13F6 JUMP JUMPDEST PUSH2 0x98E JUMP JUMPDEST PUSH1 0x40 MLOAD PUSH2 0x23B SWAP2 SWAP1 PUSH2 0x1527 JUMP JUMPDEST PUSH1 0x40 MLOAD DUP1 SWAP2 SUB SWAP1 RETURN JUMPDEST CALLVALUE DUP1 ISZERO PUSH2 0x250 JUMPI PUSH1 0x0 DUP1 REVERT JUMPDEST POP PUSH2 0x259 PUSH2 0xAD9 JUMP JUMPDEST PUSH1 0x40 MLOAD PUSH2 0x266 SWAP2 SWAP1 PUSH2 0x157F JUMP JUMPDEST PUSH1 0x40 MLOAD DUP1 SWAP2 SUB SWAP1 RETURN JUMPDEST CALLVALUE DUP1 ISZERO PUSH2 0x27B JUMPI PUSH1 0x0 DUP1 REVERT JUMPDEST POP PUSH2 0x284 PUSH2 0xADF JUMP JUMPDEST PUSH1 0x40 MLOAD PUSH2 0x291 SWAP2 SWAP1 PUSH2 0x1542 JUMP JUMPDEST PUSH1 0x40 MLOAD DUP1 SWAP2 SUB SWAP1 RETURN JUMPDEST CALLVALUE DUP1 ISZERO PUSH2 0x2A6 JUMPI PUSH1 0x0 DUP1 REVERT JUMPDEST POP PUSH2 0x2C1 PUSH1 0x4 DUP1 CALLDATASIZE SUB DUP2 ADD SWAP1 PUSH2 0x2BC SWAP2 SWAP1 PUSH2 0x13A3 JUMP JUMPDEST PUSH2 0xB62 JUMP JUMPDEST PUSH1 0x40 MLOAD PUSH2 0x2CE SWAP2 SWAP1 PUSH2 0x1527 JUMP JUMPDEST PUSH1 0x40 MLOAD DUP1 SWAP2 SUB SWAP1 RETURN JUMPDEST CALLVALUE DUP1 ISZERO PUSH2 0x2E3 JUMPI PUSH1 0x0 DUP1 REVERT JUMPDEST POP PUSH2 0x2FE PUSH1 0x4 DUP1 CALLDATASIZE SUB DUP2 ADD SWAP1 PUSH2 0x2F9 SWAP2 SWAP1 PUSH2 0x1309 JUMP JUMPDEST PUSH2 0xB89 JUMP JUMPDEST PUSH1 0x40 MLOAD PUSH2 0x30B SWAP2 SWAP1 PUSH2 0x157F JUMP JUMPDEST PUSH1 0x40 MLOAD DUP1 SWAP2 SUB SWAP1 RETURN JUMPDEST CALLVALUE DUP1 ISZERO PUSH2 0x320 JUMPI PUSH1 0x0 DUP1 REVERT JUMPDEST POP PUSH2 0x329 PUSH2 0xBA1 JUMP JUMPDEST PUSH1 0x40 MLOAD PUSH2 0x336 SWAP2 SWAP1 PUSH2 0x157F JUMP JUMPDEST PUSH1 0x40 MLOAD DUP1 SWAP2 SUB SWAP1 RETURN JUMPDEST CALLVALUE DUP1 ISZERO PUSH2 0x34B JUMPI PUSH1 0x0 DUP1 REVERT JUMPDEST POP PUSH2 0x354 PUSH2 0xBA7 JUMP JUMPDEST PUSH1 0x40 MLOAD PUSH2 0x361 SWAP2 SWAP1 PUSH2 0x157F JUMP JUMPDEST PUSH1 0x40 MLOAD DUP1 SWAP2 SUB SWAP1 RETURN JUMPDEST CALLVALUE DUP1 ISZERO PUSH2 0x376 JUMPI PUSH1 0x0 DUP1 REVERT JUMPDEST POP PUSH2 0x37F PUSH2 0xBAD JUMP JUMPDEST PUSH1 0x40 MLOAD PUSH2 0x38C SWAP2 SWAP1 PUSH2 0x1527 JUMP JUMPDEST PUSH1 0x40 MLOAD DUP1 SWAP2 SUB SWAP1 RETURN JUMPDEST CALLVALUE DUP1 ISZERO PUSH2 0x3A1 JUMPI PUSH1 0x0 DUP1 REVERT JUMPDEST POP PUSH2 0x3AA PUSH2 0xC8E JUMP JUMPDEST PUSH1 0x40 MLOAD PUSH2 0x3B7 SWAP2 SWAP1 PUSH2 0x1542 JUMP JUMPDEST PUSH1 0x40 MLOAD DUP1 SWAP2 SUB SWAP1 RETURN JUMPDEST CALLVALUE DUP1 ISZERO PUSH2 0x3CC JUMPI PUSH1 0x0 DUP1 REVERT JUMPDEST POP PUSH2 0x3D5 PUSH2 0xCA1 JUMP JUMPDEST PUSH1 0x40 MLOAD PUSH2 0x3E2 SWAP2 SWAP1 PUSH2 0x14BA JUMP JUMPDEST PUSH1 0x40 MLOAD DUP1 SWAP2 SUB SWAP1 RETURN JUMPDEST CALLVALUE DUP1 ISZERO PUSH2 0x3F7 JUMPI PUSH1 0x0 DUP1 REVERT JUMPDEST POP PUSH2 0x400 PUSH2 0xCC7 JUMP JUMPDEST PUSH1 0x40 MLOAD PUSH2 0x40D SWAP2 SWAP1 PUSH2 0x14BA JUMP JUMPDEST PUSH1 0x40 MLOAD DUP1 SWAP2 SUB SWAP1 RETURN JUMPDEST CALLVALUE DUP1 ISZERO PUSH2 0x422 JUMPI PUSH1 0x0 DUP1 REVERT JUMPDEST POP PUSH2 0x42B PUSH2 0xCED JUMP JUMPDEST STOP JUMPDEST CALLVALUE DUP1 ISZERO PUSH2 0x439 JUMPI PUSH1 0x0 DUP1 REVERT JUMPDEST POP PUSH2 0x442 PUSH2 0xD74 JUMP JUMPDEST PUSH1 0x40 MLOAD PUSH2 0x44F SWAP2 SWAP1 PUSH2 0x157F JUMP JUMPDEST PUSH1 0x40 MLOAD DUP1 SWAP2 SUB SWAP1 RETURN JUMPDEST CALLVALUE DUP1 ISZERO PUSH2 0x464 JUMPI PUSH1 0x0 DUP1 REVERT JUMPDEST POP PUSH2 0x47F PUSH1 0x4 DUP1 CALLDATASIZE SUB DUP2 ADD SWAP1 PUSH2 0x47A SWAP2 SWAP1 PUSH2 0x1309 JUMP JUMPDEST PUSH2 0xD7A JUMP JUMPDEST PUSH1 0x40 MLOAD PUSH2 0x48C SWAP2 SWAP1 PUSH2 0x157F JUMP JUMPDEST PUSH1 0x40 MLOAD DUP1 SWAP2 SUB SWAP1 RETURN JUMPDEST CALLVALUE DUP1 ISZERO PUSH2 0x4A1 JUMPI PUSH1 0x0 DUP1 REVERT JUMPDEST POP PUSH2 0x4AA PUSH2 0xDC3 JUMP JUMPDEST PUSH1 0x40 MLOAD PUSH2 0x4B7 SWAP2 SWAP1 PUSH2 0x155D JUMP JUMPDEST PUSH1 0x40 MLOAD DUP1 SWAP2 SUB SWAP1 RETURN JUMPDEST CALLVALUE DUP1 ISZERO PUSH2 0x4CC JUMPI PUSH1 0x0 DUP1 REVERT JUMPDEST POP PUSH2 0x4D5 PUSH2 0xE51 JUMP JUMPDEST PUSH1 0x40 MLOAD PUSH2 0x4E2 SWAP2 SWAP1 PUSH2 0x157F JUMP JUMPDEST PUSH1 0x40 MLOAD DUP1 SWAP2 SUB SWAP1 RETURN JUMPDEST CALLVALUE DUP1 ISZERO PUSH2 0x4F7 JUMPI PUSH1 0x0 DUP1 REVERT JUMPDEST POP PUSH2 0x512 PUSH1 0x4 DUP1 CALLDATASIZE SUB DUP2 ADD SWAP1 PUSH2 0x50D SWAP2 SWAP1 PUSH2 0x13F6 JUMP JUMPDEST PUSH2 0xE57 JUMP JUMPDEST PUSH1 0x40 MLOAD PUSH2 0x51F SWAP2 SWAP1 PUSH2 0x1527 JUMP JUMPDEST PUSH1 0x40 MLOAD DUP1 SWAP2 SUB SWAP1 RETURN JUMPDEST CALLVALUE DUP1 ISZERO PUSH2 0x534 JUMPI PUSH1 0x0 DUP1 REVERT JUMPDEST POP PUSH2 0x53D PUSH2 0xE7C JUMP JUMPDEST PUSH1 0x40 MLOAD PUSH2 0x54A SWAP2 SWAP1 PUSH2 0x157F JUMP JUMPDEST PUSH1 0x40 MLOAD DUP1 SWAP2 SUB SWAP1 RETURN JUMPDEST CALLVALUE DUP1 ISZERO PUSH2 0x55F JUMPI PUSH1 0x0 DUP1 REVERT JUMPDEST POP PUSH2 0x568 PUSH2 0xE82 JUMP JUMPDEST PUSH1 0x40 MLOAD PUSH2 0x575 SWAP2 SWAP1 PUSH2 0x157F JUMP JUMPDEST PUSH1 0x40 MLOAD DUP1 SWAP2 SUB SWAP1 RETURN JUMPDEST CALLVALUE DUP1 ISZERO PUSH2 0x58A JUMPI PUSH1 0x0 DUP1 REVERT JUMPDEST POP PUSH2 0x593 PUSH2 0xE88 JUMP JUMPDEST PUSH1 0x40 MLOAD PUSH2 0x5A0 SWAP2 SWAP1 PUSH2 0x14D5 JUMP JUMPDEST PUSH1 0x40 MLOAD DUP1 SWAP2 SUB SWAP1 RETURN JUMPDEST CALLVALUE DUP1 ISZERO PUSH2 0x5B5 JUMPI PUSH1 0x0 DUP1 REVERT JUMPDEST POP PUSH2 0x5D0 PUSH1 0x4 DUP1 CALLDATASIZE SUB DUP2 ADD SWAP1 PUSH2 0x5CB SWAP2 SWAP1 PUSH2 0x1363 JUMP JUMPDEST PUSH2 0xEAE JUMP JUMPDEST PUSH1 0x40 MLOAD PUSH2 0x5DD SWAP2 SWAP1 PUSH2 0x157F JUMP JUMPDEST PUSH1 0x40 MLOAD DUP1 SWAP2 SUB SWAP1 RETURN JUMPDEST PUSH2 0x5EE PUSH2 0x62D JUMP JUMPDEST PUSH1 0x40 MLOAD PUSH2 0x5FB SWAP2 SWAP1 PUSH2 0x1527 JUMP JUMPDEST PUSH1 0x40 MLOAD DUP1 SWAP2 SUB SWAP1 RETURN JUMPDEST CALLVALUE DUP1 ISZERO PUSH2 0x610 JUMPI PUSH1 0x0 DUP1 REVERT JUMPDEST POP PUSH2 0x62B PUSH1 0x4 DUP1 CALLDATASIZE SUB DUP2 ADD SWAP1 PUSH2 0x626 SWAP2 SWAP1 PUSH2 0x1336 JUMP JUMPDEST PUSH2 0xF35 JUMP JUMPDEST STOP JUMPDEST PUSH1 0x0 PUSH2 0x637 PUSH2 0xADF JUMP JUMPDEST PUSH1 0x10 PUSH1 0x0 PUSH2 0x100 EXP DUP2 SLOAD DUP2 PUSH1 0xFF MUL NOT AND SWAP1 DUP4 PUSH1 0x3 DUP2 GT ISZERO PUSH2 0x65B JUMPI PUSH2 0x65A PUSH2 0x17B3 JUMP JUMPDEST JUMPDEST MUL OR SWAP1 SSTORE POP PUSH1 0x2 PUSH1 0x3 DUP2 GT ISZERO PUSH2 0x674 JUMPI PUSH2 0x673 PUSH2 0x17B3 JUMP JUMPDEST JUMPDEST PUSH1 0x10 PUSH1 0x0 SWAP1 SLOAD SWAP1 PUSH2 0x100 EXP SWAP1 DIV PUSH1 0xFF AND PUSH1 0x3 DUP2 GT ISZERO PUSH2 0x696 JUMPI PUSH2 0x695 PUSH2 0x17B3 JUMP JUMPDEST JUMPDEST EQ PUSH2 0x6A0 JUMPI PUSH1 0x0 DUP1 REVERT JUMPDEST PUSH1 0xF SLOAD CALLVALUE LT ISZERO DUP1 ISZERO PUSH2 0x6B4 JUMPI POP PUSH1 0xE SLOAD CALLVALUE GT ISZERO JUMPDEST PUSH2 0x6BD JUMPI PUSH1 0x0 DUP1 REVERT JUMPDEST CALLVALUE PUSH1 0xA PUSH1 0x0 DUP3 DUP3 SLOAD PUSH2 0x6CF SWAP2 SWAP1 PUSH2 0x15B6 JUMP JUMPDEST SWAP3 POP POP DUP2 SWAP1 SSTORE POP PUSH1 0x9 SLOAD PUSH1 0xA SLOAD GT ISZERO PUSH2 0x6E7 JUMPI PUSH1 0x0 DUP1 REVERT JUMPDEST PUSH1 0x0 PUSH1 0x8 SLOAD CALLVALUE PUSH2 0x6F7 SWAP2 SWAP1 PUSH2 0x160C JUMP JUMPDEST SWAP1 POP DUP1 PUSH1 0x4 PUSH1 0x0 CALLER PUSH20 0xFFFFFFFFFFFFFFFFFFFFFFFFFFFFFFFFFFFFFFFF AND PUSH20 0xFFFFFFFFFFFFFFFFFFFFFFFFFFFFFFFFFFFFFFFF AND DUP2 MSTORE PUSH1 0x20 ADD SWAP1 DUP2 MSTORE PUSH1 0x20 ADD PUSH1 0x0 KECCAK256 PUSH1 0x0 DUP3 DUP3 SLOAD PUSH2 0x748 SWAP2 SWAP1 PUSH2 0x15B6 JUMP JUMPDEST SWAP3 POP POP DUP2 SWAP1 SSTORE POP DUP1 PUSH1 0x4 PUSH1 0x0 PUSH1 0x3 PUSH1 0x0 SWAP1 SLOAD SWAP1 PUSH2 0x100 EXP SWAP1 DIV PUSH20 0xFFFFFFFFFFFFFFFFFFFFFFFFFFFFFFFFFFFFFFFF AND PUSH20 0xFFFFFFFFFFFFFFFFFFFFFFFFFFFFFFFFFFFFFFFF AND PUSH20 0xFFFFFFFFFFFFFFFFFFFFFFFFFFFFFFFFFFFFFFFF AND DUP2 MSTORE PUSH1 0x20 ADD SWAP1 DUP2 MSTORE PUSH1 0x20 ADD PUSH1 0x0 KECCAK256 PUSH1 0x0 DUP3 DUP3 SLOAD PUSH2 0x7C0 SWAP2 SWAP1 PUSH2 0x163D JUMP JUMPDEST SWAP3 POP POP DUP2 SWAP1 SSTORE POP PUSH1 0x7 PUSH1 0x0 SWAP1 SLOAD SWAP1 PUSH2 0x100 EXP SWAP1 DIV PUSH20 0xFFFFFFFFFFFFFFFFFFFFFFFFFFFFFFFFFFFFFFFF AND PUSH20 0xFFFFFFFFFFFFFFFFFFFFFFFFFFFFFFFFFFFFFFFF AND PUSH2 0x8FC CALLVALUE SWAP1 DUP2 ISZERO MUL SWAP1 PUSH1 0x40 MLOAD PUSH1 0x0 PUSH1 0x40 MLOAD DUP1 DUP4 SUB DUP2 DUP6 DUP9 DUP9 CALL SWAP4 POP POP POP POP ISZERO DUP1 ISZERO PUSH2 0x82F JUMPI RETURNDATASIZE PUSH1 0x0 DUP1 RETURNDATACOPY RETURNDATASIZE PUSH1 0x0 REVERT JUMPDEST POP PUSH32 0x4AE4BD7655E0D350876A23CD90C4227B13DB560E34435C6A488150A9C844BF5F CALLER CALLVALUE DUP4 PUSH1 0x40 MLOAD PUSH2 0x863 SWAP4 SWAP3 SWAP2 SWAP1 PUSH2 0x14F0 JUMP JUMPDEST PUSH1 0x40 MLOAD DUP1 SWAP2 SUB SWAP1 LOG1 PUSH1 0x1 SWAP2 POP POP SWAP1 JUMP JUMPDEST PUSH1 0x6 PUSH1 0x0 SWAP1 SLOAD SWAP1 PUSH2 0x100 EXP SWAP1 DIV PUSH20 0xFFFFFFFFFFFFFFFFFFFFFFFFFFFFFFFFFFFFFFFF AND PUSH20 0xFFFFFFFFFFFFFFFFFFFFFFFFFFFFFFFFFFFFFFFF AND CALLER PUSH20 0xFFFFFFFFFFFFFFFFFFFFFFFFFFFFFFFFFFFFFFFF AND EQ PUSH2 0x8CD JUMPI PUSH1 0x0 DUP1 REVERT JUMPDEST PUSH1 0x2 PUSH1 0x10 PUSH1 0x0 PUSH2 0x100 EXP DUP2 SLOAD DUP2 PUSH1 0xFF MUL NOT AND SWAP1 DUP4 PUSH1 0x3 DUP2 GT ISZERO PUSH2 0x8F3 JUMPI PUSH2 0x8F2 PUSH2 0x17B3 JUMP JUMPDEST JUMPDEST MUL OR SWAP1 SSTORE POP JUMP JUMPDEST PUSH1 0xC SLOAD DUP2 JUMP JUMPDEST PUSH1 0x0 DUP1 SLOAD PUSH2 0x90D SWAP1 PUSH2 0x1723 JUMP JUMPDEST DUP1 PUSH1 0x1F ADD PUSH1 0x20 DUP1 SWAP2 DIV MUL PUSH1 0x20 ADD PUSH1 0x40 MLOAD SWAP1 DUP2 ADD PUSH1 0x40 MSTORE DUP1 SWAP3 SWAP2 SWAP1 DUP2 DUP2 MSTORE PUSH1 0x20 ADD DUP3 DUP1 SLOAD PUSH2 0x939 SWAP1 PUSH2 0x1723 JUMP JUMPDEST DUP1 ISZERO PUSH2 0x986 JUMPI DUP1 PUSH1 0x1F LT PUSH2 0x95B JUMPI PUSH2 0x100 DUP1 DUP4 SLOAD DIV MUL DUP4 MSTORE SWAP2 PUSH1 0x20 ADD SWAP2 PUSH2 0x986 JUMP JUMPDEST DUP3 ADD SWAP2 SWAP1 PUSH1 0x0 MSTORE PUSH1 0x20 PUSH1 0x0 KECCAK256 SWAP1 JUMPDEST DUP2 SLOAD DUP2 MSTORE SWAP1 PUSH1 0x1 ADD SWAP1 PUSH1 0x20 ADD DUP1 DUP4 GT PUSH2 0x969 JUMPI DUP3 SWAP1 SUB PUSH1 0x1F AND DUP3 ADD SWAP2 JUMPDEST POP POP POP POP POP DUP2 JUMP JUMPDEST PUSH1 0x0 DUP2 PUSH1 0x4 PUSH1 0x0 CALLER PUSH20 0xFFFFFFFFFFFFFFFFFFFFFFFFFFFFFFFFFFFFFFFF AND PUSH20 0xFFFFFFFFFFFFFFFFFFFFFFFFFFFFFFFFFFFFFFFF AND DUP2 MSTORE PUSH1 0x20 ADD SWAP1 DUP2 MSTORE PUSH1 0x20 ADD PUSH1 0x0 KECCAK256 SLOAD LT ISZERO PUSH2 0x9DC JUMPI PUSH1 0x0 DUP1 REVERT JUMPDEST PUSH1 0x0 DUP3 GT PUSH2 0x9E9 JUMPI PUSH1 0x0 DUP1 REVERT JUMPDEST DUP2 PUSH1 0x5 PUSH1 0x0 CALLER PUSH20 0xFFFFFFFFFFFFFFFFFFFFFFFFFFFFFFFFFFFFFFFF AND PUSH20 0xFFFFFFFFFFFFFFFFFFFFFFFFFFFFFFFFFFFFFFFF AND DUP2 MSTORE PUSH1 0x20 ADD SWAP1 DUP2 MSTORE PUSH1 0x20 ADD PUSH1 0x0 KECCAK256 PUSH1 0x0 DUP6 PUSH20 0xFFFFFFFFFFFFFFFFFFFFFFFFFFFFFFFFFFFFFFFF AND PUSH20 0xFFFFFFFFFFFFFFFFFFFFFFFFFFFFFFFFFFFFFFFF AND DUP2 MSTORE PUSH1 0x20 ADD SWAP1 DUP2 MSTORE PUSH1 0x20 ADD PUSH1 0x0 KECCAK256 DUP2 SWAP1 SSTORE POP DUP3 PUSH20 0xFFFFFFFFFFFFFFFFFFFFFFFFFFFFFFFFFFFFFFFF AND CALLER PUSH20 0xFFFFFFFFFFFFFFFFFFFFFFFFFFFFFFFFFFFFFFFF AND PUSH32 0x8C5BE1E5EBEC7D5BD14F71427D1E84F3DD0314C0F7B2291E5B200AC8C7C3B925 DUP5 PUSH1 0x40 MLOAD PUSH2 0xAC7 SWAP2 SWAP1 PUSH2 0x157F JUMP JUMPDEST PUSH1 0x40 MLOAD DUP1 SWAP2 SUB SWAP1 LOG3 PUSH1 0x1 SWAP1 POP SWAP3 SWAP2 POP POP JUMP JUMPDEST PUSH1 0x2 SLOAD DUP2 JUMP JUMPDEST PUSH1 0x0 PUSH1 0x3 DUP1 DUP2 GT ISZERO PUSH2 0xAF4 JUMPI PUSH2 0xAF3 PUSH2 0x17B3 JUMP JUMPDEST JUMPDEST PUSH1 0x10 PUSH1 0x0 SWAP1 SLOAD SWAP1 PUSH2 0x100 EXP SWAP1 DIV PUSH1 0xFF AND PUSH1 0x3 DUP2 GT ISZERO PUSH2 0xB16 JUMPI PUSH2 0xB15 PUSH2 0x17B3 JUMP JUMPDEST JUMPDEST EQ ISZERO PUSH2 0xB25 JUMPI PUSH1 0x3 SWAP1 POP PUSH2 0xB5F JUMP JUMPDEST PUSH1 0xB SLOAD TIMESTAMP LT ISZERO PUSH2 0xB38 JUMPI PUSH1 0x0 SWAP1 POP PUSH2 0xB5F JUMP JUMPDEST PUSH1 0xB SLOAD TIMESTAMP LT ISZERO DUP1 ISZERO PUSH2 0xB4C JUMPI POP PUSH1 0xC SLOAD TIMESTAMP GT ISZERO JUMPDEST ISZERO PUSH2 0xB5A JUMPI PUSH1 0x2 SWAP1 POP PUSH2 0xB5F JUMP JUMPDEST PUSH1 0x1 SWAP1 POP JUMPDEST SWAP1 JUMP JUMPDEST PUSH1 0x0 PUSH1 0xD SLOAD TIMESTAMP GT PUSH2 0xB72 JUMPI PUSH1 0x0 DUP1 REVERT JUMPDEST PUSH2 0xB7D DUP5 DUP5 DUP5 PUSH2 0xFD3 JUMP JUMPDEST POP PUSH1 0x1 SWAP1 POP SWAP4 SWAP3 POP POP POP JUMP JUMPDEST PUSH1 0x4 PUSH1 0x20 MSTORE DUP1 PUSH1 0x0 MSTORE PUSH1 0x40 PUSH1 0x0 KECCAK256 PUSH1 0x0 SWAP2 POP SWAP1 POP SLOAD DUP2 JUMP JUMPDEST PUSH1 0xE SLOAD DUP2 JUMP JUMPDEST PUSH1 0x9 SLOAD DUP2 JUMP JUMPDEST PUSH1 0x0 PUSH2 0xBB7 PUSH2 0xADF JUMP JUMPDEST PUSH1 0x10 PUSH1 0x0 PUSH2 0x100 EXP DUP2 SLOAD DUP2 PUSH1 0xFF MUL NOT AND SWAP1 DUP4 PUSH1 0x3 DUP2 GT ISZERO PUSH2 0xBDB JUMPI PUSH2 0xBDA PUSH2 0x17B3 JUMP JUMPDEST JUMPDEST MUL OR SWAP1 SSTORE POP PUSH1 0x1 PUSH1 0x3 DUP2 GT ISZERO PUSH2 0xBF4 JUMPI PUSH2 0xBF3 PUSH2 0x17B3 JUMP JUMPDEST JUMPDEST PUSH1 0x10 PUSH1 0x0 SWAP1 SLOAD SWAP1 PUSH2 0x100 EXP SWAP1 DIV PUSH1 0xFF AND PUSH1 0x3 DUP2 GT ISZERO PUSH2 0xC16 JUMPI PUSH2 0xC15 PUSH2 0x17B3 JUMP JUMPDEST JUMPDEST EQ PUSH2 0xC20 JUMPI PUSH1 0x0 DUP1 REVERT JUMPDEST PUSH1 0x0 PUSH1 0x4 PUSH1 0x0 PUSH1 0x3 PUSH1 0x0 SWAP1 SLOAD SWAP1 PUSH2 0x100 EXP SWAP1 DIV PUSH20 0xFFFFFFFFFFFFFFFFFFFFFFFFFFFFFFFFFFFFFFFF AND PUSH20 0xFFFFFFFFFFFFFFFFFFFFFFFFFFFFFFFFFFFFFFFF AND PUSH20 0xFFFFFFFFFFFFFFFFFFFFFFFFFFFFFFFFFFFFFFFF AND DUP2 MSTORE PUSH1 0x20 ADD SWAP1 DUP2 MSTORE PUSH1 0x20 ADD PUSH1 0x0 KECCAK256 DUP2 SWAP1 SSTORE POP PUSH1 0x1 SWAP1 POP SWAP1 JUMP JUMPDEST PUSH1 0x10 PUSH1 0x0 SWAP1 SLOAD SWAP1 PUSH2 0x100 EXP SWAP1 DIV PUSH1 0xFF AND DUP2 JUMP JUMPDEST PUSH1 0x6 PUSH1 0x0 SWAP1 SLOAD SWAP1 PUSH2 0x100 EXP SWAP1 DIV PUSH20 0xFFFFFFFFFFFFFFFFFFFFFFFFFFFFFFFFFFFFFFFF AND DUP2 JUMP JUMPDEST PUSH1 0x3 PUSH1 0x0 SWAP1 SLOAD SWAP1 PUSH2 0x100 EXP SWAP1 DIV PUSH20 0xFFFFFFFFFFFFFFFFFFFFFFFFFFFFFFFFFFFFFFFF AND DUP2 JUMP JUMPDEST PUSH1 0x6 PUSH1 0x0 SWAP1 SLOAD SWAP1 PUSH2 0x100 EXP SWAP1 DIV PUSH20 0xFFFFFFFFFFFFFFFFFFFFFFFFFFFFFFFFFFFFFFFF AND PUSH20 0xFFFFFFFFFFFFFFFFFFFFFFFFFFFFFFFFFFFFFFFF AND CALLER PUSH20 0xFFFFFFFFFFFFFFFFFFFFFFFFFFFFFFFFFFFFFFFF AND EQ PUSH2 0xD47 JUMPI PUSH1 0x0 DUP1 REVERT JUMPDEST PUSH1 0x3 PUSH1 0x10 PUSH1 0x0 PUSH2 0x100 EXP DUP2 SLOAD DUP2 PUSH1 0xFF MUL NOT AND SWAP1 DUP4 PUSH1 0x3 DUP2 GT ISZERO PUSH2 0xD6D JUMPI PUSH2 0xD6C PUSH2 0x17B3 JUMP JUMPDEST JUMPDEST MUL OR SWAP1 SSTORE POP JUMP JUMPDEST PUSH1 0xF SLOAD DUP2 JUMP JUMPDEST PUSH1 0x0 PUSH1 0x4 PUSH1 0x0 DUP4 PUSH20 0xFFFFFFFFFFFFFFFFFFFFFFFFFFFFFFFFFFFFFFFF AND PUSH20 0xFFFFFFFFFFFFFFFFFFFFFFFFFFFFFFFFFFFFFFFF AND DUP2 MSTORE PUSH1 0x20 ADD SWAP1 DUP2 MSTORE PUSH1 0x20 ADD PUSH1 0x0 KECCAK256 SLOAD SWAP1 POP SWAP2 SWAP1 POP JUMP JUMPDEST PUSH1 0x1 DUP1 SLOAD PUSH2 0xDD0 SWAP1 PUSH2 0x1723 JUMP JUMPDEST DUP1 PUSH1 0x1F ADD PUSH1 0x20 DUP1 SWAP2 DIV MUL PUSH1 0x20 ADD PUSH1 0x40 MLOAD SWAP1 DUP2 ADD PUSH1 0x40 MSTORE DUP1 SWAP3 SWAP2 SWAP1 DUP2 DUP2 MSTORE PUSH1 0x20 ADD DUP3 DUP1 SLOAD PUSH2 0xDFC SWAP1 PUSH2 0x1723 JUMP JUMPDEST DUP1 ISZERO PUSH2 0xE49 JUMPI DUP1 PUSH1 0x1F LT PUSH2 0xE1E JUMPI PUSH2 0x100 DUP1 DUP4 SLOAD DIV MUL DUP4 MSTORE SWAP2 PUSH1 0x20 ADD SWAP2 PUSH2 0xE49 JUMP JUMPDEST DUP3 ADD SWAP2 SWAP1 PUSH1 0x0 MSTORE PUSH1 0x20 PUSH1 0x0 KECCAK256 SWAP1 JUMPDEST DUP2 SLOAD DUP2 MSTORE SWAP1 PUSH1 0x1 ADD SWAP1 PUSH1 0x20 ADD DUP1 DUP4 GT PUSH2 0xE2C JUMPI DUP3 SWAP1 SUB PUSH1 0x1F AND DUP3 ADD SWAP2 JUMPDEST POP POP POP POP POP DUP2 JUMP JUMPDEST PUSH1 0xB SLOAD DUP2 JUMP JUMPDEST PUSH1 0x0 PUSH1 0xD SLOAD TIMESTAMP GT PUSH2 0xE67 JUMPI PUSH1 0x0 DUP1 REVERT JUMPDEST PUSH2 0xE71 DUP4 DUP4 PUSH2 0x1161 JUMP JUMPDEST POP PUSH1 0x1 SWAP1 POP SWAP3 SWAP2 POP POP JUMP JUMPDEST PUSH1 0xD SLOAD DUP2 JUMP JUMPDEST PUSH1 0xA SLOAD DUP2 JUMP JUMPDEST PUSH1 0x7 PUSH1 0x0 SWAP1 SLOAD SWAP1 PUSH2 0x100 EXP SWAP1 DIV PUSH20 0xFFFFFFFFFFFFFFFFFFFFFFFFFFFFFFFFFFFFFFFF AND DUP2 JUMP JUMPDEST PUSH1 0x0 PUSH1 0x5 PUSH1 0x0 DUP5 PUSH20 0xFFFFFFFFFFFFFFFFFFFFFFFFFFFFFFFFFFFFFFFF AND PUSH20 0xFFFFFFFFFFFFFFFFFFFFFFFFFFFFFFFFFFFFFFFF AND DUP2 MSTORE PUSH1 0x20 ADD SWAP1 DUP2 MSTORE PUSH1 0x20 ADD PUSH1 0x0 KECCAK256 PUSH1 0x0 DUP4 PUSH20 0xFFFFFFFFFFFFFFFFFFFFFFFFFFFFFFFFFFFFFFFF AND PUSH20 0xFFFFFFFFFFFFFFFFFFFFFFFFFFFFFFFFFFFFFFFF AND DUP2 MSTORE PUSH1 0x20 ADD SWAP1 DUP2 MSTORE PUSH1 0x20 ADD PUSH1 0x0 KECCAK256 SLOAD SWAP1 POP SWAP3 SWAP2 POP POP JUMP JUMPDEST PUSH1 0x6 PUSH1 0x0 SWAP1 SLOAD SWAP1 PUSH2 0x100 EXP SWAP1 DIV PUSH20 0xFFFFFFFFFFFFFFFFFFFFFFFFFFFFFFFFFFFFFFFF AND PUSH20 0xFFFFFFFFFFFFFFFFFFFFFFFFFFFFFFFFFFFFFFFF AND CALLER PUSH20 0xFFFFFFFFFFFFFFFFFFFFFFFFFFFFFFFFFFFFFFFF AND EQ PUSH2 0xF8F JUMPI PUSH1 0x0 DUP1 REVERT JUMPDEST DUP1 PUSH1 0x7 PUSH1 0x0 PUSH2 0x100 EXP DUP2 SLOAD DUP2 PUSH20 0xFFFFFFFFFFFFFFFFFFFFFFFFFFFFFFFFFFFFFFFF MUL NOT AND SWAP1 DUP4 PUSH20 0xFFFFFFFFFFFFFFFFFFFFFFFFFFFFFFFFFFFFFFFF AND MUL OR SWAP1 SSTORE POP POP JUMP JUMPDEST PUSH1 0x0 DUP2 PUSH1 0x5 PUSH1 0x0 DUP7 PUSH20 0xFFFFFFFFFFFFFFFFFFFFFFFFFFFFFFFFFFFFFFFF AND PUSH20 0xFFFFFFFFFFFFFFFFFFFFFFFFFFFFFFFFFFFFFFFF AND DUP2 MSTORE PUSH1 0x20 ADD SWAP1 DUP2 MSTORE PUSH1 0x20 ADD PUSH1 0x0 KECCAK256 PUSH1 0x0 DUP6 PUSH20 0xFFFFFFFFFFFFFFFFFFFFFFFFFFFFFFFFFFFFFFFF AND PUSH20 0xFFFFFFFFFFFFFFFFFFFFFFFFFFFFFFFFFFFFFFFF AND DUP2 MSTORE PUSH1 0x20 ADD SWAP1 DUP2 MSTORE PUSH1 0x20 ADD PUSH1 0x0 KECCAK256 SLOAD LT ISZERO PUSH2 0x105E JUMPI PUSH1 0x0 DUP1 REVERT JUMPDEST DUP2 PUSH1 0x4 PUSH1 0x0 DUP7 PUSH20 0xFFFFFFFFFFFFFFFFFFFFFFFFFFFFFFFFFFFFFFFF AND PUSH20 0xFFFFFFFFFFFFFFFFFFFFFFFFFFFFFFFFFFFFFFFF AND DUP2 MSTORE PUSH1 0x20 ADD SWAP1 DUP2 MSTORE PUSH1 0x20 ADD PUSH1 0x0 KECCAK256 SLOAD LT ISZERO PUSH2 0x10AA JUMPI PUSH1 0x0 DUP1 REVERT JUMPDEST DUP2 PUSH1 0x4 PUSH1 0x0 DUP7 PUSH20 0xFFFFFFFFFFFFFFFFFFFFFFFFFFFFFFFFFFFFFFFF AND PUSH20 0xFFFFFFFFFFFFFFFFFFFFFFFFFFFFFFFFFFFFFFFF AND DUP2 MSTORE PUSH1 0x20 ADD SWAP1 DUP2 MSTORE PUSH1 0x20 ADD PUSH1 0x0 KECCAK256 PUSH1 0x0 DUP3 DUP3 SLOAD PUSH2 0x10F9 SWAP2 SWAP1 PUSH2 0x163D JUMP JUMPDEST SWAP3 POP POP DUP2 SWAP1 SSTORE POP DUP2 PUSH1 0x4 PUSH1 0x0 DUP6 PUSH20 0xFFFFFFFFFFFFFFFFFFFFFFFFFFFFFFFFFFFFFFFF AND PUSH20 0xFFFFFFFFFFFFFFFFFFFFFFFFFFFFFFFFFFFFFFFF AND DUP2 MSTORE PUSH1 0x20 ADD SWAP1 DUP2 MSTORE PUSH1 0x20 ADD PUSH1 0x0 KECCAK256 PUSH1 0x0 DUP3 DUP3 SLOAD PUSH2 0x114F SWAP2 SWAP1 PUSH2 0x15B6 JUMP JUMPDEST SWAP3 POP POP DUP2 SWAP1 SSTORE POP PUSH1 0x1 SWAP1 POP SWAP4 SWAP3 POP POP POP JUMP JUMPDEST PUSH1 0x0 DUP2 PUSH1 0x4 PUSH1 0x0 CALLER PUSH20 0xFFFFFFFFFFFFFFFFFFFFFFFFFFFFFFFFFFFFFFFF AND PUSH20 0xFFFFFFFFFFFFFFFFFFFFFFFFFFFFFFFFFFFFFFFF AND DUP2 MSTORE PUSH1 0x20 ADD SWAP1 DUP2 MSTORE PUSH1 0x20 ADD PUSH1 0x0 KECCAK256 SLOAD LT ISZERO PUSH2 0x11AF JUMPI PUSH1 0x0 DUP1 REVERT JUMPDEST DUP2 PUSH1 0x4 PUSH1 0x0 DUP6 PUSH20 0xFFFFFFFFFFFFFFFFFFFFFFFFFFFFFFFFFFFFFFFF AND PUSH20 0xFFFFFFFFFFFFFFFFFFFFFFFFFFFFFFFFFFFFFFFF AND DUP2 MSTORE PUSH1 0x20 ADD SWAP1 DUP2 MSTORE PUSH1 0x20 ADD PUSH1 0x0 KECCAK256 PUSH1 0x0 DUP3 DUP3 SLOAD PUSH2 0x11FE SWAP2 SWAP1 PUSH2 0x15B6 JUMP JUMPDEST SWAP3 POP POP DUP2 SWAP1 SSTORE POP DUP2 PUSH1 0x4 PUSH1 0x0 CALLER PUSH20 0xFFFFFFFFFFFFFFFFFFFFFFFFFFFFFFFFFFFFFFFF AND PUSH20 0xFFFFFFFFFFFFFFFFFFFFFFFFFFFFFFFFFFFFFFFF AND DUP2 MSTORE PUSH1 0x20 ADD SWAP1 DUP2 MSTORE PUSH1 0x20 ADD PUSH1 0x0 KECCAK256 PUSH1 0x0 DUP3 DUP3 SLOAD PUSH2 0x1254 SWAP2 SWAP1 PUSH2 0x163D JUMP JUMPDEST SWAP3 POP POP DUP2 SWAP1 SSTORE POP DUP3 PUSH20 0xFFFFFFFFFFFFFFFFFFFFFFFFFFFFFFFFFFFFFFFF AND CALLER PUSH20 0xFFFFFFFFFFFFFFFFFFFFFFFFFFFFFFFFFFFFFFFF AND PUSH32 0xDDF252AD1BE2C89B69C2B068FC378DAA952BA7F163C4A11628F55A4DF523B3EF DUP5 PUSH1 0x40 MLOAD PUSH2 0x12B8 SWAP2 SWAP1 PUSH2 0x157F JUMP JUMPDEST PUSH1 0x40 MLOAD DUP1 SWAP2 SUB SWAP1 LOG3 PUSH1 0x1 SWAP1 POP SWAP3 SWAP2 POP POP JUMP JUMPDEST PUSH1 0x0 DUP2 CALLDATALOAD SWAP1 POP PUSH2 0x12D9 DUP2 PUSH2 0x183B JUMP JUMPDEST SWAP3 SWAP2 POP POP JUMP JUMPDEST PUSH1 0x0 DUP2 CALLDATALOAD SWAP1 POP PUSH2 0x12EE DUP2 PUSH2 0x1852 JUMP JUMPDEST SWAP3 SWAP2 POP POP JUMP JUMPDEST PUSH1 0x0 DUP2 CALLDATALOAD SWAP1 POP PUSH2 0x1303 DUP2 PUSH2 0x1869 JUMP JUMPDEST SWAP3 SWAP2 POP POP JUMP JUMPDEST PUSH1 0x0 PUSH1 0x20 DUP3 DUP5 SUB SLT ISZERO PUSH2 0x131F JUMPI PUSH2 0x131E PUSH2 0x1811 JUMP JUMPDEST JUMPDEST PUSH1 0x0 PUSH2 0x132D DUP5 DUP3 DUP6 ADD PUSH2 0x12CA JUMP JUMPDEST SWAP2 POP POP SWAP3 SWAP2 POP POP JUMP JUMPDEST PUSH1 0x0 PUSH1 0x20 DUP3 DUP5 SUB SLT ISZERO PUSH2 0x134C JUMPI PUSH2 0x134B PUSH2 0x1811 JUMP JUMPDEST JUMPDEST PUSH1 0x0 PUSH2 0x135A DUP5 DUP3 DUP6 ADD PUSH2 0x12DF JUMP JUMPDEST SWAP2 POP POP SWAP3 SWAP2 POP POP JUMP JUMPDEST PUSH1 0x0 DUP1 PUSH1 0x40 DUP4 DUP6 SUB SLT ISZERO PUSH2 0x137A JUMPI PUSH2 0x1379 PUSH2 0x1811 JUMP JUMPDEST JUMPDEST PUSH1 0x0 PUSH2 0x1388 DUP6 DUP3 DUP7 ADD PUSH2 0x12CA JUMP JUMPDEST SWAP3 POP POP PUSH1 0x20 PUSH2 0x1399 DUP6 DUP3 DUP7 ADD PUSH2 0x12CA JUMP JUMPDEST SWAP2 POP POP SWAP3 POP SWAP3 SWAP1 POP JUMP JUMPDEST PUSH1 0x0 DUP1 PUSH1 0x0 PUSH1 0x60 DUP5 DUP7 SUB SLT ISZERO PUSH2 0x13BC JUMPI PUSH2 0x13BB PUSH2 0x1811 JUMP JUMPDEST JUMPDEST PUSH1 0x0 PUSH2 0x13CA DUP7 DUP3 DUP8 ADD PUSH2 0x12CA JUMP JUMPDEST SWAP4 POP POP PUSH1 0x20 PUSH2 0x13DB DUP7 DUP3 DUP8 ADD PUSH2 0x12CA JUMP JUMPDEST SWAP3 POP POP PUSH1 0x40 PUSH2 0x13EC DUP7 DUP3 DUP8 ADD PUSH2 0x12F4 JUMP JUMPDEST SWAP2 POP POP SWAP3 POP SWAP3 POP SWAP3 JUMP JUMPDEST PUSH1 0x0 DUP1 PUSH1 0x40 DUP4 DUP6 SUB SLT ISZERO PUSH2 0x140D JUMPI PUSH2 0x140C PUSH2 0x1811 JUMP JUMPDEST JUMPDEST PUSH1 0x0 PUSH2 0x141B DUP6 DUP3 DUP7 ADD PUSH2 0x12CA JUMP JUMPDEST SWAP3 POP POP PUSH1 0x20 PUSH2 0x142C DUP6 DUP3 DUP7 ADD PUSH2 0x12F4 JUMP JUMPDEST SWAP2 POP POP SWAP3 POP SWAP3 SWAP1 POP JUMP JUMPDEST PUSH2 0x143F DUP2 PUSH2 0x1683 JUMP JUMPDEST DUP3 MSTORE POP POP JUMP JUMPDEST PUSH2 0x144E DUP2 PUSH2 0x1671 JUMP JUMPDEST DUP3 MSTORE POP POP JUMP JUMPDEST PUSH2 0x145D DUP2 PUSH2 0x1695 JUMP JUMPDEST DUP3 MSTORE POP POP JUMP JUMPDEST PUSH2 0x146C DUP2 PUSH2 0x16DE JUMP JUMPDEST DUP3 MSTORE POP POP JUMP JUMPDEST PUSH1 0x0 PUSH2 0x147D DUP3 PUSH2 0x159A JUMP JUMPDEST PUSH2 0x1487 DUP2 DUP6 PUSH2 0x15A5 JUMP JUMPDEST SWAP4 POP PUSH2 0x1497 DUP2 DUP6 PUSH1 0x20 DUP7 ADD PUSH2 0x16F0 JUMP JUMPDEST PUSH2 0x14A0 DUP2 PUSH2 0x1816 JUMP JUMPDEST DUP5 ADD SWAP2 POP POP SWAP3 SWAP2 POP POP JUMP JUMPDEST PUSH2 0x14B4 DUP2 PUSH2 0x16D4 JUMP JUMPDEST DUP3 MSTORE POP POP JUMP JUMPDEST PUSH1 0x0 PUSH1 0x20 DUP3 ADD SWAP1 POP PUSH2 0x14CF PUSH1 0x0 DUP4 ADD DUP5 PUSH2 0x1445 JUMP JUMPDEST SWAP3 SWAP2 POP POP JUMP JUMPDEST PUSH1 0x0 PUSH1 0x20 DUP3 ADD SWAP1 POP PUSH2 0x14EA PUSH1 0x0 DUP4 ADD DUP5 PUSH2 0x1436 JUMP JUMPDEST SWAP3 SWAP2 POP POP JUMP JUMPDEST PUSH1 0x0 PUSH1 0x60 DUP3 ADD SWAP1 POP PUSH2 0x1505 PUSH1 0x0 DUP4 ADD DUP7 PUSH2 0x1445 JUMP JUMPDEST PUSH2 0x1512 PUSH1 0x20 DUP4 ADD DUP6 PUSH2 0x14AB JUMP JUMPDEST PUSH2 0x151F PUSH1 0x40 DUP4 ADD DUP5 PUSH2 0x14AB JUMP JUMPDEST SWAP5 SWAP4 POP POP POP POP JUMP JUMPDEST PUSH1 0x0 PUSH1 0x20 DUP3 ADD SWAP1 POP PUSH2 0x153C PUSH1 0x0 DUP4 ADD DUP5 PUSH2 0x1454 JUMP JUMPDEST SWAP3 SWAP2 POP POP JUMP JUMPDEST PUSH1 0x0 PUSH1 0x20 DUP3 ADD SWAP1 POP PUSH2 0x1557 PUSH1 0x0 DUP4 ADD DUP5 PUSH2 0x1463 JUMP JUMPDEST SWAP3 SWAP2 POP POP JUMP JUMPDEST PUSH1 0x0 PUSH1 0x20 DUP3 ADD SWAP1 POP DUP2 DUP2 SUB PUSH1 0x0 DUP4 ADD MSTORE PUSH2 0x1577 DUP2 DUP5 PUSH2 0x1472 JUMP JUMPDEST SWAP1 POP SWAP3 SWAP2 POP POP JUMP JUMPDEST PUSH1 0x0 PUSH1 0x20 DUP3 ADD SWAP1 POP PUSH2 0x1594 PUSH1 0x0 DUP4 ADD DUP5 PUSH2 0x14AB JUMP JUMPDEST SWAP3 SWAP2 POP POP JUMP JUMPDEST PUSH1 0x0 DUP2 MLOAD SWAP1 POP SWAP2 SWAP1 POP JUMP JUMPDEST PUSH1 0x0 DUP3 DUP3 MSTORE PUSH1 0x20 DUP3 ADD SWAP1 POP SWAP3 SWAP2 POP POP JUMP JUMPDEST PUSH1 0x0 PUSH2 0x15C1 DUP3 PUSH2 0x16D4 JUMP JUMPDEST SWAP2 POP PUSH2 0x15CC DUP4 PUSH2 0x16D4 JUMP JUMPDEST SWAP3 POP DUP3 PUSH32 0xFFFFFFFFFFFFFFFFFFFFFFFFFFFFFFFFFFFFFFFFFFFFFFFFFFFFFFFFFFFFFFFF SUB DUP3 GT ISZERO PUSH2 0x1601 JUMPI PUSH2 0x1600 PUSH2 0x1755 JUMP JUMPDEST JUMPDEST DUP3 DUP3 ADD SWAP1 POP SWAP3 SWAP2 POP POP JUMP JUMPDEST PUSH1 0x0 PUSH2 0x1617 DUP3 PUSH2 0x16D4 JUMP JUMPDEST SWAP2 POP PUSH2 0x1622 DUP4 PUSH2 0x16D4 JUMP JUMPDEST SWAP3 POP DUP3 PUSH2 0x1632 JUMPI PUSH2 0x1631 PUSH2 0x1784 JUMP JUMPDEST JUMPDEST DUP3 DUP3 DIV SWAP1 POP SWAP3 SWAP2 POP POP JUMP JUMPDEST PUSH1 0x0 PUSH2 0x1648 DUP3 PUSH2 0x16D4 JUMP JUMPDEST SWAP2 POP PUSH2 0x1653 DUP4 PUSH2 0x16D4 JUMP JUMPDEST SWAP3 POP DUP3 DUP3 LT ISZERO PUSH2 0x1666 JUMPI PUSH2 0x1665 PUSH2 0x1755 JUMP JUMPDEST JUMPDEST DUP3 DUP3 SUB SWAP1 POP SWAP3 SWAP2 POP POP JUMP JUMPDEST PUSH1 0x0 PUSH2 0x167C DUP3 PUSH2 0x16B4 JUMP JUMPDEST SWAP1 POP SWAP2 SWAP1 POP JUMP JUMPDEST PUSH1 0x0 PUSH2 0x168E DUP3 PUSH2 0x16B4 JUMP JUMPDEST SWAP1 POP SWAP2 SWAP1 POP JUMP JUMPDEST PUSH1 0x0 DUP2 ISZERO ISZERO SWAP1 POP SWAP2 SWAP1 POP JUMP JUMPDEST PUSH1 0x0 DUP2 SWAP1 POP PUSH2 0x16AF DUP3 PUSH2 0x1827 JUMP JUMPDEST SWAP2 SWAP1 POP JUMP JUMPDEST PUSH1 0x0 PUSH20 0xFFFFFFFFFFFFFFFFFFFFFFFFFFFFFFFFFFFFFFFF DUP3 AND SWAP1 POP SWAP2 SWAP1 POP JUMP JUMPDEST PUSH1 0x0 DUP2 SWAP1 POP SWAP2 SWAP1 POP JUMP JUMPDEST PUSH1 0x0 PUSH2 0x16E9 DUP3 PUSH2 0x16A1 JUMP JUMPDEST SWAP1 POP SWAP2 SWAP1 POP JUMP JUMPDEST PUSH1 0x0 JUMPDEST DUP4 DUP2 LT ISZERO PUSH2 0x170E JUMPI DUP1 DUP3 ADD MLOAD DUP2 DUP5 ADD MSTORE PUSH1 0x20 DUP2 ADD SWAP1 POP PUSH2 0x16F3 JUMP JUMPDEST DUP4 DUP2 GT ISZERO PUSH2 0x171D JUMPI PUSH1 0x0 DUP5 DUP5 ADD MSTORE JUMPDEST POP POP POP POP JUMP JUMPDEST PUSH1 0x0 PUSH1 0x2 DUP3 DIV SWAP1 POP PUSH1 0x1 DUP3 AND DUP1 PUSH2 0x173B JUMPI PUSH1 0x7F DUP3 AND SWAP2 POP JUMPDEST PUSH1 0x20 DUP3 LT DUP2 EQ ISZERO PUSH2 0x174F JUMPI PUSH2 0x174E PUSH2 0x17E2 JUMP JUMPDEST JUMPDEST POP SWAP2 SWAP1 POP JUMP JUMPDEST PUSH32 0x4E487B7100000000000000000000000000000000000000000000000000000000 PUSH1 0x0 MSTORE PUSH1 0x11 PUSH1 0x4 MSTORE PUSH1 0x24 PUSH1 0x0 REVERT JUMPDEST PUSH32 0x4E487B7100000000000000000000000000000000000000000000000000000000 PUSH1 0x0 MSTORE PUSH1 0x12 PUSH1 0x4 MSTORE PUSH1 0x24 PUSH1 0x0 REVERT JUMPDEST PUSH32 0x4E487B7100000000000000000000000000000000000000000000000000000000 PUSH1 0x0 MSTORE PUSH1 0x21 PUSH1 0x4 MSTORE PUSH1 0x24 PUSH1 0x0 REVERT JUMPDEST PUSH32 0x4E487B7100000000000000000000000000000000000000000000000000000000 PUSH1 0x0 MSTORE PUSH1 0x22 PUSH1 0x4 MSTORE PUSH1 0x24 PUSH1 0x0 REVERT JUMPDEST PUSH1 0x0 DUP1 REVERT JUMPDEST PUSH1 0x0 PUSH1 0x1F NOT PUSH1 0x1F DUP4 ADD AND SWAP1 POP SWAP2 SWAP1 POP JUMP JUMPDEST PUSH1 0x4 DUP2 LT PUSH2 0x1838 JUMPI PUSH2 0x1837 PUSH2 0x17B3 JUMP JUMPDEST JUMPDEST POP JUMP JUMPDEST PUSH2 0x1844 DUP2 PUSH2 0x1671 JUMP JUMPDEST DUP2 EQ PUSH2 0x184F JUMPI PUSH1 0x0 DUP1 REVERT JUMPDEST POP JUMP JUMPDEST PUSH2 0x185B DUP2 PUSH2 0x1683 JUMP JUMPDEST DUP2 EQ PUSH2 0x1866 JUMPI PUSH1 0x0 DUP1 REVERT JUMPDEST POP JUMP JUMPDEST PUSH2 0x1872 DUP2 PUSH2 0x16D4 JUMP JUMPDEST DUP2 EQ PUSH2 0x187D JUMPI PUSH1 0x0 DUP1 REVERT JUMPDEST POP JUMP INVALID LOG2 PUSH5 0x6970667358 0x22 SLT KECCAK256 0x23 0xBC 0x5E SWAP3 0xFC PUSH31 0x5901635181DEDDA316234C91466AAC9BC0E6222128A0A99C11A964736F6C63 NUMBER STOP ADDMOD SMOD STOP CALLER "
				},
				"gasEstimates": {
					"creation": {
						"codeDepositCost": "1265200",
						"executionCost": "infinite",
						"totalCost": "infinite"
					},
					"external": {
						"allowance(address,address)": "infinite",
						"approve(address,uint256)": "infinite",
						"balanceOf(address)": "2930",
						"balances(address)": "2882",
						"burn()": "35354",
						"cap()": "2474",
						"changeDepositAddr(address)": "27002",
						"decimal()": "infinite",
						"deposit()": "2558",
						"founder()": "2537",
						"getState()": "9177",
						"halt()": "26646",
						"icoEnd()": "2475",
						"icoStart()": "2562",
						"icoState()": "2649",
						"invest()": "infinite",
						"manager()": "2625",
						"maxInvest()": "2519",
						"minInvest()": "2496",
						"name()": "infinite",
						"raisedAmount()": "2518",
						"resume()": "26625",
						"tokenTradeTime()": "2496",
						"totalSupply()": "2541",
						"transfer(address,uint256)": "infinite",
						"transferFrom(address,address,uint256)": "infinite"
					}
				},
				"methodIdentifiers": {
					"allowance(address,address)": "dd62ed3e",
					"approve(address,uint256)": "095ea7b3",
					"balanceOf(address)": "70a08231",
					"balances(address)": "27e235e3",
					"burn()": "44df8e70",
					"cap()": "355274ea",
					"changeDepositAddr(address)": "f7ef7c6c",
					"decimal()": "76809ce3",
					"deposit()": "d0e30db0",
					"founder()": "4d853ee5",
					"getState()": "1865c57d",
					"halt()": "5ed7ca5b",
					"icoEnd()": "0563451a",
					"icoStart()": "827037db",
					"icoState()": "44f38756",
					"invest()": "e8b5e51f",
					"manager()": "481c6a75",
					"maxInvest()": "3110235a",
					"minInvest()": "63fd9e38",
					"name()": "06fdde03",
					"raisedAmount()": "c59ee1dc",
					"resume()": "046f7da2",
					"tokenTradeTime()": "b8a4825f",
					"totalSupply()": "18160ddd",
					"transfer(address,uint256)": "a9059cbb",
					"transferFrom(address,address,uint256)": "23b872dd"
				}
			},
			"storageLayout": {
				"storage": [
					{
						"astId": 72,
						"contract": "ico.sol:ICO",
						"label": "name",
						"offset": 0,
						"slot": "0",
						"type": "t_string_storage"
					},
					{
						"astId": 75,
						"contract": "ico.sol:ICO",
						"label": "decimal",
						"offset": 0,
						"slot": "1",
						"type": "t_string_storage"
					},
					{
						"astId": 78,
						"contract": "ico.sol:ICO",
						"label": "totalSupply",
						"offset": 0,
						"slot": "2",
						"type": "t_uint256"
					},
					{
						"astId": 80,
						"contract": "ico.sol:ICO",
						"label": "founder",
						"offset": 0,
						"slot": "3",
						"type": "t_address"
					},
					{
						"astId": 84,
						"contract": "ico.sol:ICO",
						"label": "balances",
						"offset": 0,
						"slot": "4",
						"type": "t_mapping(t_address,t_uint256)"
					},
					{
						"astId": 90,
						"contract": "ico.sol:ICO",
						"label": "allowed",
						"offset": 0,
						"slot": "5",
						"type": "t_mapping(t_address,t_mapping(t_address,t_uint256))"
					},
					{
						"astId": 275,
						"contract": "ico.sol:ICO",
						"label": "manager",
						"offset": 0,
						"slot": "6",
						"type": "t_address"
					},
					{
						"astId": 277,
						"contract": "ico.sol:ICO",
						"label": "deposit",
						"offset": 0,
						"slot": "7",
						"type": "t_address_payable"
					},
					{
						"astId": 280,
						"contract": "ico.sol:ICO",
						"label": "tokenPrice",
						"offset": 0,
						"slot": "8",
						"type": "t_uint256"
					},
					{
						"astId": 283,
						"contract": "ico.sol:ICO",
						"label": "cap",
						"offset": 0,
						"slot": "9",
						"type": "t_uint256"
					},
					{
						"astId": 285,
						"contract": "ico.sol:ICO",
						"label": "raisedAmount",
						"offset": 0,
						"slot": "10",
						"type": "t_uint256"
					},
					{
						"astId": 289,
						"contract": "ico.sol:ICO",
						"label": "icoStart",
						"offset": 0,
						"slot": "11",
						"type": "t_uint256"
					},
					{
						"astId": 295,
						"contract": "ico.sol:ICO",
						"label": "icoEnd",
						"offset": 0,
						"slot": "12",
						"type": "t_uint256"
					},
					{
						"astId": 300,
						"contract": "ico.sol:ICO",
						"label": "tokenTradeTime",
						"offset": 0,
						"slot": "13",
						"type": "t_uint256"
					},
					{
						"astId": 303,
						"contract": "ico.sol:ICO",
						"label": "maxInvest",
						"offset": 0,
						"slot": "14",
						"type": "t_uint256"
					},
					{
						"astId": 306,
						"contract": "ico.sol:ICO",
						"label": "minInvest",
						"offset": 0,
						"slot": "15",
						"type": "t_uint256"
					},
					{
						"astId": 314,
						"contract": "ico.sol:ICO",
						"label": "icoState",
						"offset": 0,
						"slot": "16",
						"type": "t_enum(State)311"
					}
				],
				"types": {
					"t_address": {
						"encoding": "inplace",
						"label": "address",
						"numberOfBytes": "20"
					},
					"t_address_payable": {
						"encoding": "inplace",
						"label": "address payable",
						"numberOfBytes": "20"
					},
					"t_enum(State)311": {
						"encoding": "inplace",
						"label": "enum ICO.State",
						"numberOfBytes": "1"
					},
					"t_mapping(t_address,t_mapping(t_address,t_uint256))": {
						"encoding": "mapping",
						"key": "t_address",
						"label": "mapping(address => mapping(address => uint256))",
						"numberOfBytes": "32",
						"value": "t_mapping(t_address,t_uint256)"
					},
					"t_mapping(t_address,t_uint256)": {
						"encoding": "mapping",
						"key": "t_address",
						"label": "mapping(address => uint256)",
						"numberOfBytes": "32",
						"value": "t_uint256"
					},
					"t_string_storage": {
						"encoding": "bytes",
						"label": "string",
						"numberOfBytes": "32"
					},
					"t_uint256": {
						"encoding": "inplace",
						"label": "uint256",
						"numberOfBytes": "32"
					}
				}
			},
			"userdoc": {
				"kind": "user",
				"methods": {},
				"version": 1
			}
		}
	}
}