{
	"ico.sol": {
		"Block": {
			"abi": [
				{
					"inputs": [],
					"stateMutability": "nonpayable",
					"type": "constructor"
				},
				{
					"anonymous": false,
					"inputs": [
						{
							"indexed": true,
							"internalType": "address",
							"name": "tokenOwner",
							"type": "address"
						},
						{
							"indexed": true,
							"internalType": "address",
							"name": "spender",
							"type": "address"
						},
						{
							"indexed": false,
							"internalType": "uint256",
							"name": "tokens",
							"type": "uint256"
						}
					],
					"name": "Approval",
					"type": "event"
				},
				{
					"anonymous": false,
					"inputs": [
						{
							"indexed": true,
							"internalType": "address",
							"name": "from",
							"type": "address"
						},
						{
							"indexed": true,
							"internalType": "address",
							"name": "to",
							"type": "address"
						},
						{
							"indexed": false,
							"internalType": "uint256",
							"name": "tokens",
							"type": "uint256"
						}
					],
					"name": "Transfer",
					"type": "event"
				},
				{
					"inputs": [
						{
							"internalType": "address",
							"name": "tokenOwner",
							"type": "address"
						},
						{
							"internalType": "address",
							"name": "spender",
							"type": "address"
						}
					],
					"name": "allowance",
					"outputs": [
						{
							"internalType": "uint256",
							"name": "noOfTokens",
							"type": "uint256"
						}
					],
					"stateMutability": "view",
					"type": "function"
				},
				{
					"inputs": [
						{
							"internalType": "address",
							"name": "spender",
							"type": "address"
						},
						{
							"internalType": "uint256",
							"name": "tokens",
							"type": "uint256"
						}
					],
					"name": "approve",
					"outputs": [
						{
							"internalType": "bool",
							"name": "success",
							"type": "bool"
						}
					],
					"stateMutability": "nonpayable",
					"type": "function"
				},
				{
					"inputs": [
						{
							"internalType": "address",
							"name": "tokenOwner",
							"type": "address"
						}
					],
					"name": "balanceOf",
					"outputs": [
						{
							"internalType": "uint256",
							"name": "balance",
							"type": "uint256"
						}
					],
					"stateMutability": "view",
					"type": "function"
				},
				{
					"inputs": [
						{
							"internalType": "address",
							"name": "",
							"type": "address"
						}
					],
					"name": "balances",
					"outputs": [
						{
							"internalType": "uint256",
							"name": "",
							"type": "uint256"
						}
					],
					"stateMutability": "view",
					"type": "function"
				},
				{
					"inputs": [],
					"name": "decimal",
					"outputs": [
						{
							"internalType": "string",
							"name": "",
							"type": "string"
						}
					],
					"stateMutability": "view",
					"type": "function"
				},
				{
					"inputs": [],
					"name": "founder",
					"outputs": [
						{
							"internalType": "address",
							"name": "",
							"type": "address"
						}
					],
					"stateMutability": "view",
					"type": "function"
				},
				{
					"inputs": [],
					"name": "name",
					"outputs": [
						{
							"internalType": "string",
							"name": "",
							"type": "string"
						}
					],
					"stateMutability": "view",
					"type": "function"
				},
				{
					"inputs": [],
					"name": "totalSupply",
					"outputs": [
						{
							"internalType": "uint256",
							"name": "",
							"type": "uint256"
						}
					],
					"stateMutability": "view",
					"type": "function"
				},
				{
					"inputs": [
						{
							"internalType": "address",
							"name": "to",
							"type": "address"
						},
						{
							"internalType": "uint256",
							"name": "tokens",
							"type": "uint256"
						}
					],
					"name": "transfer",
					"outputs": [
						{
							"internalType": "bool",
							"name": "success",
							"type": "bool"
						}
					],
					"stateMutability": "nonpayable",
					"type": "function"
				},
				{
					"inputs": [
						{
							"internalType": "address",
							"name": "from",
							"type": "address"
						},
						{
							"internalType": "address",
							"name": "to",
							"type": "address"
						},
						{
							"internalType": "uint256",
							"name": "tokens",
							"type": "uint256"
						}
					],
					"name": "transferFrom",
					"outputs": [
						{
							"internalType": "bool",
							"name": "success",
							"type": "bool"
						}
					],
					"stateMutability": "nonpayable",
					"type": "function"
				}
			],
			"devdoc": {
				"kind": "dev",
				"methods": {},
				"version": 1
			},
			"evm": {
				"assembly": "    /* \"ico.sol\":673:2175  contract Block is ERC20Interface{ string public name=\"Block\";//name of the token string public symbol =\"BLK\";\r... */\n  mstore(0x40, 0x80)\n    /* \"ico.sol\":707:733  string public name=\"Block\" */\n  mload(0x40)\n  dup1\n  0x40\n  add\n  0x40\n  mstore\n  dup1\n  0x05\n  dup2\n  mstore\n  0x20\n  add\n  0x426c6f636b000000000000000000000000000000000000000000000000000000\n  dup2\n  mstore\n  pop\n  0x00\n  swap1\n  dup1\n  mload\n  swap1\n  0x20\n  add\n  swap1\n  tag_1\n  swap3\n  swap2\n  swap1\n  tag_2\n  jump\t// in\ntag_1:\n  pop\n    /* \"ico.sol\":786:811  string public decimal=\"0\" */\n  mload(0x40)\n  dup1\n  0x40\n  add\n  0x40\n  mstore\n  dup1\n  0x01\n  dup2\n  mstore\n  0x20\n  add\n  0x3000000000000000000000000000000000000000000000000000000000000000\n  dup2\n  mstore\n  pop\n  0x01\n  swap1\n  dup1\n  mload\n  swap1\n  0x20\n  add\n  swap1\n  tag_3\n  swap3\n  swap2\n  swap1\n  tag_2\n  jump\t// in\ntag_3:\n  pop\n    /* \"ico.sol\":968:1071  constructor(){\r... */\n  callvalue\n  dup1\n  iszero\n  tag_4\n  jumpi\n  0x00\n  dup1\n  revert\ntag_4:\n  pop\n    /* \"ico.sol\":1000:1006  100000 */\n  0x0186a0\n    /* \"ico.sol\":988:999  totalSupply */\n  0x02\n    /* \"ico.sol\":988:1006  totalSupply=100000 */\n  dup2\n  swap1\n  sstore\n  pop\n    /* \"ico.sol\":1021:1031  msg.sender */\n  caller\n    /* \"ico.sol\":1013:1020  founder */\n  0x03\n  0x00\n    /* \"ico.sol\":1013:1031  founder=msg.sender */\n  0x0100\n  exp\n  dup2\n  sload\n  dup2\n  0xffffffffffffffffffffffffffffffffffffffff\n  mul\n  not\n  and\n  swap1\n  dup4\n  0xffffffffffffffffffffffffffffffffffffffff\n  and\n  mul\n  or\n  swap1\n  sstore\n  pop\n    /* \"ico.sol\":1056:1067  totalSupply */\n  sload(0x02)\n    /* \"ico.sol\":1038:1046  balances */\n  0x04\n    /* \"ico.sol\":1038:1055  balances[founder] */\n  0x00\n    /* \"ico.sol\":1047:1054  founder */\n  0x03\n  0x00\n  swap1\n  sload\n  swap1\n  0x0100\n  exp\n  swap1\n  div\n  0xffffffffffffffffffffffffffffffffffffffff\n  and\n    /* \"ico.sol\":1038:1055  balances[founder] */\n  0xffffffffffffffffffffffffffffffffffffffff\n  and\n  0xffffffffffffffffffffffffffffffffffffffff\n  and\n  dup2\n  mstore\n  0x20\n  add\n  swap1\n  dup2\n  mstore\n  0x20\n  add\n  0x00\n  keccak256\n    /* \"ico.sol\":1038:1067  balances[founder]=totalSupply */\n  dup2\n  swap1\n  sstore\n  pop\n    /* \"ico.sol\":673:2175  contract Block is ERC20Interface{ string public name=\"Block\";//name of the token string public symbol =\"BLK\";\r... */\n  jump(tag_7)\ntag_2:\n  dup3\n  dup1\n  sload\n  tag_8\n  swap1\n  tag_9\n  jump\t// in\ntag_8:\n  swap1\n  0x00\n  mstore\n  keccak256(0x00, 0x20)\n  swap1\n  0x1f\n  add\n  0x20\n  swap1\n  div\n  dup2\n  add\n  swap3\n  dup3\n  tag_11\n  jumpi\n  0x00\n  dup6\n  sstore\n  jump(tag_10)\ntag_11:\n  dup3\n  0x1f\n  lt\n  tag_12\n  jumpi\n  dup1\n  mload\n  not(0xff)\n  and\n  dup4\n  dup1\n  add\n  or\n  dup6\n  sstore\n  jump(tag_10)\ntag_12:\n  dup3\n  dup1\n  add\n  0x01\n  add\n  dup6\n  sstore\n  dup3\n  iszero\n  tag_10\n  jumpi\n  swap2\n  dup3\n  add\ntag_13:\n  dup3\n  dup2\n  gt\n  iszero\n  tag_14\n  jumpi\n  dup3\n  mload\n  dup3\n  sstore\n  swap2\n  0x20\n  add\n  swap2\n  swap1\n  0x01\n  add\n  swap1\n  jump(tag_13)\ntag_14:\ntag_10:\n  pop\n  swap1\n  pop\n  tag_15\n  swap2\n  swap1\n  tag_16\n  jump\t// in\ntag_15:\n  pop\n  swap1\n  jump\t// out\ntag_16:\ntag_17:\n  dup1\n  dup3\n  gt\n  iszero\n  tag_18\n  jumpi\n  0x00\n  dup2\n  0x00\n  swap1\n  sstore\n  pop\n  0x01\n  add\n  jump(tag_17)\ntag_18:\n  pop\n  swap1\n  jump\t// out\n    /* \"#utility.yul\":7:327   */\ntag_9:\n    /* \"#utility.yul\":51:57   */\n  0x00\n    /* \"#utility.yul\":88:89   */\n  0x02\n    /* \"#utility.yul\":82:86   */\n  dup3\n    /* \"#utility.yul\":78:90   */\n  div\n    /* \"#utility.yul\":68:90   */\n  swap1\n  pop\n    /* \"#utility.yul\":135:136   */\n  0x01\n    /* \"#utility.yul\":129:133   */\n  dup3\n    /* \"#utility.yul\":125:137   */\n  and\n    /* \"#utility.yul\":156:174   */\n  dup1\n    /* \"#utility.yul\":146:227   */\n  tag_21\n  jumpi\n    /* \"#utility.yul\":212:216   */\n  0x7f\n    /* \"#utility.yul\":204:210   */\n  dup3\n    /* \"#utility.yul\":200:217   */\n  and\n    /* \"#utility.yul\":190:217   */\n  swap2\n  pop\n    /* \"#utility.yul\":146:227   */\ntag_21:\n    /* \"#utility.yul\":274:276   */\n  0x20\n    /* \"#utility.yul\":266:272   */\n  dup3\n    /* \"#utility.yul\":263:277   */\n  lt\n    /* \"#utility.yul\":243:261   */\n  dup2\n    /* \"#utility.yul\":240:278   */\n  eq\n    /* \"#utility.yul\":237:321   */\n  iszero\n  tag_22\n  jumpi\n    /* \"#utility.yul\":293:311   */\n  tag_23\n  tag_24\n  jump\t// in\ntag_23:\n    /* \"#utility.yul\":237:321   */\ntag_22:\n    /* \"#utility.yul\":58:327   */\n  pop\n    /* \"#utility.yul\":7:327   */\n  swap2\n  swap1\n  pop\n  jump\t// out\n    /* \"#utility.yul\":333:513   */\ntag_24:\n    /* \"#utility.yul\":381:458   */\n  0x4e487b7100000000000000000000000000000000000000000000000000000000\n    /* \"#utility.yul\":378:379   */\n  0x00\n    /* \"#utility.yul\":371:459   */\n  mstore\n    /* \"#utility.yul\":478:482   */\n  0x22\n    /* \"#utility.yul\":475:476   */\n  0x04\n    /* \"#utility.yul\":468:483   */\n  mstore\n    /* \"#utility.yul\":502:506   */\n  0x24\n    /* \"#utility.yul\":499:500   */\n  0x00\n    /* \"#utility.yul\":492:507   */\n  revert\n    /* \"ico.sol\":673:2175  contract Block is ERC20Interface{ string public name=\"Block\";//name of the token string public symbol =\"BLK\";\r... */\ntag_7:\n  dataSize(sub_0)\n  dup1\n  dataOffset(sub_0)\n  0x00\n  codecopy\n  0x00\n  return\nstop\n\nsub_0: assembly {\n        /* \"ico.sol\":673:2175  contract Block is ERC20Interface{ string public name=\"Block\";//name of the token string public symbol =\"BLK\";\r... */\n      mstore(0x40, 0x80)\n      callvalue\n      dup1\n      iszero\n      tag_1\n      jumpi\n      0x00\n      dup1\n      revert\n    tag_1:\n      pop\n      jumpi(tag_2, lt(calldatasize, 0x04))\n      shr(0xe0, calldataload(0x00))\n      dup1\n      0x4d853ee5\n      gt\n      tag_13\n      jumpi\n      dup1\n      0x4d853ee5\n      eq\n      tag_8\n      jumpi\n      dup1\n      0x70a08231\n      eq\n      tag_9\n      jumpi\n      dup1\n      0x76809ce3\n      eq\n      tag_10\n      jumpi\n      dup1\n      0xa9059cbb\n      eq\n      tag_11\n      jumpi\n      dup1\n      0xdd62ed3e\n      eq\n      tag_12\n      jumpi\n      jump(tag_2)\n    tag_13:\n      dup1\n      0x06fdde03\n      eq\n      tag_3\n      jumpi\n      dup1\n      0x095ea7b3\n      eq\n      tag_4\n      jumpi\n      dup1\n      0x18160ddd\n      eq\n      tag_5\n      jumpi\n      dup1\n      0x23b872dd\n      eq\n      tag_6\n      jumpi\n      dup1\n      0x27e235e3\n      eq\n      tag_7\n      jumpi\n    tag_2:\n      0x00\n      dup1\n      revert\n        /* \"ico.sol\":707:733  string public name=\"Block\" */\n    tag_3:\n      tag_14\n      tag_15\n      jump\t// in\n    tag_14:\n      mload(0x40)\n      tag_16\n      swap2\n      swap1\n      tag_17\n      jump\t// in\n    tag_16:\n      mload(0x40)\n      dup1\n      swap2\n      sub\n      swap1\n      return\n        /* \"ico.sol\":1495:1757  function approve(address spender,uint tokens) public override returns(bool success){\r... */\n    tag_4:\n      tag_18\n      0x04\n      dup1\n      calldatasize\n      sub\n      dup2\n      add\n      swap1\n      tag_19\n      swap2\n      swap1\n      tag_20\n      jump\t// in\n    tag_19:\n      tag_21\n      jump\t// in\n    tag_18:\n      mload(0x40)\n      tag_22\n      swap2\n      swap1\n      tag_23\n      jump\t// in\n    tag_22:\n      mload(0x40)\n      dup1\n      swap2\n      sub\n      swap1\n      return\n        /* \"ico.sol\":814:846  uint public override totalSupply */\n    tag_5:\n      tag_24\n      tag_25\n      jump\t// in\n    tag_24:\n      mload(0x40)\n      tag_26\n      swap2\n      swap1\n      tag_27\n      jump\t// in\n    tag_26:\n      mload(0x40)\n      dup1\n      swap2\n      sub\n      swap1\n      return\n        /* \"ico.sol\":1911:2172  function transferFrom(address from,address to,uint tokens) public override virtual returns(bool success){\r... */\n    tag_6:\n      tag_28\n      0x04\n      dup1\n      calldatasize\n      sub\n      dup2\n      add\n      swap1\n      tag_29\n      swap2\n      swap1\n      tag_30\n      jump\t// in\n    tag_29:\n      tag_31\n      jump\t// in\n    tag_28:\n      mload(0x40)\n      tag_32\n      swap2\n      swap1\n      tag_23\n      jump\t// in\n    tag_32:\n      mload(0x40)\n      dup1\n      swap2\n      sub\n      swap1\n      return\n        /* \"ico.sol\":874:912  mapping(address=>uint) public balances */\n    tag_7:\n      tag_33\n      0x04\n      dup1\n      calldatasize\n      sub\n      dup2\n      add\n      swap1\n      tag_34\n      swap2\n      swap1\n      tag_35\n      jump\t// in\n    tag_34:\n      tag_36\n      jump\t// in\n    tag_33:\n      mload(0x40)\n      tag_37\n      swap2\n      swap1\n      tag_27\n      jump\t// in\n    tag_37:\n      mload(0x40)\n      dup1\n      swap2\n      sub\n      swap1\n      return\n        /* \"ico.sol\":849:871  address public founder */\n    tag_8:\n      tag_38\n      tag_39\n      jump\t// in\n    tag_38:\n      mload(0x40)\n      tag_40\n      swap2\n      swap1\n      tag_41\n      jump\t// in\n    tag_40:\n      mload(0x40)\n      dup1\n      swap2\n      sub\n      swap1\n      return\n        /* \"ico.sol\":1075:1194  function balanceOf(address tokenOwner) public view override returns(uint balance){\r... */\n    tag_9:\n      tag_42\n      0x04\n      dup1\n      calldatasize\n      sub\n      dup2\n      add\n      swap1\n      tag_43\n      swap2\n      swap1\n      tag_35\n      jump\t// in\n    tag_43:\n      tag_44\n      jump\t// in\n    tag_42:\n      mload(0x40)\n      tag_45\n      swap2\n      swap1\n      tag_27\n      jump\t// in\n    tag_45:\n      mload(0x40)\n      dup1\n      swap2\n      sub\n      swap1\n      return\n        /* \"ico.sol\":786:811  string public decimal=\"0\" */\n    tag_10:\n      tag_46\n      tag_47\n      jump\t// in\n    tag_46:\n      mload(0x40)\n      tag_48\n      swap2\n      swap1\n      tag_17\n      jump\t// in\n    tag_48:\n      mload(0x40)\n      dup1\n      swap2\n      sub\n      swap1\n      return\n        /* \"ico.sol\":1198:1491  function transfer(address to,uint tokens) public override virtual returns(bool success){\r... */\n    tag_11:\n      tag_49\n      0x04\n      dup1\n      calldatasize\n      sub\n      dup2\n      add\n      swap1\n      tag_50\n      swap2\n      swap1\n      tag_20\n      jump\t// in\n    tag_50:\n      tag_51\n      jump\t// in\n    tag_49:\n      mload(0x40)\n      tag_52\n      swap2\n      swap1\n      tag_23\n      jump\t// in\n    tag_52:\n      mload(0x40)\n      dup1\n      swap2\n      sub\n      swap1\n      return\n        /* \"ico.sol\":1761:1907  function allowance(address tokenOwner,address spender) public view override returns(uint noOfTokens){\r... */\n    tag_12:\n      tag_53\n      0x04\n      dup1\n      calldatasize\n      sub\n      dup2\n      add\n      swap1\n      tag_54\n      swap2\n      swap1\n      tag_55\n      jump\t// in\n    tag_54:\n      tag_56\n      jump\t// in\n    tag_53:\n      mload(0x40)\n      tag_57\n      swap2\n      swap1\n      tag_27\n      jump\t// in\n    tag_57:\n      mload(0x40)\n      dup1\n      swap2\n      sub\n      swap1\n      return\n        /* \"ico.sol\":707:733  string public name=\"Block\" */\n    tag_15:\n      0x00\n      dup1\n      sload\n      tag_58\n      swap1\n      tag_59\n      jump\t// in\n    tag_58:\n      dup1\n      0x1f\n      add\n      0x20\n      dup1\n      swap2\n      div\n      mul\n      0x20\n      add\n      mload(0x40)\n      swap1\n      dup2\n      add\n      0x40\n      mstore\n      dup1\n      swap3\n      swap2\n      swap1\n      dup2\n      dup2\n      mstore\n      0x20\n      add\n      dup3\n      dup1\n      sload\n      tag_60\n      swap1\n      tag_59\n      jump\t// in\n    tag_60:\n      dup1\n      iszero\n      tag_61\n      jumpi\n      dup1\n      0x1f\n      lt\n      tag_62\n      jumpi\n      0x0100\n      dup1\n      dup4\n      sload\n      div\n      mul\n      dup4\n      mstore\n      swap2\n      0x20\n      add\n      swap2\n      jump(tag_61)\n    tag_62:\n      dup3\n      add\n      swap2\n      swap1\n      0x00\n      mstore\n      keccak256(0x00, 0x20)\n      swap1\n    tag_63:\n      dup2\n      sload\n      dup2\n      mstore\n      swap1\n      0x01\n      add\n      swap1\n      0x20\n      add\n      dup1\n      dup4\n      gt\n      tag_63\n      jumpi\n      dup3\n      swap1\n      sub\n      0x1f\n      and\n      dup3\n      add\n      swap2\n    tag_61:\n      pop\n      pop\n      pop\n      pop\n      pop\n      dup2\n      jump\t// out\n        /* \"ico.sol\":1495:1757  function approve(address spender,uint tokens) public override returns(bool success){\r... */\n    tag_21:\n        /* \"ico.sol\":1565:1577  bool success */\n      0x00\n        /* \"ico.sol\":1615:1621  tokens */\n      dup2\n        /* \"ico.sol\":1593:1601  balances */\n      0x04\n        /* \"ico.sol\":1593:1613  balances[msg.sender] */\n      0x00\n        /* \"ico.sol\":1602:1612  msg.sender */\n      caller\n        /* \"ico.sol\":1593:1613  balances[msg.sender] */\n      0xffffffffffffffffffffffffffffffffffffffff\n      and\n      0xffffffffffffffffffffffffffffffffffffffff\n      and\n      dup2\n      mstore\n      0x20\n      add\n      swap1\n      dup2\n      mstore\n      0x20\n      add\n      0x00\n      keccak256\n      sload\n        /* \"ico.sol\":1593:1621  balances[msg.sender]>=tokens */\n      lt\n      iszero\n        /* \"ico.sol\":1585:1622  require(balances[msg.sender]>=tokens) */\n      tag_65\n      jumpi\n      0x00\n      dup1\n      revert\n    tag_65:\n        /* \"ico.sol\":1644:1645  0 */\n      0x00\n        /* \"ico.sol\":1637:1643  tokens */\n      dup3\n        /* \"ico.sol\":1637:1645  tokens>0 */\n      gt\n        /* \"ico.sol\":1629:1646  require(tokens>0) */\n      tag_66\n      jumpi\n      0x00\n      dup1\n      revert\n    tag_66:\n        /* \"ico.sol\":1682:1688  tokens */\n      dup2\n        /* \"ico.sol\":1653:1660  allowed */\n      0x05\n        /* \"ico.sol\":1653:1672  allowed[msg.sender] */\n      0x00\n        /* \"ico.sol\":1661:1671  msg.sender */\n      caller\n        /* \"ico.sol\":1653:1672  allowed[msg.sender] */\n      0xffffffffffffffffffffffffffffffffffffffff\n      and\n      0xffffffffffffffffffffffffffffffffffffffff\n      and\n      dup2\n      mstore\n      0x20\n      add\n      swap1\n      dup2\n      mstore\n      0x20\n      add\n      0x00\n      keccak256\n        /* \"ico.sol\":1653:1681  allowed[msg.sender][spender] */\n      0x00\n        /* \"ico.sol\":1673:1680  spender */\n      dup6\n        /* \"ico.sol\":1653:1681  allowed[msg.sender][spender] */\n      0xffffffffffffffffffffffffffffffffffffffff\n      and\n      0xffffffffffffffffffffffffffffffffffffffff\n      and\n      dup2\n      mstore\n      0x20\n      add\n      swap1\n      dup2\n      mstore\n      0x20\n      add\n      0x00\n      keccak256\n        /* \"ico.sol\":1653:1688  allowed[msg.sender][spender]=tokens */\n      dup2\n      swap1\n      sstore\n      pop\n        /* \"ico.sol\":1720:1727  spender */\n      dup3\n        /* \"ico.sol\":1700:1735  Approval(msg.sender,spender,tokens) */\n      0xffffffffffffffffffffffffffffffffffffffff\n      and\n        /* \"ico.sol\":1709:1719  msg.sender */\n      caller\n        /* \"ico.sol\":1700:1735  Approval(msg.sender,spender,tokens) */\n      0xffffffffffffffffffffffffffffffffffffffff\n      and\n      0x8c5be1e5ebec7d5bd14f71427d1e84f3dd0314c0f7b2291e5b200ac8c7c3b925\n        /* \"ico.sol\":1728:1734  tokens */\n      dup5\n        /* \"ico.sol\":1700:1735  Approval(msg.sender,spender,tokens) */\n      mload(0x40)\n      tag_67\n      swap2\n      swap1\n      tag_27\n      jump\t// in\n    tag_67:\n      mload(0x40)\n      dup1\n      swap2\n      sub\n      swap1\n      log3\n        /* \"ico.sol\":1749:1753  true */\n      0x01\n        /* \"ico.sol\":1742:1753  return true */\n      swap1\n      pop\n        /* \"ico.sol\":1495:1757  function approve(address spender,uint tokens) public override returns(bool success){\r... */\n      swap3\n      swap2\n      pop\n      pop\n      jump\t// out\n        /* \"ico.sol\":814:846  uint public override totalSupply */\n    tag_25:\n      sload(0x02)\n      dup2\n      jump\t// out\n        /* \"ico.sol\":1911:2172  function transferFrom(address from,address to,uint tokens) public override virtual returns(bool success){\r... */\n    tag_31:\n        /* \"ico.sol\":2002:2014  bool success */\n      0x00\n        /* \"ico.sol\":2049:2055  tokens */\n      dup2\n        /* \"ico.sol\":2030:2037  allowed */\n      0x05\n        /* \"ico.sol\":2030:2043  allowed[from] */\n      0x00\n        /* \"ico.sol\":2038:2042  from */\n      dup7\n        /* \"ico.sol\":2030:2043  allowed[from] */\n      0xffffffffffffffffffffffffffffffffffffffff\n      and\n      0xffffffffffffffffffffffffffffffffffffffff\n      and\n      dup2\n      mstore\n      0x20\n      add\n      swap1\n      dup2\n      mstore\n      0x20\n      add\n      0x00\n      keccak256\n        /* \"ico.sol\":2030:2047  allowed[from][to] */\n      0x00\n        /* \"ico.sol\":2044:2046  to */\n      dup6\n        /* \"ico.sol\":2030:2047  allowed[from][to] */\n      0xffffffffffffffffffffffffffffffffffffffff\n      and\n      0xffffffffffffffffffffffffffffffffffffffff\n      and\n      dup2\n      mstore\n      0x20\n      add\n      swap1\n      dup2\n      mstore\n      0x20\n      add\n      0x00\n      keccak256\n      sload\n        /* \"ico.sol\":2030:2055  allowed[from][to]>=tokens */\n      lt\n      iszero\n        /* \"ico.sol\":2022:2056  require(allowed[from][to]>=tokens) */\n      tag_69\n      jumpi\n      0x00\n      dup1\n      revert\n    tag_69:\n        /* \"ico.sol\":2087:2093  tokens */\n      dup2\n        /* \"ico.sol\":2071:2079  balances */\n      0x04\n        /* \"ico.sol\":2071:2085  balances[from] */\n      0x00\n        /* \"ico.sol\":2080:2084  from */\n      dup7\n        /* \"ico.sol\":2071:2085  balances[from] */\n      0xffffffffffffffffffffffffffffffffffffffff\n      and\n      0xffffffffffffffffffffffffffffffffffffffff\n      and\n      dup2\n      mstore\n      0x20\n      add\n      swap1\n      dup2\n      mstore\n      0x20\n      add\n      0x00\n      keccak256\n      sload\n        /* \"ico.sol\":2071:2093  balances[from]>=tokens */\n      lt\n      iszero\n        /* \"ico.sol\":2063:2094  require(balances[from]>=tokens) */\n      tag_70\n      jumpi\n      0x00\n      dup1\n      revert\n    tag_70:\n        /* \"ico.sol\":2117:2123  tokens */\n      dup2\n        /* \"ico.sol\":2101:2109  balances */\n      0x04\n        /* \"ico.sol\":2101:2115  balances[from] */\n      0x00\n        /* \"ico.sol\":2110:2114  from */\n      dup7\n        /* \"ico.sol\":2101:2115  balances[from] */\n      0xffffffffffffffffffffffffffffffffffffffff\n      and\n      0xffffffffffffffffffffffffffffffffffffffff\n      and\n      dup2\n      mstore\n      0x20\n      add\n      swap1\n      dup2\n      mstore\n      0x20\n      add\n      0x00\n      keccak256\n      0x00\n        /* \"ico.sol\":2101:2123  balances[from]-=tokens */\n      dup3\n      dup3\n      sload\n      tag_71\n      swap2\n      swap1\n      tag_72\n      jump\t// in\n    tag_71:\n      swap3\n      pop\n      pop\n      dup2\n      swap1\n      sstore\n      pop\n        /* \"ico.sol\":2144:2150  tokens */\n      dup2\n        /* \"ico.sol\":2130:2138  balances */\n      0x04\n        /* \"ico.sol\":2130:2142  balances[to] */\n      0x00\n        /* \"ico.sol\":2139:2141  to */\n      dup6\n        /* \"ico.sol\":2130:2142  balances[to] */\n      0xffffffffffffffffffffffffffffffffffffffff\n      and\n      0xffffffffffffffffffffffffffffffffffffffff\n      and\n      dup2\n      mstore\n      0x20\n      add\n      swap1\n      dup2\n      mstore\n      0x20\n      add\n      0x00\n      keccak256\n      0x00\n        /* \"ico.sol\":2130:2150  balances[to]+=tokens */\n      dup3\n      dup3\n      sload\n      tag_73\n      swap2\n      swap1\n      tag_74\n      jump\t// in\n    tag_73:\n      swap3\n      pop\n      pop\n      dup2\n      swap1\n      sstore\n      pop\n        /* \"ico.sol\":2164:2168  true */\n      0x01\n        /* \"ico.sol\":2157:2168  return true */\n      swap1\n      pop\n        /* \"ico.sol\":1911:2172  function transferFrom(address from,address to,uint tokens) public override virtual returns(bool success){\r... */\n      swap4\n      swap3\n      pop\n      pop\n      pop\n      jump\t// out\n        /* \"ico.sol\":874:912  mapping(address=>uint) public balances */\n    tag_36:\n      mstore(0x20, 0x04)\n      dup1\n      0x00\n      mstore\n      keccak256(0x00, 0x40)\n      0x00\n      swap2\n      pop\n      swap1\n      pop\n      sload\n      dup2\n      jump\t// out\n        /* \"ico.sol\":849:871  address public founder */\n    tag_39:\n      0x03\n      0x00\n      swap1\n      sload\n      swap1\n      0x0100\n      exp\n      swap1\n      div\n      0xffffffffffffffffffffffffffffffffffffffff\n      and\n      dup2\n      jump\t// out\n        /* \"ico.sol\":1075:1194  function balanceOf(address tokenOwner) public view override returns(uint balance){\r... */\n    tag_44:\n        /* \"ico.sol\":1143:1155  uint balance */\n      0x00\n        /* \"ico.sol\":1170:1178  balances */\n      0x04\n        /* \"ico.sol\":1170:1190  balances[tokenOwner] */\n      0x00\n        /* \"ico.sol\":1179:1189  tokenOwner */\n      dup4\n        /* \"ico.sol\":1170:1190  balances[tokenOwner] */\n      0xffffffffffffffffffffffffffffffffffffffff\n      and\n      0xffffffffffffffffffffffffffffffffffffffff\n      and\n      dup2\n      mstore\n      0x20\n      add\n      swap1\n      dup2\n      mstore\n      0x20\n      add\n      0x00\n      keccak256\n      sload\n        /* \"ico.sol\":1163:1190  return balances[tokenOwner] */\n      swap1\n      pop\n        /* \"ico.sol\":1075:1194  function balanceOf(address tokenOwner) public view override returns(uint balance){\r... */\n      swap2\n      swap1\n      pop\n      jump\t// out\n        /* \"ico.sol\":786:811  string public decimal=\"0\" */\n    tag_47:\n      0x01\n      dup1\n      sload\n      tag_76\n      swap1\n      tag_59\n      jump\t// in\n    tag_76:\n      dup1\n      0x1f\n      add\n      0x20\n      dup1\n      swap2\n      div\n      mul\n      0x20\n      add\n      mload(0x40)\n      swap1\n      dup2\n      add\n      0x40\n      mstore\n      dup1\n      swap3\n      swap2\n      swap1\n      dup2\n      dup2\n      mstore\n      0x20\n      add\n      dup3\n      dup1\n      sload\n      tag_77\n      swap1\n      tag_59\n      jump\t// in\n    tag_77:\n      dup1\n      iszero\n      tag_78\n      jumpi\n      dup1\n      0x1f\n      lt\n      tag_79\n      jumpi\n      0x0100\n      dup1\n      dup4\n      sload\n      div\n      mul\n      dup4\n      mstore\n      swap2\n      0x20\n      add\n      swap2\n      jump(tag_78)\n    tag_79:\n      dup3\n      add\n      swap2\n      swap1\n      0x00\n      mstore\n      keccak256(0x00, 0x20)\n      swap1\n    tag_80:\n      dup2\n      sload\n      dup2\n      mstore\n      swap1\n      0x01\n      add\n      swap1\n      0x20\n      add\n      dup1\n      dup4\n      gt\n      tag_80\n      jumpi\n      dup3\n      swap1\n      sub\n      0x1f\n      and\n      dup3\n      add\n      swap2\n    tag_78:\n      pop\n      pop\n      pop\n      pop\n      pop\n      dup2\n      jump\t// out\n        /* \"ico.sol\":1198:1491  function transfer(address to,uint tokens) public override virtual returns(bool success){\r... */\n    tag_51:\n        /* \"ico.sol\":1272:1284  bool success */\n      0x00\n        /* \"ico.sol\":1322:1328  tokens */\n      dup2\n        /* \"ico.sol\":1300:1308  balances */\n      0x04\n        /* \"ico.sol\":1300:1320  balances[msg.sender] */\n      0x00\n        /* \"ico.sol\":1309:1319  msg.sender */\n      caller\n        /* \"ico.sol\":1300:1320  balances[msg.sender] */\n      0xffffffffffffffffffffffffffffffffffffffff\n      and\n      0xffffffffffffffffffffffffffffffffffffffff\n      and\n      dup2\n      mstore\n      0x20\n      add\n      swap1\n      dup2\n      mstore\n      0x20\n      add\n      0x00\n      keccak256\n      sload\n        /* \"ico.sol\":1300:1328  balances[msg.sender]>=tokens */\n      lt\n      iszero\n        /* \"ico.sol\":1292:1329  require(balances[msg.sender]>=tokens) */\n      tag_82\n      jumpi\n      0x00\n      dup1\n      revert\n    tag_82:\n        /* \"ico.sol\":1350:1356  tokens */\n      dup2\n        /* \"ico.sol\":1336:1344  balances */\n      0x04\n        /* \"ico.sol\":1336:1348  balances[to] */\n      0x00\n        /* \"ico.sol\":1345:1347  to */\n      dup6\n        /* \"ico.sol\":1336:1348  balances[to] */\n      0xffffffffffffffffffffffffffffffffffffffff\n      and\n      0xffffffffffffffffffffffffffffffffffffffff\n      and\n      dup2\n      mstore\n      0x20\n      add\n      swap1\n      dup2\n      mstore\n      0x20\n      add\n      0x00\n      keccak256\n      0x00\n        /* \"ico.sol\":1336:1356  balances[to]+=tokens */\n      dup3\n      dup3\n      sload\n      tag_83\n      swap2\n      swap1\n      tag_74\n      jump\t// in\n    tag_83:\n      swap3\n      pop\n      pop\n      dup2\n      swap1\n      sstore\n      pop\n        /* \"ico.sol\":1421:1427  tokens */\n      dup2\n        /* \"ico.sol\":1399:1407  balances */\n      0x04\n        /* \"ico.sol\":1399:1419  balances[msg.sender] */\n      0x00\n        /* \"ico.sol\":1408:1418  msg.sender */\n      caller\n        /* \"ico.sol\":1399:1419  balances[msg.sender] */\n      0xffffffffffffffffffffffffffffffffffffffff\n      and\n      0xffffffffffffffffffffffffffffffffffffffff\n      and\n      dup2\n      mstore\n      0x20\n      add\n      swap1\n      dup2\n      mstore\n      0x20\n      add\n      0x00\n      keccak256\n      0x00\n        /* \"ico.sol\":1399:1427  balances[msg.sender]-=tokens */\n      dup3\n      dup3\n      sload\n      tag_84\n      swap2\n      swap1\n      tag_72\n      jump\t// in\n    tag_84:\n      swap3\n      pop\n      pop\n      dup2\n      swap1\n      sstore\n      pop\n        /* \"ico.sol\":1459:1461  to */\n      dup3\n        /* \"ico.sol\":1439:1469  Transfer(msg.sender,to,tokens) */\n      0xffffffffffffffffffffffffffffffffffffffff\n      and\n        /* \"ico.sol\":1448:1458  msg.sender */\n      caller\n        /* \"ico.sol\":1439:1469  Transfer(msg.sender,to,tokens) */\n      0xffffffffffffffffffffffffffffffffffffffff\n      and\n      0xddf252ad1be2c89b69c2b068fc378daa952ba7f163c4a11628f55a4df523b3ef\n        /* \"ico.sol\":1462:1468  tokens */\n      dup5\n        /* \"ico.sol\":1439:1469  Transfer(msg.sender,to,tokens) */\n      mload(0x40)\n      tag_85\n      swap2\n      swap1\n      tag_27\n      jump\t// in\n    tag_85:\n      mload(0x40)\n      dup1\n      swap2\n      sub\n      swap1\n      log3\n        /* \"ico.sol\":1483:1487  true */\n      0x01\n        /* \"ico.sol\":1476:1487  return true */\n      swap1\n      pop\n        /* \"ico.sol\":1198:1491  function transfer(address to,uint tokens) public override virtual returns(bool success){\r... */\n      swap3\n      swap2\n      pop\n      pop\n      jump\t// out\n        /* \"ico.sol\":1761:1907  function allowance(address tokenOwner,address spender) public view override returns(uint noOfTokens){\r... */\n    tag_56:\n        /* \"ico.sol\":1845:1860  uint noOfTokens */\n      0x00\n        /* \"ico.sol\":1875:1882  allowed */\n      0x05\n        /* \"ico.sol\":1875:1894  allowed[tokenOwner] */\n      0x00\n        /* \"ico.sol\":1883:1893  tokenOwner */\n      dup5\n        /* \"ico.sol\":1875:1894  allowed[tokenOwner] */\n      0xffffffffffffffffffffffffffffffffffffffff\n      and\n      0xffffffffffffffffffffffffffffffffffffffff\n      and\n      dup2\n      mstore\n      0x20\n      add\n      swap1\n      dup2\n      mstore\n      0x20\n      add\n      0x00\n      keccak256\n        /* \"ico.sol\":1875:1903  allowed[tokenOwner][spender] */\n      0x00\n        /* \"ico.sol\":1895:1902  spender */\n      dup4\n        /* \"ico.sol\":1875:1903  allowed[tokenOwner][spender] */\n      0xffffffffffffffffffffffffffffffffffffffff\n      and\n      0xffffffffffffffffffffffffffffffffffffffff\n      and\n      dup2\n      mstore\n      0x20\n      add\n      swap1\n      dup2\n      mstore\n      0x20\n      add\n      0x00\n      keccak256\n      sload\n        /* \"ico.sol\":1868:1903  return allowed[tokenOwner][spender] */\n      swap1\n      pop\n        /* \"ico.sol\":1761:1907  function allowance(address tokenOwner,address spender) public view override returns(uint noOfTokens){\r... */\n      swap3\n      swap2\n      pop\n      pop\n      jump\t// out\n        /* \"#utility.yul\":7:146   */\n    tag_88:\n        /* \"#utility.yul\":53:58   */\n      0x00\n        /* \"#utility.yul\":91:97   */\n      dup2\n        /* \"#utility.yul\":78:98   */\n      calldataload\n        /* \"#utility.yul\":69:98   */\n      swap1\n      pop\n        /* \"#utility.yul\":107:140   */\n      tag_90\n        /* \"#utility.yul\":134:139   */\n      dup2\n        /* \"#utility.yul\":107:140   */\n      tag_91\n      jump\t// in\n    tag_90:\n        /* \"#utility.yul\":7:146   */\n      swap3\n      swap2\n      pop\n      pop\n      jump\t// out\n        /* \"#utility.yul\":152:291   */\n    tag_92:\n        /* \"#utility.yul\":198:203   */\n      0x00\n        /* \"#utility.yul\":236:242   */\n      dup2\n        /* \"#utility.yul\":223:243   */\n      calldataload\n        /* \"#utility.yul\":214:243   */\n      swap1\n      pop\n        /* \"#utility.yul\":252:285   */\n      tag_94\n        /* \"#utility.yul\":279:284   */\n      dup2\n        /* \"#utility.yul\":252:285   */\n      tag_95\n      jump\t// in\n    tag_94:\n        /* \"#utility.yul\":152:291   */\n      swap3\n      swap2\n      pop\n      pop\n      jump\t// out\n        /* \"#utility.yul\":297:626   */\n    tag_35:\n        /* \"#utility.yul\":356:362   */\n      0x00\n        /* \"#utility.yul\":405:407   */\n      0x20\n        /* \"#utility.yul\":393:402   */\n      dup3\n        /* \"#utility.yul\":384:391   */\n      dup5\n        /* \"#utility.yul\":380:403   */\n      sub\n        /* \"#utility.yul\":376:408   */\n      slt\n        /* \"#utility.yul\":373:492   */\n      iszero\n      tag_97\n      jumpi\n        /* \"#utility.yul\":411:490   */\n      tag_98\n      tag_99\n      jump\t// in\n    tag_98:\n        /* \"#utility.yul\":373:492   */\n    tag_97:\n        /* \"#utility.yul\":531:532   */\n      0x00\n        /* \"#utility.yul\":556:609   */\n      tag_100\n        /* \"#utility.yul\":601:608   */\n      dup5\n        /* \"#utility.yul\":592:598   */\n      dup3\n        /* \"#utility.yul\":581:590   */\n      dup6\n        /* \"#utility.yul\":577:599   */\n      add\n        /* \"#utility.yul\":556:609   */\n      tag_88\n      jump\t// in\n    tag_100:\n        /* \"#utility.yul\":546:609   */\n      swap2\n      pop\n        /* \"#utility.yul\":502:619   */\n      pop\n        /* \"#utility.yul\":297:626   */\n      swap3\n      swap2\n      pop\n      pop\n      jump\t// out\n        /* \"#utility.yul\":632:1106   */\n    tag_55:\n        /* \"#utility.yul\":700:706   */\n      0x00\n        /* \"#utility.yul\":708:714   */\n      dup1\n        /* \"#utility.yul\":757:759   */\n      0x40\n        /* \"#utility.yul\":745:754   */\n      dup4\n        /* \"#utility.yul\":736:743   */\n      dup6\n        /* \"#utility.yul\":732:755   */\n      sub\n        /* \"#utility.yul\":728:760   */\n      slt\n        /* \"#utility.yul\":725:844   */\n      iszero\n      tag_102\n      jumpi\n        /* \"#utility.yul\":763:842   */\n      tag_103\n      tag_99\n      jump\t// in\n    tag_103:\n        /* \"#utility.yul\":725:844   */\n    tag_102:\n        /* \"#utility.yul\":883:884   */\n      0x00\n        /* \"#utility.yul\":908:961   */\n      tag_104\n        /* \"#utility.yul\":953:960   */\n      dup6\n        /* \"#utility.yul\":944:950   */\n      dup3\n        /* \"#utility.yul\":933:942   */\n      dup7\n        /* \"#utility.yul\":929:951   */\n      add\n        /* \"#utility.yul\":908:961   */\n      tag_88\n      jump\t// in\n    tag_104:\n        /* \"#utility.yul\":898:961   */\n      swap3\n      pop\n        /* \"#utility.yul\":854:971   */\n      pop\n        /* \"#utility.yul\":1010:1012   */\n      0x20\n        /* \"#utility.yul\":1036:1089   */\n      tag_105\n        /* \"#utility.yul\":1081:1088   */\n      dup6\n        /* \"#utility.yul\":1072:1078   */\n      dup3\n        /* \"#utility.yul\":1061:1070   */\n      dup7\n        /* \"#utility.yul\":1057:1079   */\n      add\n        /* \"#utility.yul\":1036:1089   */\n      tag_88\n      jump\t// in\n    tag_105:\n        /* \"#utility.yul\":1026:1089   */\n      swap2\n      pop\n        /* \"#utility.yul\":981:1099   */\n      pop\n        /* \"#utility.yul\":632:1106   */\n      swap3\n      pop\n      swap3\n      swap1\n      pop\n      jump\t// out\n        /* \"#utility.yul\":1112:1731   */\n    tag_30:\n        /* \"#utility.yul\":1189:1195   */\n      0x00\n        /* \"#utility.yul\":1197:1203   */\n      dup1\n        /* \"#utility.yul\":1205:1211   */\n      0x00\n        /* \"#utility.yul\":1254:1256   */\n      0x60\n        /* \"#utility.yul\":1242:1251   */\n      dup5\n        /* \"#utility.yul\":1233:1240   */\n      dup7\n        /* \"#utility.yul\":1229:1252   */\n      sub\n        /* \"#utility.yul\":1225:1257   */\n      slt\n        /* \"#utility.yul\":1222:1341   */\n      iszero\n      tag_107\n      jumpi\n        /* \"#utility.yul\":1260:1339   */\n      tag_108\n      tag_99\n      jump\t// in\n    tag_108:\n        /* \"#utility.yul\":1222:1341   */\n    tag_107:\n        /* \"#utility.yul\":1380:1381   */\n      0x00\n        /* \"#utility.yul\":1405:1458   */\n      tag_109\n        /* \"#utility.yul\":1450:1457   */\n      dup7\n        /* \"#utility.yul\":1441:1447   */\n      dup3\n        /* \"#utility.yul\":1430:1439   */\n      dup8\n        /* \"#utility.yul\":1426:1448   */\n      add\n        /* \"#utility.yul\":1405:1458   */\n      tag_88\n      jump\t// in\n    tag_109:\n        /* \"#utility.yul\":1395:1458   */\n      swap4\n      pop\n        /* \"#utility.yul\":1351:1468   */\n      pop\n        /* \"#utility.yul\":1507:1509   */\n      0x20\n        /* \"#utility.yul\":1533:1586   */\n      tag_110\n        /* \"#utility.yul\":1578:1585   */\n      dup7\n        /* \"#utility.yul\":1569:1575   */\n      dup3\n        /* \"#utility.yul\":1558:1567   */\n      dup8\n        /* \"#utility.yul\":1554:1576   */\n      add\n        /* \"#utility.yul\":1533:1586   */\n      tag_88\n      jump\t// in\n    tag_110:\n        /* \"#utility.yul\":1523:1586   */\n      swap3\n      pop\n        /* \"#utility.yul\":1478:1596   */\n      pop\n        /* \"#utility.yul\":1635:1637   */\n      0x40\n        /* \"#utility.yul\":1661:1714   */\n      tag_111\n        /* \"#utility.yul\":1706:1713   */\n      dup7\n        /* \"#utility.yul\":1697:1703   */\n      dup3\n        /* \"#utility.yul\":1686:1695   */\n      dup8\n        /* \"#utility.yul\":1682:1704   */\n      add\n        /* \"#utility.yul\":1661:1714   */\n      tag_92\n      jump\t// in\n    tag_111:\n        /* \"#utility.yul\":1651:1714   */\n      swap2\n      pop\n        /* \"#utility.yul\":1606:1724   */\n      pop\n        /* \"#utility.yul\":1112:1731   */\n      swap3\n      pop\n      swap3\n      pop\n      swap3\n      jump\t// out\n        /* \"#utility.yul\":1737:2211   */\n    tag_20:\n        /* \"#utility.yul\":1805:1811   */\n      0x00\n        /* \"#utility.yul\":1813:1819   */\n      dup1\n        /* \"#utility.yul\":1862:1864   */\n      0x40\n        /* \"#utility.yul\":1850:1859   */\n      dup4\n        /* \"#utility.yul\":1841:1848   */\n      dup6\n        /* \"#utility.yul\":1837:1860   */\n      sub\n        /* \"#utility.yul\":1833:1865   */\n      slt\n        /* \"#utility.yul\":1830:1949   */\n      iszero\n      tag_113\n      jumpi\n        /* \"#utility.yul\":1868:1947   */\n      tag_114\n      tag_99\n      jump\t// in\n    tag_114:\n        /* \"#utility.yul\":1830:1949   */\n    tag_113:\n        /* \"#utility.yul\":1988:1989   */\n      0x00\n        /* \"#utility.yul\":2013:2066   */\n      tag_115\n        /* \"#utility.yul\":2058:2065   */\n      dup6\n        /* \"#utility.yul\":2049:2055   */\n      dup3\n        /* \"#utility.yul\":2038:2047   */\n      dup7\n        /* \"#utility.yul\":2034:2056   */\n      add\n        /* \"#utility.yul\":2013:2066   */\n      tag_88\n      jump\t// in\n    tag_115:\n        /* \"#utility.yul\":2003:2066   */\n      swap3\n      pop\n        /* \"#utility.yul\":1959:2076   */\n      pop\n        /* \"#utility.yul\":2115:2117   */\n      0x20\n        /* \"#utility.yul\":2141:2194   */\n      tag_116\n        /* \"#utility.yul\":2186:2193   */\n      dup6\n        /* \"#utility.yul\":2177:2183   */\n      dup3\n        /* \"#utility.yul\":2166:2175   */\n      dup7\n        /* \"#utility.yul\":2162:2184   */\n      add\n        /* \"#utility.yul\":2141:2194   */\n      tag_92\n      jump\t// in\n    tag_116:\n        /* \"#utility.yul\":2131:2194   */\n      swap2\n      pop\n        /* \"#utility.yul\":2086:2204   */\n      pop\n        /* \"#utility.yul\":1737:2211   */\n      swap3\n      pop\n      swap3\n      swap1\n      pop\n      jump\t// out\n        /* \"#utility.yul\":2217:2335   */\n    tag_117:\n        /* \"#utility.yul\":2304:2328   */\n      tag_119\n        /* \"#utility.yul\":2322:2327   */\n      dup2\n        /* \"#utility.yul\":2304:2328   */\n      tag_120\n      jump\t// in\n    tag_119:\n        /* \"#utility.yul\":2299:2302   */\n      dup3\n        /* \"#utility.yul\":2292:2329   */\n      mstore\n        /* \"#utility.yul\":2217:2335   */\n      pop\n      pop\n      jump\t// out\n        /* \"#utility.yul\":2341:2450   */\n    tag_121:\n        /* \"#utility.yul\":2422:2443   */\n      tag_123\n        /* \"#utility.yul\":2437:2442   */\n      dup2\n        /* \"#utility.yul\":2422:2443   */\n      tag_124\n      jump\t// in\n    tag_123:\n        /* \"#utility.yul\":2417:2420   */\n      dup3\n        /* \"#utility.yul\":2410:2444   */\n      mstore\n        /* \"#utility.yul\":2341:2450   */\n      pop\n      pop\n      jump\t// out\n        /* \"#utility.yul\":2456:2820   */\n    tag_125:\n        /* \"#utility.yul\":2544:2547   */\n      0x00\n        /* \"#utility.yul\":2572:2611   */\n      tag_127\n        /* \"#utility.yul\":2605:2610   */\n      dup3\n        /* \"#utility.yul\":2572:2611   */\n      tag_128\n      jump\t// in\n    tag_127:\n        /* \"#utility.yul\":2627:2698   */\n      tag_129\n        /* \"#utility.yul\":2691:2697   */\n      dup2\n        /* \"#utility.yul\":2686:2689   */\n      dup6\n        /* \"#utility.yul\":2627:2698   */\n      tag_130\n      jump\t// in\n    tag_129:\n        /* \"#utility.yul\":2620:2698   */\n      swap4\n      pop\n        /* \"#utility.yul\":2707:2759   */\n      tag_131\n        /* \"#utility.yul\":2752:2758   */\n      dup2\n        /* \"#utility.yul\":2747:2750   */\n      dup6\n        /* \"#utility.yul\":2740:2744   */\n      0x20\n        /* \"#utility.yul\":2733:2738   */\n      dup7\n        /* \"#utility.yul\":2729:2745   */\n      add\n        /* \"#utility.yul\":2707:2759   */\n      tag_132\n      jump\t// in\n    tag_131:\n        /* \"#utility.yul\":2784:2813   */\n      tag_133\n        /* \"#utility.yul\":2806:2812   */\n      dup2\n        /* \"#utility.yul\":2784:2813   */\n      tag_134\n      jump\t// in\n    tag_133:\n        /* \"#utility.yul\":2779:2782   */\n      dup5\n        /* \"#utility.yul\":2775:2814   */\n      add\n        /* \"#utility.yul\":2768:2814   */\n      swap2\n      pop\n        /* \"#utility.yul\":2548:2820   */\n      pop\n        /* \"#utility.yul\":2456:2820   */\n      swap3\n      swap2\n      pop\n      pop\n      jump\t// out\n        /* \"#utility.yul\":2826:2944   */\n    tag_135:\n        /* \"#utility.yul\":2913:2937   */\n      tag_137\n        /* \"#utility.yul\":2931:2936   */\n      dup2\n        /* \"#utility.yul\":2913:2937   */\n      tag_138\n      jump\t// in\n    tag_137:\n        /* \"#utility.yul\":2908:2911   */\n      dup3\n        /* \"#utility.yul\":2901:2938   */\n      mstore\n        /* \"#utility.yul\":2826:2944   */\n      pop\n      pop\n      jump\t// out\n        /* \"#utility.yul\":2950:3172   */\n    tag_41:\n        /* \"#utility.yul\":3043:3047   */\n      0x00\n        /* \"#utility.yul\":3081:3083   */\n      0x20\n        /* \"#utility.yul\":3070:3079   */\n      dup3\n        /* \"#utility.yul\":3066:3084   */\n      add\n        /* \"#utility.yul\":3058:3084   */\n      swap1\n      pop\n        /* \"#utility.yul\":3094:3165   */\n      tag_140\n        /* \"#utility.yul\":3162:3163   */\n      0x00\n        /* \"#utility.yul\":3151:3160   */\n      dup4\n        /* \"#utility.yul\":3147:3164   */\n      add\n        /* \"#utility.yul\":3138:3144   */\n      dup5\n        /* \"#utility.yul\":3094:3165   */\n      tag_117\n      jump\t// in\n    tag_140:\n        /* \"#utility.yul\":2950:3172   */\n      swap3\n      swap2\n      pop\n      pop\n      jump\t// out\n        /* \"#utility.yul\":3178:3388   */\n    tag_23:\n        /* \"#utility.yul\":3265:3269   */\n      0x00\n        /* \"#utility.yul\":3303:3305   */\n      0x20\n        /* \"#utility.yul\":3292:3301   */\n      dup3\n        /* \"#utility.yul\":3288:3306   */\n      add\n        /* \"#utility.yul\":3280:3306   */\n      swap1\n      pop\n        /* \"#utility.yul\":3316:3381   */\n      tag_142\n        /* \"#utility.yul\":3378:3379   */\n      0x00\n        /* \"#utility.yul\":3367:3376   */\n      dup4\n        /* \"#utility.yul\":3363:3380   */\n      add\n        /* \"#utility.yul\":3354:3360   */\n      dup5\n        /* \"#utility.yul\":3316:3381   */\n      tag_121\n      jump\t// in\n    tag_142:\n        /* \"#utility.yul\":3178:3388   */\n      swap3\n      swap2\n      pop\n      pop\n      jump\t// out\n        /* \"#utility.yul\":3394:3707   */\n    tag_17:\n        /* \"#utility.yul\":3507:3511   */\n      0x00\n        /* \"#utility.yul\":3545:3547   */\n      0x20\n        /* \"#utility.yul\":3534:3543   */\n      dup3\n        /* \"#utility.yul\":3530:3548   */\n      add\n        /* \"#utility.yul\":3522:3548   */\n      swap1\n      pop\n        /* \"#utility.yul\":3594:3603   */\n      dup2\n        /* \"#utility.yul\":3588:3592   */\n      dup2\n        /* \"#utility.yul\":3584:3604   */\n      sub\n        /* \"#utility.yul\":3580:3581   */\n      0x00\n        /* \"#utility.yul\":3569:3578   */\n      dup4\n        /* \"#utility.yul\":3565:3582   */\n      add\n        /* \"#utility.yul\":3558:3605   */\n      mstore\n        /* \"#utility.yul\":3622:3700   */\n      tag_144\n        /* \"#utility.yul\":3695:3699   */\n      dup2\n        /* \"#utility.yul\":3686:3692   */\n      dup5\n        /* \"#utility.yul\":3622:3700   */\n      tag_125\n      jump\t// in\n    tag_144:\n        /* \"#utility.yul\":3614:3700   */\n      swap1\n      pop\n        /* \"#utility.yul\":3394:3707   */\n      swap3\n      swap2\n      pop\n      pop\n      jump\t// out\n        /* \"#utility.yul\":3713:3935   */\n    tag_27:\n        /* \"#utility.yul\":3806:3810   */\n      0x00\n        /* \"#utility.yul\":3844:3846   */\n      0x20\n        /* \"#utility.yul\":3833:3842   */\n      dup3\n        /* \"#utility.yul\":3829:3847   */\n      add\n        /* \"#utility.yul\":3821:3847   */\n      swap1\n      pop\n        /* \"#utility.yul\":3857:3928   */\n      tag_146\n        /* \"#utility.yul\":3925:3926   */\n      0x00\n        /* \"#utility.yul\":3914:3923   */\n      dup4\n        /* \"#utility.yul\":3910:3927   */\n      add\n        /* \"#utility.yul\":3901:3907   */\n      dup5\n        /* \"#utility.yul\":3857:3928   */\n      tag_135\n      jump\t// in\n    tag_146:\n        /* \"#utility.yul\":3713:3935   */\n      swap3\n      swap2\n      pop\n      pop\n      jump\t// out\n        /* \"#utility.yul\":4022:4121   */\n    tag_128:\n        /* \"#utility.yul\":4074:4080   */\n      0x00\n        /* \"#utility.yul\":4108:4113   */\n      dup2\n        /* \"#utility.yul\":4102:4114   */\n      mload\n        /* \"#utility.yul\":4092:4114   */\n      swap1\n      pop\n        /* \"#utility.yul\":4022:4121   */\n      swap2\n      swap1\n      pop\n      jump\t// out\n        /* \"#utility.yul\":4127:4296   */\n    tag_130:\n        /* \"#utility.yul\":4211:4222   */\n      0x00\n        /* \"#utility.yul\":4245:4251   */\n      dup3\n        /* \"#utility.yul\":4240:4243   */\n      dup3\n        /* \"#utility.yul\":4233:4252   */\n      mstore\n        /* \"#utility.yul\":4285:4289   */\n      0x20\n        /* \"#utility.yul\":4280:4283   */\n      dup3\n        /* \"#utility.yul\":4276:4290   */\n      add\n        /* \"#utility.yul\":4261:4290   */\n      swap1\n      pop\n        /* \"#utility.yul\":4127:4296   */\n      swap3\n      swap2\n      pop\n      pop\n      jump\t// out\n        /* \"#utility.yul\":4302:4607   */\n    tag_74:\n        /* \"#utility.yul\":4342:4345   */\n      0x00\n        /* \"#utility.yul\":4361:4381   */\n      tag_152\n        /* \"#utility.yul\":4379:4380   */\n      dup3\n        /* \"#utility.yul\":4361:4381   */\n      tag_138\n      jump\t// in\n    tag_152:\n        /* \"#utility.yul\":4356:4381   */\n      swap2\n      pop\n        /* \"#utility.yul\":4395:4415   */\n      tag_153\n        /* \"#utility.yul\":4413:4414   */\n      dup4\n        /* \"#utility.yul\":4395:4415   */\n      tag_138\n      jump\t// in\n    tag_153:\n        /* \"#utility.yul\":4390:4415   */\n      swap3\n      pop\n        /* \"#utility.yul\":4549:4550   */\n      dup3\n        /* \"#utility.yul\":4481:4547   */\n      0xffffffffffffffffffffffffffffffffffffffffffffffffffffffffffffffff\n        /* \"#utility.yul\":4477:4551   */\n      sub\n        /* \"#utility.yul\":4474:4475   */\n      dup3\n        /* \"#utility.yul\":4471:4552   */\n      gt\n        /* \"#utility.yul\":4468:4575   */\n      iszero\n      tag_154\n      jumpi\n        /* \"#utility.yul\":4555:4573   */\n      tag_155\n      tag_156\n      jump\t// in\n    tag_155:\n        /* \"#utility.yul\":4468:4575   */\n    tag_154:\n        /* \"#utility.yul\":4599:4600   */\n      dup3\n        /* \"#utility.yul\":4596:4597   */\n      dup3\n        /* \"#utility.yul\":4592:4601   */\n      add\n        /* \"#utility.yul\":4585:4601   */\n      swap1\n      pop\n        /* \"#utility.yul\":4302:4607   */\n      swap3\n      swap2\n      pop\n      pop\n      jump\t// out\n        /* \"#utility.yul\":4613:4804   */\n    tag_72:\n        /* \"#utility.yul\":4653:4657   */\n      0x00\n        /* \"#utility.yul\":4673:4693   */\n      tag_158\n        /* \"#utility.yul\":4691:4692   */\n      dup3\n        /* \"#utility.yul\":4673:4693   */\n      tag_138\n      jump\t// in\n    tag_158:\n        /* \"#utility.yul\":4668:4693   */\n      swap2\n      pop\n        /* \"#utility.yul\":4707:4727   */\n      tag_159\n        /* \"#utility.yul\":4725:4726   */\n      dup4\n        /* \"#utility.yul\":4707:4727   */\n      tag_138\n      jump\t// in\n    tag_159:\n        /* \"#utility.yul\":4702:4727   */\n      swap3\n      pop\n        /* \"#utility.yul\":4746:4747   */\n      dup3\n        /* \"#utility.yul\":4743:4744   */\n      dup3\n        /* \"#utility.yul\":4740:4748   */\n      lt\n        /* \"#utility.yul\":4737:4771   */\n      iszero\n      tag_160\n      jumpi\n        /* \"#utility.yul\":4751:4769   */\n      tag_161\n      tag_156\n      jump\t// in\n    tag_161:\n        /* \"#utility.yul\":4737:4771   */\n    tag_160:\n        /* \"#utility.yul\":4796:4797   */\n      dup3\n        /* \"#utility.yul\":4793:4794   */\n      dup3\n        /* \"#utility.yul\":4789:4798   */\n      sub\n        /* \"#utility.yul\":4781:4798   */\n      swap1\n      pop\n        /* \"#utility.yul\":4613:4804   */\n      swap3\n      swap2\n      pop\n      pop\n      jump\t// out\n        /* \"#utility.yul\":4810:4906   */\n    tag_120:\n        /* \"#utility.yul\":4847:4854   */\n      0x00\n        /* \"#utility.yul\":4876:4900   */\n      tag_163\n        /* \"#utility.yul\":4894:4899   */\n      dup3\n        /* \"#utility.yul\":4876:4900   */\n      tag_164\n      jump\t// in\n    tag_163:\n        /* \"#utility.yul\":4865:4900   */\n      swap1\n      pop\n        /* \"#utility.yul\":4810:4906   */\n      swap2\n      swap1\n      pop\n      jump\t// out\n        /* \"#utility.yul\":4912:5002   */\n    tag_124:\n        /* \"#utility.yul\":4946:4953   */\n      0x00\n        /* \"#utility.yul\":4989:4994   */\n      dup2\n        /* \"#utility.yul\":4982:4995   */\n      iszero\n        /* \"#utility.yul\":4975:4996   */\n      iszero\n        /* \"#utility.yul\":4964:4996   */\n      swap1\n      pop\n        /* \"#utility.yul\":4912:5002   */\n      swap2\n      swap1\n      pop\n      jump\t// out\n        /* \"#utility.yul\":5008:5134   */\n    tag_164:\n        /* \"#utility.yul\":5045:5052   */\n      0x00\n        /* \"#utility.yul\":5085:5127   */\n      0xffffffffffffffffffffffffffffffffffffffff\n        /* \"#utility.yul\":5078:5083   */\n      dup3\n        /* \"#utility.yul\":5074:5128   */\n      and\n        /* \"#utility.yul\":5063:5128   */\n      swap1\n      pop\n        /* \"#utility.yul\":5008:5134   */\n      swap2\n      swap1\n      pop\n      jump\t// out\n        /* \"#utility.yul\":5140:5217   */\n    tag_138:\n        /* \"#utility.yul\":5177:5184   */\n      0x00\n        /* \"#utility.yul\":5206:5211   */\n      dup2\n        /* \"#utility.yul\":5195:5211   */\n      swap1\n      pop\n        /* \"#utility.yul\":5140:5217   */\n      swap2\n      swap1\n      pop\n      jump\t// out\n        /* \"#utility.yul\":5223:5530   */\n    tag_132:\n        /* \"#utility.yul\":5291:5292   */\n      0x00\n        /* \"#utility.yul\":5301:5414   */\n    tag_169:\n        /* \"#utility.yul\":5315:5321   */\n      dup4\n        /* \"#utility.yul\":5312:5313   */\n      dup2\n        /* \"#utility.yul\":5309:5322   */\n      lt\n        /* \"#utility.yul\":5301:5414   */\n      iszero\n      tag_171\n      jumpi\n        /* \"#utility.yul\":5400:5401   */\n      dup1\n        /* \"#utility.yul\":5395:5398   */\n      dup3\n        /* \"#utility.yul\":5391:5402   */\n      add\n        /* \"#utility.yul\":5385:5403   */\n      mload\n        /* \"#utility.yul\":5381:5382   */\n      dup2\n        /* \"#utility.yul\":5376:5379   */\n      dup5\n        /* \"#utility.yul\":5372:5383   */\n      add\n        /* \"#utility.yul\":5365:5404   */\n      mstore\n        /* \"#utility.yul\":5337:5339   */\n      0x20\n        /* \"#utility.yul\":5334:5335   */\n      dup2\n        /* \"#utility.yul\":5330:5340   */\n      add\n        /* \"#utility.yul\":5325:5340   */\n      swap1\n      pop\n        /* \"#utility.yul\":5301:5414   */\n      jump(tag_169)\n    tag_171:\n        /* \"#utility.yul\":5432:5438   */\n      dup4\n        /* \"#utility.yul\":5429:5430   */\n      dup2\n        /* \"#utility.yul\":5426:5439   */\n      gt\n        /* \"#utility.yul\":5423:5524   */\n      iszero\n      tag_172\n      jumpi\n        /* \"#utility.yul\":5512:5513   */\n      0x00\n        /* \"#utility.yul\":5503:5509   */\n      dup5\n        /* \"#utility.yul\":5498:5501   */\n      dup5\n        /* \"#utility.yul\":5494:5510   */\n      add\n        /* \"#utility.yul\":5487:5514   */\n      mstore\n        /* \"#utility.yul\":5423:5524   */\n    tag_172:\n        /* \"#utility.yul\":5272:5530   */\n      pop\n        /* \"#utility.yul\":5223:5530   */\n      pop\n      pop\n      pop\n      jump\t// out\n        /* \"#utility.yul\":5536:5856   */\n    tag_59:\n        /* \"#utility.yul\":5580:5586   */\n      0x00\n        /* \"#utility.yul\":5617:5618   */\n      0x02\n        /* \"#utility.yul\":5611:5615   */\n      dup3\n        /* \"#utility.yul\":5607:5619   */\n      div\n        /* \"#utility.yul\":5597:5619   */\n      swap1\n      pop\n        /* \"#utility.yul\":5664:5665   */\n      0x01\n        /* \"#utility.yul\":5658:5662   */\n      dup3\n        /* \"#utility.yul\":5654:5666   */\n      and\n        /* \"#utility.yul\":5685:5703   */\n      dup1\n        /* \"#utility.yul\":5675:5756   */\n      tag_174\n      jumpi\n        /* \"#utility.yul\":5741:5745   */\n      0x7f\n        /* \"#utility.yul\":5733:5739   */\n      dup3\n        /* \"#utility.yul\":5729:5746   */\n      and\n        /* \"#utility.yul\":5719:5746   */\n      swap2\n      pop\n        /* \"#utility.yul\":5675:5756   */\n    tag_174:\n        /* \"#utility.yul\":5803:5805   */\n      0x20\n        /* \"#utility.yul\":5795:5801   */\n      dup3\n        /* \"#utility.yul\":5792:5806   */\n      lt\n        /* \"#utility.yul\":5772:5790   */\n      dup2\n        /* \"#utility.yul\":5769:5807   */\n      eq\n        /* \"#utility.yul\":5766:5850   */\n      iszero\n      tag_175\n      jumpi\n        /* \"#utility.yul\":5822:5840   */\n      tag_176\n      tag_177\n      jump\t// in\n    tag_176:\n        /* \"#utility.yul\":5766:5850   */\n    tag_175:\n        /* \"#utility.yul\":5587:5856   */\n      pop\n        /* \"#utility.yul\":5536:5856   */\n      swap2\n      swap1\n      pop\n      jump\t// out\n        /* \"#utility.yul\":5862:6042   */\n    tag_156:\n        /* \"#utility.yul\":5910:5987   */\n      0x4e487b7100000000000000000000000000000000000000000000000000000000\n        /* \"#utility.yul\":5907:5908   */\n      0x00\n        /* \"#utility.yul\":5900:5988   */\n      mstore\n        /* \"#utility.yul\":6007:6011   */\n      0x11\n        /* \"#utility.yul\":6004:6005   */\n      0x04\n        /* \"#utility.yul\":5997:6012   */\n      mstore\n        /* \"#utility.yul\":6031:6035   */\n      0x24\n        /* \"#utility.yul\":6028:6029   */\n      0x00\n        /* \"#utility.yul\":6021:6036   */\n      revert\n        /* \"#utility.yul\":6048:6228   */\n    tag_177:\n        /* \"#utility.yul\":6096:6173   */\n      0x4e487b7100000000000000000000000000000000000000000000000000000000\n        /* \"#utility.yul\":6093:6094   */\n      0x00\n        /* \"#utility.yul\":6086:6174   */\n      mstore\n        /* \"#utility.yul\":6193:6197   */\n      0x22\n        /* \"#utility.yul\":6190:6191   */\n      0x04\n        /* \"#utility.yul\":6183:6198   */\n      mstore\n        /* \"#utility.yul\":6217:6221   */\n      0x24\n        /* \"#utility.yul\":6214:6215   */\n      0x00\n        /* \"#utility.yul\":6207:6222   */\n      revert\n        /* \"#utility.yul\":6357:6474   */\n    tag_99:\n        /* \"#utility.yul\":6466:6467   */\n      0x00\n        /* \"#utility.yul\":6463:6464   */\n      dup1\n        /* \"#utility.yul\":6456:6468   */\n      revert\n        /* \"#utility.yul\":6480:6582   */\n    tag_134:\n        /* \"#utility.yul\":6521:6527   */\n      0x00\n        /* \"#utility.yul\":6572:6574   */\n      0x1f\n        /* \"#utility.yul\":6568:6575   */\n      not\n        /* \"#utility.yul\":6563:6565   */\n      0x1f\n        /* \"#utility.yul\":6556:6561   */\n      dup4\n        /* \"#utility.yul\":6552:6566   */\n      add\n        /* \"#utility.yul\":6548:6576   */\n      and\n        /* \"#utility.yul\":6538:6576   */\n      swap1\n      pop\n        /* \"#utility.yul\":6480:6582   */\n      swap2\n      swap1\n      pop\n      jump\t// out\n        /* \"#utility.yul\":6588:6710   */\n    tag_91:\n        /* \"#utility.yul\":6661:6685   */\n      tag_185\n        /* \"#utility.yul\":6679:6684   */\n      dup2\n        /* \"#utility.yul\":6661:6685   */\n      tag_120\n      jump\t// in\n    tag_185:\n        /* \"#utility.yul\":6654:6659   */\n      dup2\n        /* \"#utility.yul\":6651:6686   */\n      eq\n        /* \"#utility.yul\":6641:6704   */\n      tag_186\n      jumpi\n        /* \"#utility.yul\":6700:6701   */\n      0x00\n        /* \"#utility.yul\":6697:6698   */\n      dup1\n        /* \"#utility.yul\":6690:6702   */\n      revert\n        /* \"#utility.yul\":6641:6704   */\n    tag_186:\n        /* \"#utility.yul\":6588:6710   */\n      pop\n      jump\t// out\n        /* \"#utility.yul\":6716:6838   */\n    tag_95:\n        /* \"#utility.yul\":6789:6813   */\n      tag_188\n        /* \"#utility.yul\":6807:6812   */\n      dup2\n        /* \"#utility.yul\":6789:6813   */\n      tag_138\n      jump\t// in\n    tag_188:\n        /* \"#utility.yul\":6782:6787   */\n      dup2\n        /* \"#utility.yul\":6779:6814   */\n      eq\n        /* \"#utility.yul\":6769:6832   */\n      tag_189\n      jumpi\n        /* \"#utility.yul\":6828:6829   */\n      0x00\n        /* \"#utility.yul\":6825:6826   */\n      dup1\n        /* \"#utility.yul\":6818:6830   */\n      revert\n        /* \"#utility.yul\":6769:6832   */\n    tag_189:\n        /* \"#utility.yul\":6716:6838   */\n      pop\n      jump\t// out\n\n    auxdata: 0xa26469706673582212207dece68686c2e5e26a3b534fd1ed99a3b27a1c765f62857921fa30a60816cd7464736f6c63430008070033\n}\n",
				"bytecode": {
					"linkReferences": {},
					"object": "60806040526040518060400160405280600581526020017f426c6f636b000000000000000000000000000000000000000000000000000000815250600090805190602001906200005192919062000167565b506040518060400160405280600181526020017f3000000000000000000000000000000000000000000000000000000000000000815250600190805190602001906200009f92919062000167565b50348015620000ad57600080fd5b50620186a060028190555033600360006101000a81548173ffffffffffffffffffffffffffffffffffffffff021916908373ffffffffffffffffffffffffffffffffffffffff16021790555060025460046000600360009054906101000a900473ffffffffffffffffffffffffffffffffffffffff1673ffffffffffffffffffffffffffffffffffffffff1673ffffffffffffffffffffffffffffffffffffffff168152602001908152602001600020819055506200027c565b828054620001759062000217565b90600052602060002090601f016020900481019282620001995760008555620001e5565b82601f10620001b457805160ff1916838001178555620001e5565b82800160010185558215620001e5579182015b82811115620001e4578251825591602001919060010190620001c7565b5b509050620001f49190620001f8565b5090565b5b8082111562000213576000816000905550600101620001f9565b5090565b600060028204905060018216806200023057607f821691505b602082108114156200024757620002466200024d565b5b50919050565b7f4e487b7100000000000000000000000000000000000000000000000000000000600052602260045260246000fd5b610cdb806200028c6000396000f3fe608060405234801561001057600080fd5b506004361061009e5760003560e01c80634d853ee5116100665780634d853ee51461016f57806370a082311461018d57806376809ce3146101bd578063a9059cbb146101db578063dd62ed3e1461020b5761009e565b806306fdde03146100a3578063095ea7b3146100c157806318160ddd146100f157806323b872dd1461010f57806327e235e31461013f575b600080fd5b6100ab61023b565b6040516100b89190610a73565b60405180910390f35b6100db60048036038101906100d69190610997565b6102c9565b6040516100e89190610a58565b60405180910390f35b6100f9610414565b6040516101069190610a95565b60405180910390f35b61012960048036038101906101249190610944565b61041a565b6040516101369190610a58565b60405180910390f35b610159600480360381019061015491906108d7565b6105a8565b6040516101669190610a95565b60405180910390f35b6101776105c0565b6040516101849190610a3d565b60405180910390f35b6101a760048036038101906101a291906108d7565b6105e6565b6040516101b49190610a95565b60405180910390f35b6101c561062f565b6040516101d29190610a73565b60405180910390f35b6101f560048036038101906101f09190610997565b6106bd565b6040516102029190610a58565b60405180910390f35b61022560048036038101906102209190610904565b610826565b6040516102329190610a95565b60405180910390f35b6000805461024890610bd1565b80601f016020809104026020016040519081016040528092919081815260200182805461027490610bd1565b80156102c15780601f10610296576101008083540402835291602001916102c1565b820191906000526020600020905b8154815290600101906020018083116102a457829003601f168201915b505050505081565b600081600460003373ffffffffffffffffffffffffffffffffffffffff1673ffffffffffffffffffffffffffffffffffffffff16815260200190815260200160002054101561031757600080fd5b6000821161032457600080fd5b81600560003373ffffffffffffffffffffffffffffffffffffffff1673ffffffffffffffffffffffffffffffffffffffff16815260200190815260200160002060008573ffffffffffffffffffffffffffffffffffffffff1673ffffffffffffffffffffffffffffffffffffffff168152602001908152602001600020819055508273ffffffffffffffffffffffffffffffffffffffff163373ffffffffffffffffffffffffffffffffffffffff167f8c5be1e5ebec7d5bd14f71427d1e84f3dd0314c0f7b2291e5b200ac8c7c3b925846040516104029190610a95565b60405180910390a36001905092915050565b60025481565b600081600560008673ffffffffffffffffffffffffffffffffffffffff1673ffffffffffffffffffffffffffffffffffffffff16815260200190815260200160002060008573ffffffffffffffffffffffffffffffffffffffff1673ffffffffffffffffffffffffffffffffffffffff1681526020019081526020016000205410156104a557600080fd5b81600460008673ffffffffffffffffffffffffffffffffffffffff1673ffffffffffffffffffffffffffffffffffffffff1681526020019081526020016000205410156104f157600080fd5b81600460008673ffffffffffffffffffffffffffffffffffffffff1673ffffffffffffffffffffffffffffffffffffffff16815260200190815260200160002060008282546105409190610b22565b9250508190555081600460008573ffffffffffffffffffffffffffffffffffffffff1673ffffffffffffffffffffffffffffffffffffffff16815260200190815260200160002060008282546105969190610acc565b92505081905550600190509392505050565b60046020528060005260406000206000915090505481565b600360009054906101000a900473ffffffffffffffffffffffffffffffffffffffff1681565b6000600460008373ffffffffffffffffffffffffffffffffffffffff1673ffffffffffffffffffffffffffffffffffffffff168152602001908152602001600020549050919050565b6001805461063c90610bd1565b80601f016020809104026020016040519081016040528092919081815260200182805461066890610bd1565b80156106b55780601f1061068a576101008083540402835291602001916106b5565b820191906000526020600020905b81548152906001019060200180831161069857829003601f168201915b505050505081565b600081600460003373ffffffffffffffffffffffffffffffffffffffff1673ffffffffffffffffffffffffffffffffffffffff16815260200190815260200160002054101561070b57600080fd5b81600460008573ffffffffffffffffffffffffffffffffffffffff1673ffffffffffffffffffffffffffffffffffffffff168152602001908152602001600020600082825461075a9190610acc565b9250508190555081600460003373ffffffffffffffffffffffffffffffffffffffff1673ffffffffffffffffffffffffffffffffffffffff16815260200190815260200160002060008282546107b09190610b22565b925050819055508273ffffffffffffffffffffffffffffffffffffffff163373ffffffffffffffffffffffffffffffffffffffff167fddf252ad1be2c89b69c2b068fc378daa952ba7f163c4a11628f55a4df523b3ef846040516108149190610a95565b60405180910390a36001905092915050565b6000600560008473ffffffffffffffffffffffffffffffffffffffff1673ffffffffffffffffffffffffffffffffffffffff16815260200190815260200160002060008373ffffffffffffffffffffffffffffffffffffffff1673ffffffffffffffffffffffffffffffffffffffff16815260200190815260200160002054905092915050565b6000813590506108bc81610c77565b92915050565b6000813590506108d181610c8e565b92915050565b6000602082840312156108ed576108ec610c61565b5b60006108fb848285016108ad565b91505092915050565b6000806040838503121561091b5761091a610c61565b5b6000610929858286016108ad565b925050602061093a858286016108ad565b9150509250929050565b60008060006060848603121561095d5761095c610c61565b5b600061096b868287016108ad565b935050602061097c868287016108ad565b925050604061098d868287016108c2565b9150509250925092565b600080604083850312156109ae576109ad610c61565b5b60006109bc858286016108ad565b92505060206109cd858286016108c2565b9150509250929050565b6109e081610b56565b82525050565b6109ef81610b68565b82525050565b6000610a0082610ab0565b610a0a8185610abb565b9350610a1a818560208601610b9e565b610a2381610c66565b840191505092915050565b610a3781610b94565b82525050565b6000602082019050610a5260008301846109d7565b92915050565b6000602082019050610a6d60008301846109e6565b92915050565b60006020820190508181036000830152610a8d81846109f5565b905092915050565b6000602082019050610aaa6000830184610a2e565b92915050565b600081519050919050565b600082825260208201905092915050565b6000610ad782610b94565b9150610ae283610b94565b9250827fffffffffffffffffffffffffffffffffffffffffffffffffffffffffffffffff03821115610b1757610b16610c03565b5b828201905092915050565b6000610b2d82610b94565b9150610b3883610b94565b925082821015610b4b57610b4a610c03565b5b828203905092915050565b6000610b6182610b74565b9050919050565b60008115159050919050565b600073ffffffffffffffffffffffffffffffffffffffff82169050919050565b6000819050919050565b60005b83811015610bbc578082015181840152602081019050610ba1565b83811115610bcb576000848401525b50505050565b60006002820490506001821680610be957607f821691505b60208210811415610bfd57610bfc610c32565b5b50919050565b7f4e487b7100000000000000000000000000000000000000000000000000000000600052601160045260246000fd5b7f4e487b7100000000000000000000000000000000000000000000000000000000600052602260045260246000fd5b600080fd5b6000601f19601f8301169050919050565b610c8081610b56565b8114610c8b57600080fd5b50565b610c9781610b94565b8114610ca257600080fd5b5056fea26469706673582212207dece68686c2e5e26a3b534fd1ed99a3b27a1c765f62857921fa30a60816cd7464736f6c63430008070033",
					"opcodes": "PUSH1 0x80 PUSH1 0x40 MSTORE PUSH1 0x40 MLOAD DUP1 PUSH1 0x40 ADD PUSH1 0x40 MSTORE DUP1 PUSH1 0x5 DUP2 MSTORE PUSH1 0x20 ADD PUSH32 0x426C6F636B000000000000000000000000000000000000000000000000000000 DUP2 MSTORE POP PUSH1 0x0 SWAP1 DUP1 MLOAD SWAP1 PUSH1 0x20 ADD SWAP1 PUSH3 0x51 SWAP3 SWAP2 SWAP1 PUSH3 0x167 JUMP JUMPDEST POP PUSH1 0x40 MLOAD DUP1 PUSH1 0x40 ADD PUSH1 0x40 MSTORE DUP1 PUSH1 0x1 DUP2 MSTORE PUSH1 0x20 ADD PUSH32 0x3000000000000000000000000000000000000000000000000000000000000000 DUP2 MSTORE POP PUSH1 0x1 SWAP1 DUP1 MLOAD SWAP1 PUSH1 0x20 ADD SWAP1 PUSH3 0x9F SWAP3 SWAP2 SWAP1 PUSH3 0x167 JUMP JUMPDEST POP CALLVALUE DUP1 ISZERO PUSH3 0xAD JUMPI PUSH1 0x0 DUP1 REVERT JUMPDEST POP PUSH3 0x186A0 PUSH1 0x2 DUP2 SWAP1 SSTORE POP CALLER PUSH1 0x3 PUSH1 0x0 PUSH2 0x100 EXP DUP2 SLOAD DUP2 PUSH20 0xFFFFFFFFFFFFFFFFFFFFFFFFFFFFFFFFFFFFFFFF MUL NOT AND SWAP1 DUP4 PUSH20 0xFFFFFFFFFFFFFFFFFFFFFFFFFFFFFFFFFFFFFFFF AND MUL OR SWAP1 SSTORE POP PUSH1 0x2 SLOAD PUSH1 0x4 PUSH1 0x0 PUSH1 0x3 PUSH1 0x0 SWAP1 SLOAD SWAP1 PUSH2 0x100 EXP SWAP1 DIV PUSH20 0xFFFFFFFFFFFFFFFFFFFFFFFFFFFFFFFFFFFFFFFF AND PUSH20 0xFFFFFFFFFFFFFFFFFFFFFFFFFFFFFFFFFFFFFFFF AND PUSH20 0xFFFFFFFFFFFFFFFFFFFFFFFFFFFFFFFFFFFFFFFF AND DUP2 MSTORE PUSH1 0x20 ADD SWAP1 DUP2 MSTORE PUSH1 0x20 ADD PUSH1 0x0 KECCAK256 DUP2 SWAP1 SSTORE POP PUSH3 0x27C JUMP JUMPDEST DUP3 DUP1 SLOAD PUSH3 0x175 SWAP1 PUSH3 0x217 JUMP JUMPDEST SWAP1 PUSH1 0x0 MSTORE PUSH1 0x20 PUSH1 0x0 KECCAK256 SWAP1 PUSH1 0x1F ADD PUSH1 0x20 SWAP1 DIV DUP2 ADD SWAP3 DUP3 PUSH3 0x199 JUMPI PUSH1 0x0 DUP6 SSTORE PUSH3 0x1E5 JUMP JUMPDEST DUP3 PUSH1 0x1F LT PUSH3 0x1B4 JUMPI DUP1 MLOAD PUSH1 0xFF NOT AND DUP4 DUP1 ADD OR DUP6 SSTORE PUSH3 0x1E5 JUMP JUMPDEST DUP3 DUP1 ADD PUSH1 0x1 ADD DUP6 SSTORE DUP3 ISZERO PUSH3 0x1E5 JUMPI SWAP2 DUP3 ADD JUMPDEST DUP3 DUP2 GT ISZERO PUSH3 0x1E4 JUMPI DUP3 MLOAD DUP3 SSTORE SWAP2 PUSH1 0x20 ADD SWAP2 SWAP1 PUSH1 0x1 ADD SWAP1 PUSH3 0x1C7 JUMP JUMPDEST JUMPDEST POP SWAP1 POP PUSH3 0x1F4 SWAP2 SWAP1 PUSH3 0x1F8 JUMP JUMPDEST POP SWAP1 JUMP JUMPDEST JUMPDEST DUP1 DUP3 GT ISZERO PUSH3 0x213 JUMPI PUSH1 0x0 DUP2 PUSH1 0x0 SWAP1 SSTORE POP PUSH1 0x1 ADD PUSH3 0x1F9 JUMP JUMPDEST POP SWAP1 JUMP JUMPDEST PUSH1 0x0 PUSH1 0x2 DUP3 DIV SWAP1 POP PUSH1 0x1 DUP3 AND DUP1 PUSH3 0x230 JUMPI PUSH1 0x7F DUP3 AND SWAP2 POP JUMPDEST PUSH1 0x20 DUP3 LT DUP2 EQ ISZERO PUSH3 0x247 JUMPI PUSH3 0x246 PUSH3 0x24D JUMP JUMPDEST JUMPDEST POP SWAP2 SWAP1 POP JUMP JUMPDEST PUSH32 0x4E487B7100000000000000000000000000000000000000000000000000000000 PUSH1 0x0 MSTORE PUSH1 0x22 PUSH1 0x4 MSTORE PUSH1 0x24 PUSH1 0x0 REVERT JUMPDEST PUSH2 0xCDB DUP1 PUSH3 0x28C PUSH1 0x0 CODECOPY PUSH1 0x0 RETURN INVALID PUSH1 0x80 PUSH1 0x40 MSTORE CALLVALUE DUP1 ISZERO PUSH2 0x10 JUMPI PUSH1 0x0 DUP1 REVERT JUMPDEST POP PUSH1 0x4 CALLDATASIZE LT PUSH2 0x9E JUMPI PUSH1 0x0 CALLDATALOAD PUSH1 0xE0 SHR DUP1 PUSH4 0x4D853EE5 GT PUSH2 0x66 JUMPI DUP1 PUSH4 0x4D853EE5 EQ PUSH2 0x16F JUMPI DUP1 PUSH4 0x70A08231 EQ PUSH2 0x18D JUMPI DUP1 PUSH4 0x76809CE3 EQ PUSH2 0x1BD JUMPI DUP1 PUSH4 0xA9059CBB EQ PUSH2 0x1DB JUMPI DUP1 PUSH4 0xDD62ED3E EQ PUSH2 0x20B JUMPI PUSH2 0x9E JUMP JUMPDEST DUP1 PUSH4 0x6FDDE03 EQ PUSH2 0xA3 JUMPI DUP1 PUSH4 0x95EA7B3 EQ PUSH2 0xC1 JUMPI DUP1 PUSH4 0x18160DDD EQ PUSH2 0xF1 JUMPI DUP1 PUSH4 0x23B872DD EQ PUSH2 0x10F JUMPI DUP1 PUSH4 0x27E235E3 EQ PUSH2 0x13F JUMPI JUMPDEST PUSH1 0x0 DUP1 REVERT JUMPDEST PUSH2 0xAB PUSH2 0x23B JUMP JUMPDEST PUSH1 0x40 MLOAD PUSH2 0xB8 SWAP2 SWAP1 PUSH2 0xA73 JUMP JUMPDEST PUSH1 0x40 MLOAD DUP1 SWAP2 SUB SWAP1 RETURN JUMPDEST PUSH2 0xDB PUSH1 0x4 DUP1 CALLDATASIZE SUB DUP2 ADD SWAP1 PUSH2 0xD6 SWAP2 SWAP1 PUSH2 0x997 JUMP JUMPDEST PUSH2 0x2C9 JUMP JUMPDEST PUSH1 0x40 MLOAD PUSH2 0xE8 SWAP2 SWAP1 PUSH2 0xA58 JUMP JUMPDEST PUSH1 0x40 MLOAD DUP1 SWAP2 SUB SWAP1 RETURN JUMPDEST PUSH2 0xF9 PUSH2 0x414 JUMP JUMPDEST PUSH1 0x40 MLOAD PUSH2 0x106 SWAP2 SWAP1 PUSH2 0xA95 JUMP JUMPDEST PUSH1 0x40 MLOAD DUP1 SWAP2 SUB SWAP1 RETURN JUMPDEST PUSH2 0x129 PUSH1 0x4 DUP1 CALLDATASIZE SUB DUP2 ADD SWAP1 PUSH2 0x124 SWAP2 SWAP1 PUSH2 0x944 JUMP JUMPDEST PUSH2 0x41A JUMP JUMPDEST PUSH1 0x40 MLOAD PUSH2 0x136 SWAP2 SWAP1 PUSH2 0xA58 JUMP JUMPDEST PUSH1 0x40 MLOAD DUP1 SWAP2 SUB SWAP1 RETURN JUMPDEST PUSH2 0x159 PUSH1 0x4 DUP1 CALLDATASIZE SUB DUP2 ADD SWAP1 PUSH2 0x154 SWAP2 SWAP1 PUSH2 0x8D7 JUMP JUMPDEST PUSH2 0x5A8 JUMP JUMPDEST PUSH1 0x40 MLOAD PUSH2 0x166 SWAP2 SWAP1 PUSH2 0xA95 JUMP JUMPDEST PUSH1 0x40 MLOAD DUP1 SWAP2 SUB SWAP1 RETURN JUMPDEST PUSH2 0x177 PUSH2 0x5C0 JUMP JUMPDEST PUSH1 0x40 MLOAD PUSH2 0x184 SWAP2 SWAP1 PUSH2 0xA3D JUMP JUMPDEST PUSH1 0x40 MLOAD DUP1 SWAP2 SUB SWAP1 RETURN JUMPDEST PUSH2 0x1A7 PUSH1 0x4 DUP1 CALLDATASIZE SUB DUP2 ADD SWAP1 PUSH2 0x1A2 SWAP2 SWAP1 PUSH2 0x8D7 JUMP JUMPDEST PUSH2 0x5E6 JUMP JUMPDEST PUSH1 0x40 MLOAD PUSH2 0x1B4 SWAP2 SWAP1 PUSH2 0xA95 JUMP JUMPDEST PUSH1 0x40 MLOAD DUP1 SWAP2 SUB SWAP1 RETURN JUMPDEST PUSH2 0x1C5 PUSH2 0x62F JUMP JUMPDEST PUSH1 0x40 MLOAD PUSH2 0x1D2 SWAP2 SWAP1 PUSH2 0xA73 JUMP JUMPDEST PUSH1 0x40 MLOAD DUP1 SWAP2 SUB SWAP1 RETURN JUMPDEST PUSH2 0x1F5 PUSH1 0x4 DUP1 CALLDATASIZE SUB DUP2 ADD SWAP1 PUSH2 0x1F0 SWAP2 SWAP1 PUSH2 0x997 JUMP JUMPDEST PUSH2 0x6BD JUMP JUMPDEST PUSH1 0x40 MLOAD PUSH2 0x202 SWAP2 SWAP1 PUSH2 0xA58 JUMP JUMPDEST PUSH1 0x40 MLOAD DUP1 SWAP2 SUB SWAP1 RETURN JUMPDEST PUSH2 0x225 PUSH1 0x4 DUP1 CALLDATASIZE SUB DUP2 ADD SWAP1 PUSH2 0x220 SWAP2 SWAP1 PUSH2 0x904 JUMP JUMPDEST PUSH2 0x826 JUMP JUMPDEST PUSH1 0x40 MLOAD PUSH2 0x232 SWAP2 SWAP1 PUSH2 0xA95 JUMP JUMPDEST PUSH1 0x40 MLOAD DUP1 SWAP2 SUB SWAP1 RETURN JUMPDEST PUSH1 0x0 DUP1 SLOAD PUSH2 0x248 SWAP1 PUSH2 0xBD1 JUMP JUMPDEST DUP1 PUSH1 0x1F ADD PUSH1 0x20 DUP1 SWAP2 DIV MUL PUSH1 0x20 ADD PUSH1 0x40 MLOAD SWAP1 DUP2 ADD PUSH1 0x40 MSTORE DUP1 SWAP3 SWAP2 SWAP1 DUP2 DUP2 MSTORE PUSH1 0x20 ADD DUP3 DUP1 SLOAD PUSH2 0x274 SWAP1 PUSH2 0xBD1 JUMP JUMPDEST DUP1 ISZERO PUSH2 0x2C1 JUMPI DUP1 PUSH1 0x1F LT PUSH2 0x296 JUMPI PUSH2 0x100 DUP1 DUP4 SLOAD DIV MUL DUP4 MSTORE SWAP2 PUSH1 0x20 ADD SWAP2 PUSH2 0x2C1 JUMP JUMPDEST DUP3 ADD SWAP2 SWAP1 PUSH1 0x0 MSTORE PUSH1 0x20 PUSH1 0x0 KECCAK256 SWAP1 JUMPDEST DUP2 SLOAD DUP2 MSTORE SWAP1 PUSH1 0x1 ADD SWAP1 PUSH1 0x20 ADD DUP1 DUP4 GT PUSH2 0x2A4 JUMPI DUP3 SWAP1 SUB PUSH1 0x1F AND DUP3 ADD SWAP2 JUMPDEST POP POP POP POP POP DUP2 JUMP JUMPDEST PUSH1 0x0 DUP2 PUSH1 0x4 PUSH1 0x0 CALLER PUSH20 0xFFFFFFFFFFFFFFFFFFFFFFFFFFFFFFFFFFFFFFFF AND PUSH20 0xFFFFFFFFFFFFFFFFFFFFFFFFFFFFFFFFFFFFFFFF AND DUP2 MSTORE PUSH1 0x20 ADD SWAP1 DUP2 MSTORE PUSH1 0x20 ADD PUSH1 0x0 KECCAK256 SLOAD LT ISZERO PUSH2 0x317 JUMPI PUSH1 0x0 DUP1 REVERT JUMPDEST PUSH1 0x0 DUP3 GT PUSH2 0x324 JUMPI PUSH1 0x0 DUP1 REVERT JUMPDEST DUP2 PUSH1 0x5 PUSH1 0x0 CALLER PUSH20 0xFFFFFFFFFFFFFFFFFFFFFFFFFFFFFFFFFFFFFFFF AND PUSH20 0xFFFFFFFFFFFFFFFFFFFFFFFFFFFFFFFFFFFFFFFF AND DUP2 MSTORE PUSH1 0x20 ADD SWAP1 DUP2 MSTORE PUSH1 0x20 ADD PUSH1 0x0 KECCAK256 PUSH1 0x0 DUP6 PUSH20 0xFFFFFFFFFFFFFFFFFFFFFFFFFFFFFFFFFFFFFFFF AND PUSH20 0xFFFFFFFFFFFFFFFFFFFFFFFFFFFFFFFFFFFFFFFF AND DUP2 MSTORE PUSH1 0x20 ADD SWAP1 DUP2 MSTORE PUSH1 0x20 ADD PUSH1 0x0 KECCAK256 DUP2 SWAP1 SSTORE POP DUP3 PUSH20 0xFFFFFFFFFFFFFFFFFFFFFFFFFFFFFFFFFFFFFFFF AND CALLER PUSH20 0xFFFFFFFFFFFFFFFFFFFFFFFFFFFFFFFFFFFFFFFF AND PUSH32 0x8C5BE1E5EBEC7D5BD14F71427D1E84F3DD0314C0F7B2291E5B200AC8C7C3B925 DUP5 PUSH1 0x40 MLOAD PUSH2 0x402 SWAP2 SWAP1 PUSH2 0xA95 JUMP JUMPDEST PUSH1 0x40 MLOAD DUP1 SWAP2 SUB SWAP1 LOG3 PUSH1 0x1 SWAP1 POP SWAP3 SWAP2 POP POP JUMP JUMPDEST PUSH1 0x2 SLOAD DUP2 JUMP JUMPDEST PUSH1 0x0 DUP2 PUSH1 0x5 PUSH1 0x0 DUP7 PUSH20 0xFFFFFFFFFFFFFFFFFFFFFFFFFFFFFFFFFFFFFFFF AND PUSH20 0xFFFFFFFFFFFFFFFFFFFFFFFFFFFFFFFFFFFFFFFF AND DUP2 MSTORE PUSH1 0x20 ADD SWAP1 DUP2 MSTORE PUSH1 0x20 ADD PUSH1 0x0 KECCAK256 PUSH1 0x0 DUP6 PUSH20 0xFFFFFFFFFFFFFFFFFFFFFFFFFFFFFFFFFFFFFFFF AND PUSH20 0xFFFFFFFFFFFFFFFFFFFFFFFFFFFFFFFFFFFFFFFF AND DUP2 MSTORE PUSH1 0x20 ADD SWAP1 DUP2 MSTORE PUSH1 0x20 ADD PUSH1 0x0 KECCAK256 SLOAD LT ISZERO PUSH2 0x4A5 JUMPI PUSH1 0x0 DUP1 REVERT JUMPDEST DUP2 PUSH1 0x4 PUSH1 0x0 DUP7 PUSH20 0xFFFFFFFFFFFFFFFFFFFFFFFFFFFFFFFFFFFFFFFF AND PUSH20 0xFFFFFFFFFFFFFFFFFFFFFFFFFFFFFFFFFFFFFFFF AND DUP2 MSTORE PUSH1 0x20 ADD SWAP1 DUP2 MSTORE PUSH1 0x20 ADD PUSH1 0x0 KECCAK256 SLOAD LT ISZERO PUSH2 0x4F1 JUMPI PUSH1 0x0 DUP1 REVERT JUMPDEST DUP2 PUSH1 0x4 PUSH1 0x0 DUP7 PUSH20 0xFFFFFFFFFFFFFFFFFFFFFFFFFFFFFFFFFFFFFFFF AND PUSH20 0xFFFFFFFFFFFFFFFFFFFFFFFFFFFFFFFFFFFFFFFF AND DUP2 MSTORE PUSH1 0x20 ADD SWAP1 DUP2 MSTORE PUSH1 0x20 ADD PUSH1 0x0 KECCAK256 PUSH1 0x0 DUP3 DUP3 SLOAD PUSH2 0x540 SWAP2 SWAP1 PUSH2 0xB22 JUMP JUMPDEST SWAP3 POP POP DUP2 SWAP1 SSTORE POP DUP2 PUSH1 0x4 PUSH1 0x0 DUP6 PUSH20 0xFFFFFFFFFFFFFFFFFFFFFFFFFFFFFFFFFFFFFFFF AND PUSH20 0xFFFFFFFFFFFFFFFFFFFFFFFFFFFFFFFFFFFFFFFF AND DUP2 MSTORE PUSH1 0x20 ADD SWAP1 DUP2 MSTORE PUSH1 0x20 ADD PUSH1 0x0 KECCAK256 PUSH1 0x0 DUP3 DUP3 SLOAD PUSH2 0x596 SWAP2 SWAP1 PUSH2 0xACC JUMP JUMPDEST SWAP3 POP POP DUP2 SWAP1 SSTORE POP PUSH1 0x1 SWAP1 POP SWAP4 SWAP3 POP POP POP JUMP JUMPDEST PUSH1 0x4 PUSH1 0x20 MSTORE DUP1 PUSH1 0x0 MSTORE PUSH1 0x40 PUSH1 0x0 KECCAK256 PUSH1 0x0 SWAP2 POP SWAP1 POP SLOAD DUP2 JUMP JUMPDEST PUSH1 0x3 PUSH1 0x0 SWAP1 SLOAD SWAP1 PUSH2 0x100 EXP SWAP1 DIV PUSH20 0xFFFFFFFFFFFFFFFFFFFFFFFFFFFFFFFFFFFFFFFF AND DUP2 JUMP JUMPDEST PUSH1 0x0 PUSH1 0x4 PUSH1 0x0 DUP4 PUSH20 0xFFFFFFFFFFFFFFFFFFFFFFFFFFFFFFFFFFFFFFFF AND PUSH20 0xFFFFFFFFFFFFFFFFFFFFFFFFFFFFFFFFFFFFFFFF AND DUP2 MSTORE PUSH1 0x20 ADD SWAP1 DUP2 MSTORE PUSH1 0x20 ADD PUSH1 0x0 KECCAK256 SLOAD SWAP1 POP SWAP2 SWAP1 POP JUMP JUMPDEST PUSH1 0x1 DUP1 SLOAD PUSH2 0x63C SWAP1 PUSH2 0xBD1 JUMP JUMPDEST DUP1 PUSH1 0x1F ADD PUSH1 0x20 DUP1 SWAP2 DIV MUL PUSH1 0x20 ADD PUSH1 0x40 MLOAD SWAP1 DUP2 ADD PUSH1 0x40 MSTORE DUP1 SWAP3 SWAP2 SWAP1 DUP2 DUP2 MSTORE PUSH1 0x20 ADD DUP3 DUP1 SLOAD PUSH2 0x668 SWAP1 PUSH2 0xBD1 JUMP JUMPDEST DUP1 ISZERO PUSH2 0x6B5 JUMPI DUP1 PUSH1 0x1F LT PUSH2 0x68A JUMPI PUSH2 0x100 DUP1 DUP4 SLOAD DIV MUL DUP4 MSTORE SWAP2 PUSH1 0x20 ADD SWAP2 PUSH2 0x6B5 JUMP JUMPDEST DUP3 ADD SWAP2 SWAP1 PUSH1 0x0 MSTORE PUSH1 0x20 PUSH1 0x0 KECCAK256 SWAP1 JUMPDEST DUP2 SLOAD DUP2 MSTORE SWAP1 PUSH1 0x1 ADD SWAP1 PUSH1 0x20 ADD DUP1 DUP4 GT PUSH2 0x698 JUMPI DUP3 SWAP1 SUB PUSH1 0x1F AND DUP3 ADD SWAP2 JUMPDEST POP POP POP POP POP DUP2 JUMP JUMPDEST PUSH1 0x0 DUP2 PUSH1 0x4 PUSH1 0x0 CALLER PUSH20 0xFFFFFFFFFFFFFFFFFFFFFFFFFFFFFFFFFFFFFFFF AND PUSH20 0xFFFFFFFFFFFFFFFFFFFFFFFFFFFFFFFFFFFFFFFF AND DUP2 MSTORE PUSH1 0x20 ADD SWAP1 DUP2 MSTORE PUSH1 0x20 ADD PUSH1 0x0 KECCAK256 SLOAD LT ISZERO PUSH2 0x70B JUMPI PUSH1 0x0 DUP1 REVERT JUMPDEST DUP2 PUSH1 0x4 PUSH1 0x0 DUP6 PUSH20 0xFFFFFFFFFFFFFFFFFFFFFFFFFFFFFFFFFFFFFFFF AND PUSH20 0xFFFFFFFFFFFFFFFFFFFFFFFFFFFFFFFFFFFFFFFF AND DUP2 MSTORE PUSH1 0x20 ADD SWAP1 DUP2 MSTORE PUSH1 0x20 ADD PUSH1 0x0 KECCAK256 PUSH1 0x0 DUP3 DUP3 SLOAD PUSH2 0x75A SWAP2 SWAP1 PUSH2 0xACC JUMP JUMPDEST SWAP3 POP POP DUP2 SWAP1 SSTORE POP DUP2 PUSH1 0x4 PUSH1 0x0 CALLER PUSH20 0xFFFFFFFFFFFFFFFFFFFFFFFFFFFFFFFFFFFFFFFF AND PUSH20 0xFFFFFFFFFFFFFFFFFFFFFFFFFFFFFFFFFFFFFFFF AND DUP2 MSTORE PUSH1 0x20 ADD SWAP1 DUP2 MSTORE PUSH1 0x20 ADD PUSH1 0x0 KECCAK256 PUSH1 0x0 DUP3 DUP3 SLOAD PUSH2 0x7B0 SWAP2 SWAP1 PUSH2 0xB22 JUMP JUMPDEST SWAP3 POP POP DUP2 SWAP1 SSTORE POP DUP3 PUSH20 0xFFFFFFFFFFFFFFFFFFFFFFFFFFFFFFFFFFFFFFFF AND CALLER PUSH20 0xFFFFFFFFFFFFFFFFFFFFFFFFFFFFFFFFFFFFFFFF AND PUSH32 0xDDF252AD1BE2C89B69C2B068FC378DAA952BA7F163C4A11628F55A4DF523B3EF DUP5 PUSH1 0x40 MLOAD PUSH2 0x814 SWAP2 SWAP1 PUSH2 0xA95 JUMP JUMPDEST PUSH1 0x40 MLOAD DUP1 SWAP2 SUB SWAP1 LOG3 PUSH1 0x1 SWAP1 POP SWAP3 SWAP2 POP POP JUMP JUMPDEST PUSH1 0x0 PUSH1 0x5 PUSH1 0x0 DUP5 PUSH20 0xFFFFFFFFFFFFFFFFFFFFFFFFFFFFFFFFFFFFFFFF AND PUSH20 0xFFFFFFFFFFFFFFFFFFFFFFFFFFFFFFFFFFFFFFFF AND DUP2 MSTORE PUSH1 0x20 ADD SWAP1 DUP2 MSTORE PUSH1 0x20 ADD PUSH1 0x0 KECCAK256 PUSH1 0x0 DUP4 PUSH20 0xFFFFFFFFFFFFFFFFFFFFFFFFFFFFFFFFFFFFFFFF AND PUSH20 0xFFFFFFFFFFFFFFFFFFFFFFFFFFFFFFFFFFFFFFFF AND DUP2 MSTORE PUSH1 0x20 ADD SWAP1 DUP2 MSTORE PUSH1 0x20 ADD PUSH1 0x0 KECCAK256 SLOAD SWAP1 POP SWAP3 SWAP2 POP POP JUMP JUMPDEST PUSH1 0x0 DUP2 CALLDATALOAD SWAP1 POP PUSH2 0x8BC DUP2 PUSH2 0xC77 JUMP JUMPDEST SWAP3 SWAP2 POP POP JUMP JUMPDEST PUSH1 0x0 DUP2 CALLDATALOAD SWAP1 POP PUSH2 0x8D1 DUP2 PUSH2 0xC8E JUMP JUMPDEST SWAP3 SWAP2 POP POP JUMP JUMPDEST PUSH1 0x0 PUSH1 0x20 DUP3 DUP5 SUB SLT ISZERO PUSH2 0x8ED JUMPI PUSH2 0x8EC PUSH2 0xC61 JUMP JUMPDEST JUMPDEST PUSH1 0x0 PUSH2 0x8FB DUP5 DUP3 DUP6 ADD PUSH2 0x8AD JUMP JUMPDEST SWAP2 POP POP SWAP3 SWAP2 POP POP JUMP JUMPDEST PUSH1 0x0 DUP1 PUSH1 0x40 DUP4 DUP6 SUB SLT ISZERO PUSH2 0x91B JUMPI PUSH2 0x91A PUSH2 0xC61 JUMP JUMPDEST JUMPDEST PUSH1 0x0 PUSH2 0x929 DUP6 DUP3 DUP7 ADD PUSH2 0x8AD JUMP JUMPDEST SWAP3 POP POP PUSH1 0x20 PUSH2 0x93A DUP6 DUP3 DUP7 ADD PUSH2 0x8AD JUMP JUMPDEST SWAP2 POP POP SWAP3 POP SWAP3 SWAP1 POP JUMP JUMPDEST PUSH1 0x0 DUP1 PUSH1 0x0 PUSH1 0x60 DUP5 DUP7 SUB SLT ISZERO PUSH2 0x95D JUMPI PUSH2 0x95C PUSH2 0xC61 JUMP JUMPDEST JUMPDEST PUSH1 0x0 PUSH2 0x96B DUP7 DUP3 DUP8 ADD PUSH2 0x8AD JUMP JUMPDEST SWAP4 POP POP PUSH1 0x20 PUSH2 0x97C DUP7 DUP3 DUP8 ADD PUSH2 0x8AD JUMP JUMPDEST SWAP3 POP POP PUSH1 0x40 PUSH2 0x98D DUP7 DUP3 DUP8 ADD PUSH2 0x8C2 JUMP JUMPDEST SWAP2 POP POP SWAP3 POP SWAP3 POP SWAP3 JUMP JUMPDEST PUSH1 0x0 DUP1 PUSH1 0x40 DUP4 DUP6 SUB SLT ISZERO PUSH2 0x9AE JUMPI PUSH2 0x9AD PUSH2 0xC61 JUMP JUMPDEST JUMPDEST PUSH1 0x0 PUSH2 0x9BC DUP6 DUP3 DUP7 ADD PUSH2 0x8AD JUMP JUMPDEST SWAP3 POP POP PUSH1 0x20 PUSH2 0x9CD DUP6 DUP3 DUP7 ADD PUSH2 0x8C2 JUMP JUMPDEST SWAP2 POP POP SWAP3 POP SWAP3 SWAP1 POP JUMP JUMPDEST PUSH2 0x9E0 DUP2 PUSH2 0xB56 JUMP JUMPDEST DUP3 MSTORE POP POP JUMP JUMPDEST PUSH2 0x9EF DUP2 PUSH2 0xB68 JUMP JUMPDEST DUP3 MSTORE POP POP JUMP JUMPDEST PUSH1 0x0 PUSH2 0xA00 DUP3 PUSH2 0xAB0 JUMP JUMPDEST PUSH2 0xA0A DUP2 DUP6 PUSH2 0xABB JUMP JUMPDEST SWAP4 POP PUSH2 0xA1A DUP2 DUP6 PUSH1 0x20 DUP7 ADD PUSH2 0xB9E JUMP JUMPDEST PUSH2 0xA23 DUP2 PUSH2 0xC66 JUMP JUMPDEST DUP5 ADD SWAP2 POP POP SWAP3 SWAP2 POP POP JUMP JUMPDEST PUSH2 0xA37 DUP2 PUSH2 0xB94 JUMP JUMPDEST DUP3 MSTORE POP POP JUMP JUMPDEST PUSH1 0x0 PUSH1 0x20 DUP3 ADD SWAP1 POP PUSH2 0xA52 PUSH1 0x0 DUP4 ADD DUP5 PUSH2 0x9D7 JUMP JUMPDEST SWAP3 SWAP2 POP POP JUMP JUMPDEST PUSH1 0x0 PUSH1 0x20 DUP3 ADD SWAP1 POP PUSH2 0xA6D PUSH1 0x0 DUP4 ADD DUP5 PUSH2 0x9E6 JUMP JUMPDEST SWAP3 SWAP2 POP POP JUMP JUMPDEST PUSH1 0x0 PUSH1 0x20 DUP3 ADD SWAP1 POP DUP2 DUP2 SUB PUSH1 0x0 DUP4 ADD MSTORE PUSH2 0xA8D DUP2 DUP5 PUSH2 0x9F5 JUMP JUMPDEST SWAP1 POP SWAP3 SWAP2 POP POP JUMP JUMPDEST PUSH1 0x0 PUSH1 0x20 DUP3 ADD SWAP1 POP PUSH2 0xAAA PUSH1 0x0 DUP4 ADD DUP5 PUSH2 0xA2E JUMP JUMPDEST SWAP3 SWAP2 POP POP JUMP JUMPDEST PUSH1 0x0 DUP2 MLOAD SWAP1 POP SWAP2 SWAP1 POP JUMP JUMPDEST PUSH1 0x0 DUP3 DUP3 MSTORE PUSH1 0x20 DUP3 ADD SWAP1 POP SWAP3 SWAP2 POP POP JUMP JUMPDEST PUSH1 0x0 PUSH2 0xAD7 DUP3 PUSH2 0xB94 JUMP JUMPDEST SWAP2 POP PUSH2 0xAE2 DUP4 PUSH2 0xB94 JUMP JUMPDEST SWAP3 POP DUP3 PUSH32 0xFFFFFFFFFFFFFFFFFFFFFFFFFFFFFFFFFFFFFFFFFFFFFFFFFFFFFFFFFFFFFFFF SUB DUP3 GT ISZERO PUSH2 0xB17 JUMPI PUSH2 0xB16 PUSH2 0xC03 JUMP JUMPDEST JUMPDEST DUP3 DUP3 ADD SWAP1 POP SWAP3 SWAP2 POP POP JUMP JUMPDEST PUSH1 0x0 PUSH2 0xB2D DUP3 PUSH2 0xB94 JUMP JUMPDEST SWAP2 POP PUSH2 0xB38 DUP4 PUSH2 0xB94 JUMP JUMPDEST SWAP3 POP DUP3 DUP3 LT ISZERO PUSH2 0xB4B JUMPI PUSH2 0xB4A PUSH2 0xC03 JUMP JUMPDEST JUMPDEST DUP3 DUP3 SUB SWAP1 POP SWAP3 SWAP2 POP POP JUMP JUMPDEST PUSH1 0x0 PUSH2 0xB61 DUP3 PUSH2 0xB74 JUMP JUMPDEST SWAP1 POP SWAP2 SWAP1 POP JUMP JUMPDEST PUSH1 0x0 DUP2 ISZERO ISZERO SWAP1 POP SWAP2 SWAP1 POP JUMP JUMPDEST PUSH1 0x0 PUSH20 0xFFFFFFFFFFFFFFFFFFFFFFFFFFFFFFFFFFFFFFFF DUP3 AND SWAP1 POP SWAP2 SWAP1 POP JUMP JUMPDEST PUSH1 0x0 DUP2 SWAP1 POP SWAP2 SWAP1 POP JUMP JUMPDEST PUSH1 0x0 JUMPDEST DUP4 DUP2 LT ISZERO PUSH2 0xBBC JUMPI DUP1 DUP3 ADD MLOAD DUP2 DUP5 ADD MSTORE PUSH1 0x20 DUP2 ADD SWAP1 POP PUSH2 0xBA1 JUMP JUMPDEST DUP4 DUP2 GT ISZERO PUSH2 0xBCB JUMPI PUSH1 0x0 DUP5 DUP5 ADD MSTORE JUMPDEST POP POP POP POP JUMP JUMPDEST PUSH1 0x0 PUSH1 0x2 DUP3 DIV SWAP1 POP PUSH1 0x1 DUP3 AND DUP1 PUSH2 0xBE9 JUMPI PUSH1 0x7F DUP3 AND SWAP2 POP JUMPDEST PUSH1 0x20 DUP3 LT DUP2 EQ ISZERO PUSH2 0xBFD JUMPI PUSH2 0xBFC PUSH2 0xC32 JUMP JUMPDEST JUMPDEST POP SWAP2 SWAP1 POP JUMP JUMPDEST PUSH32 0x4E487B7100000000000000000000000000000000000000000000000000000000 PUSH1 0x0 MSTORE PUSH1 0x11 PUSH1 0x4 MSTORE PUSH1 0x24 PUSH1 0x0 REVERT JUMPDEST PUSH32 0x4E487B7100000000000000000000000000000000000000000000000000000000 PUSH1 0x0 MSTORE PUSH1 0x22 PUSH1 0x4 MSTORE PUSH1 0x24 PUSH1 0x0 REVERT JUMPDEST PUSH1 0x0 DUP1 REVERT JUMPDEST PUSH1 0x0 PUSH1 0x1F NOT PUSH1 0x1F DUP4 ADD AND SWAP1 POP SWAP2 SWAP1 POP JUMP JUMPDEST PUSH2 0xC80 DUP2 PUSH2 0xB56 JUMP JUMPDEST DUP2 EQ PUSH2 0xC8B JUMPI PUSH1 0x0 DUP1 REVERT JUMPDEST POP JUMP JUMPDEST PUSH2 0xC97 DUP2 PUSH2 0xB94 JUMP JUMPDEST DUP2 EQ PUSH2 0xCA2 JUMPI PUSH1 0x0 DUP1 REVERT JUMPDEST POP JUMP INVALID LOG2 PUSH5 0x6970667358 0x22 SLT KECCAK256 PUSH30 0xECE68686C2E5E26A3B534FD1ED99A3B27A1C765F62857921FA30A60816CD PUSH21 0x64736F6C6343000807003300000000000000000000 "
				},
				"gasEstimates": {
					"creation": {
						"codeDepositCost": "658200",
						"executionCost": "infinite",
						"totalCost": "infinite"
					},
					"external": {
						"allowance(address,address)": "infinite",
						"approve(address,uint256)": "infinite",
						"balanceOf(address)": "2863",
						"balances(address)": "2903",
						"decimal()": "infinite",
						"founder()": "2514",
						"name()": "infinite",
						"totalSupply()": "2474",
						"transfer(address,uint256)": "infinite",
						"transferFrom(address,address,uint256)": "infinite"
					}
				},
				"methodIdentifiers": {
					"allowance(address,address)": "dd62ed3e",
					"approve(address,uint256)": "095ea7b3",
					"balanceOf(address)": "70a08231",
					"balances(address)": "27e235e3",
					"decimal()": "76809ce3",
					"founder()": "4d853ee5",
					"name()": "06fdde03",
					"totalSupply()": "18160ddd",
					"transfer(address,uint256)": "a9059cbb",
					"transferFrom(address,address,uint256)": "23b872dd"
				}
			},
			"storageLayout": {
				"storage": [
					{
						"astId": 72,
						"contract": "ico.sol:Block",
						"label": "name",
						"offset": 0,
						"slot": "0",
						"type": "t_string_storage"
					},
					{
						"astId": 75,
						"contract": "ico.sol:Block",
						"label": "decimal",
						"offset": 0,
						"slot": "1",
						"type": "t_string_storage"
					},
					{
						"astId": 78,
						"contract": "ico.sol:Block",
						"label": "totalSupply",
						"offset": 0,
						"slot": "2",
						"type": "t_uint256"
					},
					{
						"astId": 80,
						"contract": "ico.sol:Block",
						"label": "founder",
						"offset": 0,
						"slot": "3",
						"type": "t_address"
					},
					{
						"astId": 84,
						"contract": "ico.sol:Block",
						"label": "balances",
						"offset": 0,
						"slot": "4",
						"type": "t_mapping(t_address,t_uint256)"
					},
					{
						"astId": 90,
						"contract": "ico.sol:Block",
						"label": "allowed",
						"offset": 0,
						"slot": "5",
						"type": "t_mapping(t_address,t_mapping(t_address,t_uint256))"
					}
				],
				"types": {
					"t_address": {
						"encoding": "inplace",
						"label": "address",
						"numberOfBytes": "20"
					},
					"t_mapping(t_address,t_mapping(t_address,t_uint256))": {
						"encoding": "mapping",
						"key": "t_address",
						"label": "mapping(address => mapping(address => uint256))",
						"numberOfBytes": "32",
						"value": "t_mapping(t_address,t_uint256)"
					},
					"t_mapping(t_address,t_uint256)": {
						"encoding": "mapping",
						"key": "t_address",
						"label": "mapping(address => uint256)",
						"numberOfBytes": "32",
						"value": "t_uint256"
					},
					"t_string_storage": {
						"encoding": "bytes",
						"label": "string",
						"numberOfBytes": "32"
					},
					"t_uint256": {
						"encoding": "inplace",
						"label": "uint256",
						"numberOfBytes": "32"
					}
				}
			},
			"userdoc": {
				"kind": "user",
				"methods": {},
				"version": 1
			}
		}
	}
}